:02000004080AE8
:1000000000000A0850220A08000006000600050148
:080010000402E80500000000F5
:040018005C1E0A0858
:10001C0009480A4908B5884205D0094A824202D0EB
:10002C00121A01F0B5FE0748074A0021121A01F016
:10003C00BAFE064808BD00BF00000020B4210A0823
:10004C007400002074000020980600209806002000
:10005C0070B501F01BFC074B074C1E46E41AA408B4
:10006C000025A54204D056F8253098470135F8E70D
:10007C0070BD00BF80210A08B0210A0800F0B4B896
:10008C0008B500F0D7F8BDE8084001F0C1BB00F09E
:10009C0047BC00F04DBC0078B0FA80F040097047C6
:1000AC000123037070470000024A13680133136088
:1000BC00704700BFA800002003681847012A02D02F
:1000CC00022A02D004E0016002E00B6800B1036078
:1000DC0000207047436913B183690C30184770478F
:1000EC0013B504460021084600F00AFA02A90023C1
:1000FC00204641F8043D00F01BFA019C0CB1012391
:10010C0023710021012000F0FBF92CB1236820465B
:10011C009B6898470023237102B010BD10B50446AC
:10012C00006808B100F004FC204610BD10B58368CF
:10013C00044613B1032201469847204610BD07B56B
:10014C008068002338B18DE80A00022100F0F8F92C
:10015C00B0FA80F0400903B05DF804FB38B5104BE1
:10016C00044603608368A3B16FF000410022FFF7DF
:10017C00E6FF0021A06800F003FA237903F0FF05E5
:10018C0013B100F0B5F9F8E72946A06800F0C8F9FA
:10019C00A56004F10C00FFF7C9FF204638BD00BF75
:1001AC00781E0A0810B50446FFF7D8FF20461C211C
:1001BC0001F079FC204610BD07B5014600230088EC
:1001CC00009301224FF0FF33496800F0FBFE03B0AF
:1001DC005DF804FB08B500F03BFB18B9BDE808401E
:1001EC0000F026BB08BD000008B50222002304491C
:1001FC00044800F015FBBDE80840FFF7EBBF00BF5B
:10020C00A0000020841E0A0838B5046805467CB19D
:10021C006368013B63605BB9236820469B68984721
:10022C00A368013BA3601BB923682046DB68984791
:10023C00284638BD1FB5204B204A196811601A6832
:10024C00052392FBF3F303EB83039A4231D11C4C4D
:10025C00208801F0B7FB012826D11A4B98681C4660
:10026C0018B1002100F084F978B900221146154824
:10027C00FFF765FFA06840B100236FF000428DE8E6
:10028C000C0019461A4600F05BF90F4B02A81968CE
:10029C000E4B00221B788DF800303C2300F0CCFC78
:1002AC0003A8FFF7B1FF04E00121208801F071FBE6
:1002BC00D3E704B010BD00BFA8000020A0000020B0
:1002CC00940000207800002008000020A4000020EA
:1002DC002DE9F0433A4BDFF80091196899F800309A
:1002EC008DB0002207AC8DF8003006A83C2300F03E
:1002FC00A3FC2046FFF788FF324BDFF8E08018881C
:10030C0000F088FE0021B8F8000001F031FB102548
:10031C0000F096FA00262C4B2A46314620461E60E9
:10032C00069401F040FD01238DF82C3002270323A5
:10033C0026492846ADF81C50ADF81E708DF82030BB
:10034C0001F0BCFB0446002834D02A46314601F0AB
:10035C002AFD042325806780A3800A9BA3601C4B85
:10036C00E3600A9403A806A900F0E4FF039808B11F
:10037C0000F0DEFAFFF72EFF164B0022196899F8F1
:10038C00003003A88DF800303C2300F055FC04A885
:10039C00FFF73AFF0121B8F8000001F0E9FA09482B
:1003AC00FFF70AFF0A9840B184680C2101F07BFB2F
:1003BC002046F8E78DF82C00D4E70DB0BDE8F083AB
:1003CC000000002098000020A800002018210A0836
:1003DC00804F120004000020A40000209400002094
:1003EC0008B500226FF000410548FFF7A8FE054B49
:1003FC000021188801F0CDFABDE80840FFF768BF6E
:10040C007800002094000020F0B52B4B89B0012619
:10041C001E7000F0CDF84FF6FF73284C0025284FC6
:10042C0063812560A580A5712581022000F0C2F9A9
:10043C003A462449204601F031FB234B234C1D60E6
:10044C00234B032130466360266001F091FA20466D
:10045C00FFF7B2FE1F4B02AA049304AE1E4C96E8A3
:10046C0003001E4B82E80300236004F10C0393E8A5
:10047C00030086E8030092E8030083E80300184BAE
:10048C0025716361A369A5600793164B164AA36196
:10049C004EF6602123460195009504F1080006955F
:1004AC0000F036F83046FFF741FE3A460F49204639
:1004BC0001F0F4FA09B0F0BDA4000020AC0000205B
:1004CC007400002029010A089400002098000020E4
:1004DC00B5000A08ED030A0878000020781E0A0807
:1004EC00C9000A08C5000A08ED000A0869010A08D3
:1004FC0008B5024B1B68DB68019308BDD0010608E8
:10050C0008B5024B1B68DB69019308BDD0010608D6
:10051C0008B5024B1B681B6A019308BDD001060885
:10052C0008B5024B1B685B6A019308BDD001060835
:10053C0008B5024B1B689B6A019308BDD0010608E5
:10054C0008B5024B1B68DB6A019308BDD001060895
:10055C0008B5024B1B685B6C019308BDD001060803
:10056C0008B5024B1B689B6C019308BDD0010608B3
:10057C0008B5024B1B689B6D019308BDD0010608A2
:10058C0008B5024B1B681B6F019308BDD001060810
:10059C0008B5024B1B685B68019308BD9C010608FB
:1005AC0008B5024B1B685B69019308BD9C010608EA
:1005BC0008B5024B1B681B68019308BDB001060807
:1005CC0008B5024B1B689B68019308BDB001060877
:1005DC0008B5024B1B68DB68019308BDB001060827
:1005EC0008B5024B1B681B69019308BDB0010608D6
:1005FC0008B5024B1B685B69019308BDB001060886
:10060C0008B5024B1B689B69019308BDB001060835
:10061C0008B5024B1B68DB69019308BDB0010608E5
:10062C0008B5024B1B681B6E019308BDAC01060894
:10063C0008B5024B1B685B6E019308BDAC01060844
:10064C0008B5024B1B689B6E019308BDAC010608F4
:10065C0008B5024B1B68DB6E019308BDAC010608A4
:10066C0008B5024B1B681B6F019308BDAC01060853
:10067C0008B5024B1B685B6F019308BDAC01060803
:10068C0008B5034B1B68D3F88030019308BD0000FC
:10069C00AC01060808B5024B1B68DB69019308BD69
:1006AC00B401060808B5024B1B681B6A019308BD10
:1006BC00B401060808B5024B1B689B69019308BD81
:1006CC00C401060808B5024B1B685B6A019308BDA0
:1006DC00C401060808B5024B1B689B6A019308BD50
:1006EC00C401060808B5024B1B68DB6A019308BD00
:1006FC00C401060808B5024B1B681B6B019308BDAF
:10070C00C401060808B5024B1B685B6B019308BD5E
:10071C00C401060808B5024B1B689B6B019308BD0E
:10072C00C401060808B5024B1B681B6C019308BD7D
:10073C00C401060808B5024B1B681B68019308BD71
:10074C00D801060808B5024B1B681B69019308BD4C
:10075C00D801060808B5024B1B685B69019308BDFC
:10076C00D801060808B5024B1B689B69019308BDAC
:10077C00D801060808B5024B1B68DB69019308BD5C
:10078C00D801060808B5024B1B681B6A019308BD0B
:10079C00D801060808B5024B1B689B6C019308BD79
:1007AC00C001060808B5024B1B681B6D019308BD00
:1007BC00A801020808B5024B1B685B68019308BDD1
:1007CC00A401060808B5024B1B68DB6C019308BD3D
:1007DC00A401060808B5024B1B685B6D019308BDAC
:1007EC00A401060808B5034B1B68D3F8903001939D
:1007FC0008BD0000A401060808B5034B1B68D3F81C
:10080C009C30019308BD0000A401060808B5034BF9
:10081C001B68D3F8B030019308BD0000A401060892
:10082C0008B5024B1B681B68019308BDCC01060878
:10083C0008B5024B1B68DB68019308BDCC010608A8
:10084C0008B5024B1B681B69019308BDCC01060857
:10085C0008B5024B1B685B69019308BDCC01060807
:10086C0008B5024B1B681B6A019308BDCC01060836
:10087C0008B5024B1B68DB6B019308BDCC01060865
:10088C0008B5024B1B685B68019308BDC8010608DC
:10089C0008B5024B1B689B68019308BDC80106088C
:1008AC0008B5024B1B68DB68019308BDC80106083C
:1008BC0008B5024B1B681B69019308BDC8010608EB
:1008CC0008B5024B1B685B69019308BDC80106089B
:1008DC0008B5024B1B689B69019308BDC80106084B
:1008EC0008B5024B1B68DB69019308BDC8010608FB
:1008FC0008B5024B1B681B6A019308BDC8010608AA
:10090C0008B5024B1B681B6B019308BDC801060898
:10091C0008B5024B1B685B6B019308BDC801060848
:10092C0008B5024B1B681B68019308BDA0010608A3
:10093C0008B5024B1B685B68019308BDA001060853
:10094C0008B5024B1B68DB6A019308BDA0010608C1
:10095C0008B5024B1B681B6B019308BDA001060870
:10096C0010B5836804460BB901F0B9F8C368984711
:10097C00A3681BB103222146204698472046BDE8B8
:10098C001040102101F08FB870470020704710B54F
:10099C000446102101F087F8204610BD08B508B1B7
:1009AC00FFF7F5FF08BD002202604FF69C728280B3
:1009BC0010B5B1F9044084808A8002680C68046028
:1009CC000A6010BD10B504460068FFF7B1FF204661
:1009DC0010BD38B5C468F4B12378022B03D104F1EF
:1009EC000C00FFF7EFFF656835B12846FFF79EFB5B
:1009FC001021284601F057F8A56835B12846FFF7B5
:100A0C0095FB1021284601F04EF82046BDE83840F1
:100A1C00142101F048B838BD13B5044691E805001F
:100A2C0000234B600B602060626001A8019300936F
:100A3C00FFF7EAFB204602B010BD0B68036013B150
:100A4C005A6801325A607047F7B50C4606460F4695
:100A5C0054F8043B02AD45F8083D214601A8FFF7C8
:100A6C00ECFF29463046FFF7D7FF01A8FFF7CCFB78
:100A7C002046FFF7C9FB3846082101F014F8304630
:100A8C0003B0F0BD13B50B46044603C88DE8030054
:100A9C0093E8030084E803009DE8030083E8030067
:100AAC0002B010BD38B500230446036010200D467B
:100ABC00FFF7EDFA28B1012343608360024BC56058
:100ACC0003602060204638BDC41E0A08826810B539
:100ADC000AB901F004F8C368BDE81040184708B51E
:100AEC00006800F11001FFF7F1FF08BD826810B536
:100AFC000AB900F0F4FFC368BDE81040184708B508
:100B0C00006800F11001FFF7F1FF08BD38B50023B4
:100B1C0083608B6804460D462BB102229847EB6824
:100B2C00E360AB68A360204638BD0000F0B589B027
:100B3C0004686846FFF737FF4FF0020200238DF878
:100B4C000830D4E84F3F002B03D1C4E8412F0029D3
:100B5C00F7D102D08DF8083063E014F10C0503D006
:100B6C0069462846FFF71FFFBFF35F8F01236370B1
:100B7C00BFF35F8F04F10803002053E8006F43E8D4
:100B8C000002002AF9D1BFF35F8F002E49D0FFF786
:100B9C0019FE20B129463046FFF798FF3AE031465E
:100BAC0002A8FFF7B3FFE068B4F9105008B101F0E8
:100BBC002BF906901020ADF81C50FFF768FA05468B
:100BCC00E8B1002787601820FFF761FA044688B166
:100BDC000146876002A8FFF755FF049BA268A3603B
:100BEC00059B0492E26806A9E36004F110000592EB
:100BFC00FFF7D9FE0D4B2C60EB600D4BAB6006A8DC
:100C0C00FFF7E0FE02A8FFF791FA002229460948F7
:100C1C00FFF7E0FD3046FFF789FA1021304600F06F
:100C2C0042FF6846FFF7CEFE09B0F0BDEB0A0A089A
:100C3C00610D0A086D090A082DE9F04F8BB00646C4
:100C4C000F46904699469DF850A0FFF701FE07AD60
:100C5C00834630BB4FF62E73059005A92846ADF898
:100C6C001830FFF7A0FE1420FFF711FA044658B114
:100C7C000223037001234370C0F804B0C0F808B01D
:100C8C0029460C30FFF78FFE3046214640F8044BC6
:100C9C00FFF708FF2846FFF795FE05A8FFF792FE21
:100CAC0052E000240C2314206C60AC600793FFF717
:100CBC00EEF9014618B1047044704460846004A8D5
:100CCC000391FFF7EFFE224B08200893FFF7DFF9A3
:100CDC00044628B1039B04A940F8043BFFF7ADFE82
:100CEC0000955FFA8AF34A46414638460994FFF765
:100CFC00B7FD20B9039B5B7803F0FF0283B1039B24
:100D0C0004A906A80593FFF798FE05A93046FFF73E
:100D1C0083FE06A8FFF778FA04A8FFF775FA13E02C
:100D2C004FF69C7305A903A80592ADF81830FFF790
:100D3C00FDFE05A8FFF746FE05A80999FFF784FEFE
:100D4C0006A8FFF761FADAE730460BB0BDE8F08F82
:100D5C00D10E0A08022AF8B5044606D0032A17D089
:100D6C00012A22D10B6803601FE018200E68FFF7E0
:100D7C008EF9054650B13146FFF7C8FE3069B6F919
:100D8C00147008B101F040F82861AF8225600CE0C6
:100D9C00046854B104F11000FFF714FE2046FFF76D
:100DAC00C5F91821204600F07EFE0020F8BD38B5AC
:100DBC00002383608B6804460D462BB102229847B2
:100DCC00EB68E360AB68A360204638BD022A70B5BF
:100DDC00044606D0032A11D0012A18D10B680360EF
:100DEC0015E014200E68FFF752F9054620B1314684
:100DFC00FFF7DDFF337C2B74256008E0046834B109
:100E0C002046FFF793F91421204600F04CFE0020F9
:100E1C0070BD0000F0B50C46BFF35F8F87B00023A8
:100E2C0050E8006F40E80032002AF9D1BFF35F8F21
:100E3C00002E3FD01846FFF7C5FC074620B12146CF
:100E4C003046FFF753FE2EE0314601A8FFF7AFFF07
:100E5C00237810208DF81430FFF719F90546D0B11E
:100E6C0087601420FFF713F9044678B187600146B8
:100E7C0001A8FFF707FE039BA268A360049B0392E3
:100E8C00E268E3609DF81430049223740A4B2C60E2
:100E9C00EB600A4BAB6001A8FFF748F9002229462A
:100EAC000748FFF797FC3046FFF740F91021304612
:100EBC0000F0F9FD07B0F0BD0B0B0A08D90D0A08BC
:100ECC006D090A0830B5044685B00D4668461146D2
:100EDC00FFF7BAFD7CB124B228460DB100F094FFA7
:100EEC00029002A96846ADF80C40FFF71FFE02A85D
:100EFC00FFF768FD1DE04FF0010200988DF80840E7
:100F0C00D0E84F3FA34203D1C0E8412F0029F7D1CD
:100F1C0002D08DF808300CE010F10C014FF00103F9
:100F2C0018BF0373BFF35F8F043000F8033CFFF767
:100F3C0071FF01A8FFF768F905B030BD7047F8B52F
:100F4C00064615460C468F18BC4206D0336814F87A
:100F5C00011B9B6830469847F6E72846F8BD0022EF
:100F6C00007CFFF75DBB0021007CFFF761BB00211B
:100F7C00007CFFF765BB0021007CFFF769BB0021FB
:100F8C00007CFFF76DBB10B50446142100F08BFDFF
:100F9C00204610BD10B50446002363604FF47A73ED
:100FAC00A360044B2174084623601146FFF768FBCD
:100FBC00204610BDE01E0A080021007CFFF758BB3C
:100FCC0000470000F0B51C4685B00E461746054696
:100FDC00FFF71EFB002084424FF0040303908DF8B2
:100FEC000C30B4BF03469DF828303246A4BF8DF8B0
:100FFC000E3003AB009306493B462846A8BF8DF83C
:10100C000D40FFF7FDFAB0FA80F0400905B0F0BDD5
:10101C00CD0F0A08F8B50646FFF7FAFA074668B985
:10102C00084D55F826405CB12046FFF77FF810219B
:10103C00204600F038FD45F8267001E00020F8BD90
:10104C000120F8BDB8000020704710B504461821E7
:10105C0000F029FD204610BDF8B50F4600F108063A
:10106C00051D002416F8011D0A22384600F0E7F889
:10107C00AE42044407D0002CF4D02E21384600F0A8
:10108C00DBF80444EEE72046F8BD000010B504463A
:10109C00044B112240F8043B002100F084FE204652
:1010AC0010BD00BF081F0A080346074A10B543F8D5
:1010BC00042B01F1100251F8044B914243F8044BFC
:1010CC00F9D10A781A7010BD081F0A08024A41604B
:1010DC000260042202757047081F0A0810B59DF8BB
:1010EC00084044EA032343EA024242EA0161042332
:1010FC004160037510BD000037B5044D05609DF8C7
:10110C0018500095FFF7EAFF03B030BD081F0A081E
:10111C00014A024B1A6070478A1F0A081801002006
:10112C0000231A464068FFF7ABBB0022022140683F
:10113C00FFF7B6BB002211464068FFF7A9BB00229F
:10114C0011464068FFF7B4BB00231A4619464068A5
:10115C00FFF7B6BB00231A4619464068FFF7B8BB29
:10116C00002281F001014068FFF7BABB0022406801
:10117C00FFF7C6BB002211464068FFF7C9BB00222F
:10118C0011464068FFF7B4BB70B516468EB00446E6
:10119C0008A8FFF77BFF1122002103A800F003FE33
:1011AC00304600F04CFE00250A4B009581B25B687E
:1011BC0003AA3046FFF7EEFA20B129462046FFF786
:1011CC0085FF03E003A92046FFF76EFF20460EB013
:1011DC0070BD00BFA0050020024B034A1A6000221C
:1011EC005A6070471C01002000200A08F8B506461A
:1011FC000D468F180024BD420CD0336815F8011B26
:10120C009B6830469847002801DB0444F3E7002C28
:10121C0008BF04462046F8BD70B505460C46084686
:10122C0049B100F00CFE2B68024621462846BDE869
:10123C007040DB68184770BD03689B681847012A2B
:10124C0098BF0A2230B50B468BB000218DF82410C4
:10125C000DF12304B3FBF2F505FB1233DBB2092BC2
:10126C0094BF30333733DBB2214604F801392B46B7
:10127C00002DEFD1FFF7D0FF0BB030BD10B50446F9
:10128C00FEF754FF204610BD034800238360034A39
:10129C00034900F003BC00BF2401002074000020AF
:1012AC0089120A0870B504460E46002540F8085FFE
:1012BC00FFF74EF930462670FFF7ECF965602046D3
:1012CC0070BD0078FFF7EEB910B50446006818B190
:1012DC00FFF72EFB0023236010BD38B5B1F90430A5
:1012EC000D4683800B4653F8062F0446C0F80620A3
:1012FC009B884381FFF7E8FF2B6813B12360002321
:10130C002B60204638BD000038B50C460546FFF76B
:10131C00DBFF44B12088FFF703FB286028B122884B
:10132C00214600F035FD002038BD014838BD00BF16
:10133C00FCFEFFFFF0B5304D0B7D04468BB008462C
:10134C00AF1D13B30B681B79FBB14FF6FF73002273
:10135C0002A904300292ADF80C208DF80E20ADF8E5
:10136C001020ADF81230FFF751FA0AAB53F81A2DD2
:10137C0000B29B88ADF80C00A880C5F80620029935
:10138C00BB802846FFF7C0FF1CE0202302931B4BB9
:10139C00002600931A493346322002AA0396FFF71F
:1013AC0001FA4FF6FF73ADF812304FF6F26302A953
:1013BC00114802968DF80E60ADF81060ADF80C3047
:1013CC00FFF78BFF02A8FFF77FFF00232360A380AA
:1013DC00A37123814FF6FF736381B5F9043029683B
:1013EC00A3803B682046C4F80630BB886381FFF7B6
:1013FC008BFF20460BB0F0BD3401002033200A08CF
:10140C002C200A084FF6FF7310B5084C0020206002
:10141C00A080A07120816381FFF7CCF92046BDE844
:10142C001040034A034900F039BB00BF34010020CF
:10143C007400002029010A08024B1A68024B1A603A
:10144C00704700BF0C000020400100207047417421
:10145C00704708B5007CFFF765F920EAE07008BD1D
:10146C0008B5007CFFF736F920EAE07008BD08B536
:10147C00007CFFF73FF930EA200028BF4FF0FF3027
:10148C0008BD08B5007CFFF72DF930EA200028BF15
:10149C004FF0FF3008BD007CFFF734B910B504469F
:1014AC00142100F000FB204610BD70B5457C0446AD
:1014BC000E4625B9007CFFF735F9002805DD3146CD
:1014CC00207CBDE87040FFF7FDB8284670BD0000D9
:1014DC0010B5044608461146002262604FF47A7239
:1014EC00A260054A20742260012262741A46FFF73A
:1014FC00E1F8204610BD00BF8C200A08007CFFF7E5
:10150C0009B9000038B50C4D296811F0010411D14E
:10151C002846FEF7C0FD68B1084A2146084B094829
:10152C00FFF7D6FF2846FEF7BBFD074A07490548DB
:10153C0000F0B4FA034838BDDC010020E0010020C3
:10154C0058010020440100207400002059140A089E
:10155C0041747047704708B50021007CFFF702F911
:10156C0030EA200028BF4FF0FF3008BD08B501213C
:10157C00007CFFF7F7F830EA200028BF4FF0FF306F
:10158C0008BD08B5007CFFF7E5F820EAE07008BD5F
:10159C0008B5007CFFF7D6F820EAE07008BD007CA7
:1015AC00FFF7F0B810B50446142100F07CFA204681
:1015BC0010BD38B50446007C0D46FFF7CBF800286B
:1015CC0001DC607C28B12946207CFFF7D3F820EAA7
:1015DC00E07038BD10B50446002363604FF47A7395
:1015EC00A360054B084623600123217463741146E4
:1015FC00FFF7A0F8204610BDBC200A0810B5044621
:10160C001422002100F0CFFB054B20466360054BF4
:10161C00E36040F2011323818123238210BD00BFBC
:10162C00E90200206802002030B50E4D87B001A8F9
:10163C00FFF7E4FF296811F0010410D12846FEF7EA
:10164C002AFD60B101AA21460748FFF7C3FF2846CF
:10165C00FEF726FD054A0649034800F01FFA02482A
:10166C0007B030BD64020020EC03002074000020A1
:10167C0061150A0810B504461422002100F093FBF2
:10168C00054B20466360054BE36040F20113238158
:10169C008123238210BD00BF9C0400200404002081
:1016AC0010B50E4C86B001A8FFF7E4FF2368DB07EA
:1016BC0010D42046FEF7EFFC60B101AA01210848C6
:1016CC00FFF788FF2046FEF7EBFC064A0649044864
:1016DC0000F0E4F9024806B010BD00BF0004002081
:1016EC00880400207400002061150A0800221146AD
:1016FC004068FFF7DDB8F0B5164689B011220F46E9
:10170C000446002103A800F04EFB304600F097FB86
:10171C000025009581B27B6803AA3046FFF73AF8A2
:10172C0020B129462046FFF7D1FC03E003A920464F
:10173C00FFF7BAFC204609B0F0BD00221146406804
:10174C00FFF7D6B8002211464068FFF7E1B8002237
:10175C004068FFF7D5B8002281F001014068FFF71F
:10176C00BFB800231A4619464068FFF7B1B80023EA
:10177C001A4619464068FFF7A3B800221146406884
:10178C00FFF786B8002202214068FFF789B80023D2
:10179C001A464068FFF774B8024B04225A60024A9A
:1017AC001A607047A0050020EC200A0808B5144BFD
:1017BC0033B1FFF739FF03681B699847002816DC23
:1017CC00104B33B1FFF79EFE03681B699847002846
:1017DC0010DC0D4B0BB1AFF300800C4B7BB1FFF762
:1017EC005FFF03681B699847002806DC08BDAFF350
:1017FC000080E5E7AFF30080EBE7AFF3008008BDB6
:10180C0000000000000000000000000000000000CC
:10181C0008B5FFF7CBFFFEF7C3FE014B186008BD00
:10182C00C00500200248034A0349121A00F0B0BA5E
:10183C000040024004400240B0210A0807B50023D2
:10184C0000931A466FF07701FEF7D6FF03B05DF8F0
:10185C0004FB000007B543880A2B08D0502B09D194
:10186C00094B1B683BB103B05DF804EB1847FFF75D
:10187C00E5FF06E0002300931A466FF07701FEF7B0
:10188C00BBFF03B05DF804FBA805002038B5104C75
:10189C00104D2368AB42104B0CBF012200221A7072
:1018AC0002D0FFF7BFFF2560FEF772FE044600F082
:1018BC0083FA0A4B13B12046AFF30080002107488E
:1018CC00FEF7D6FFBDE8384000210548FEF78ABF79
:1018DC00004002401E1C279AAC05002000000000AE
:1018EC0061180A0810B50446806808B1FEF738FE86
:1018FC00204610BD70B51A4E0446316811F0010532
:10190C000FD13046FEF7C7FB58B129461548FFF7F3
:10191C00C9FC3046FEF7C4FB134A1449114800F0C9
:10192C00BDF81048FFF7CDFC28B1A4F10D03022B34
:10193C0001D8002070BD00F073F8FFF73DFB08B133
:10194C00012CF6D9FFF7DEFDFFF7D8FD18B1A4F195
:10195C001203012BEDD9172C8CBF0020012070BD78
:10196C00B0050020B405002074000020F1180A080E
:10197C00172838B504460D460AD8FF2908D0FFF7BA
:10198C00B9FF28B129462046BDE83840FEF718BEFD
:10199C0038BD38B504460D46FEF71AFEFF2810D0A8
:1019AC00062804D84D2323FA00F0C30709D4204697
:1019BC00FFF7A0FF28B129462046BDE83840FEF7C6
:1019CC000FBE38BD10B50446FEF702FE0438C0B297
:1019DC00012808D92046FFF78DFF20B12046BDE82D
:1019EC001040FEF705BE002010BD000070B5044687
:1019FC0014252A46094E002100F0D5F92580202512
:101A0C003146A5602561284600F067F831466060D4
:101A1C00284600F062F8E060204670BD18210A08E4
:101A2C0030B50E4D87B0296811F0010413D128464A
:101A3C00FEF731FB78B101A8FFF7D8FF01AA2146C8
:101A4C000748FFF7A7FA2846FEF72AFB054A06497E
:101A5C00034800F023F8024807B030BDC40500204D
:101A6C00C805002074000020490F0A0813B5084C63
:101A7C0000231A46194600932046FFF73DFB2046EB
:101A8C00044A054902B0BDE8104000F007B800BF99
:101A9C00DC0500207400002055100A080B46014696
:101AAC00184600F067B9FEF7F4BA0000024B18684C
:101ABC00BFF35F8F704700BFF405002010B50028FE
:101ACC0014BF044601242046FEF72AFF20B9FFF775
:101ADC00EDFF08B18047F6E710BDFFF7EFBF08B583
:101AEC00FEF72EFF244B1A68D0075CBF01221A6048
:101AFC00224B1A68D1075CBF01221A60204B1A686E
:101B0C00D2075CBF01221A601E4B1A68D0075CBF5B
:101B1C0001221A601C4B1A68D1075CBF01221A60A3
:101B2C001A4B1A68D2075CBF01221A60184B1A684C
:101B3C00D0075CBF01221A60164B1A68D1075CBF34
:101B4C0001221A60144B1A68D2075CBF01221A607A
:101B5C00124B1A68D0075CBF01221A60104B1A682E
:101B6C00D1075CBF01221A600E4B1A68D2075CBF0A
:101B7C0001221A60704700BF2406002020060020B6
:101B8C001C06002018060020140600201006002059
:101B9C000C06002008060020040600200006002089
:101BAC00FC050020F8050020184B1A68D1075CBF13
:101BBC0001221A60164B1A68D2075CBF01221A6008
:101BCC00144B1A68D0075CBF01221A60124B1A68BA
:101BDC00D1075CBF01221A60104B1A68D2075CBF98
:101BEC0001221A600E4B1A68D0075CBF01221A60E2
:101BFC000C4B1A68D1075CBF01221A600A4B1A6899
:101C0C00D2075CBF01221A60704700BF4406002057
:101C1C00400600203C060020380600203406002038
:101C2C00300600202C06002028060020184B1A68CD
:101C3C00D1075CBF01221A60164B1A68D2075CBF31
:101C4C0001221A60144B1A68D0075CBF01221A607B
:101C5C00124B1A68D1075CBF01221A60104B1A682C
:101C6C00D2075CBF01221A600E4B1A68D0075CBF0A
:101C7C0001221A600C4B1A68D1075CBF01221A6052
:101C8C000A4B1A68D2075CBF01221A60704700BF6A
:101C9C0064060020600600205C0600205806002028
:101CAC0054060020500600204C0600204806002058
:101CBC00244B1A68D0075CBF01221A60224B1A68A9
:101CCC00D1075CBF01221A60204B1A68D2075CBF97
:101CDC0001221A601E4B1A68D0075CBF01221A60E1
:101CEC001C4B1A68D1075CBF01221A601A4B1A6888
:101CFC00D2075CBF01221A60184B1A68D0075CBF70
:101D0C0001221A60164B1A68D1075CBF01221A60B7
:101D1C00144B1A68D2075CBF01221A60124B1A6866
:101D2C00D0075CBF01221A60104B1A68D1075CBF48
:101D3C0001221A600E4B1A68D2075CBF01221A608E
:101D4C00704700BF94060020900600208C060020EF
:101D5C008806002084060020800600207C060020D7
:101D6C007806002074060020700600206C06002007
:101D7C006806002010B5054C13462CB10A460146E6
:101D8C000220AFF3008010BD204610BD0000000003
:101D9C0010B5431E0A44914204D011F8014B03F8CC
:101DAC00014FF8E710BD03460244934202D003F8FA
:101DBC00011BFAE77047000038B5124B05461C684A
:101DCC00A36BD3B91820FEF7ABFD43F20E33A0631F
:101DDC0003804AF6CD33438041F2342383804EF2A4
:101DEC006D63C3804DF6EC630381052343810B23A4
:101DFC00838101220023C0E90423A36B00221D610F
:101E0C005A6138BD70000020024B0146186800F082
:101E1C0003B800BF7000002070B5064608460C469B
:101E2C0000F00DF8451C29463046FEF791FD06469C
:101E3C0018B12A462146FFF7ABFF304670BD03466A
:101E4C0013F8012B002AFBD1181A01387047000037
:101E5C001D000A085D000A0889000A088D000A089E
:101E6C0000000000000000000000000069010A08EA
:101E7C00B1010A08E1000A086C6974657273436F5A
:101E8C00756E7400636F756E7465722D6F76657206
:101E9C00666C6F770077616B696E672D7570006784
:101EAC006F696E672D746F2D736C65657000000023
:101EBC00000000000000000095090A089B090A08B0
:101ECC00DF090A08A9090A0897090A080000000096
:101EDC0000000000490F0A08930F0A086B0F0A084C
:101EEC004B0F0A08730F0A087B0F0A08830F0A08A6
:101EFC008B0F0A08000000000000000065100A08A3
:101F0C0055100A0857100A0862617564005365720F
:101F1C0069616C0055534253657269616C31007490
:101F2C0079706500706172616D00636D6400696445
:101F3C0000686E64007374726D0066696C74006C7A
:101F4C00766C0061646448616E646C6572007265E5
:101F5C006D6F766548616E646C657200656E756D4B
:101F6C0048616E646C657273004A534F4E537472C1
:101F7C0065616D4C6F6748616E646C657200617071
:101F8C007000253031307520005D20002564002C58
:101F9C00200028293A2000205B00636F6465203DF7
:101FAC00200025690064657461696C73203D200014
:101FBC000D0A0066006C6E00666E00636F6465004F
:101FCC0064657461696C006E6F6E65007472616338
:101FDC006500696E666F007761726E006572726F74
:101FEC00720070616E696300616C6C00000000002F
:101FFC00000000002D110A0837110A0841110A08C7
:10200C004B110A0855110A0861110A086D110A08CA
:10201C0079110A0881110A088B110A0895110A080E
:10202C00776972696E670053797374656D20736C90
:10203C0065657020636F6E66696775726174696F30
:10204C006E20697320696E76616C69642E005A008B
:10205C00252B3033643A253032750025592D256DEA
:10206C002D25645425483A254D3A2553257A00618F
:10207C00736374696D6500000000000000000000CF
:10208C0059140A08A9140A08B7140A08F9110A08FD
:10209C006D140A088F140A087B140A08A3140A0882
:1020AC005B140A085F140A0800000000000000001E
:1020BC0061150A08B1150A08BF150A08F9110A08B2
:1020CC009D150A0863150A0879150A08AB150A0844
:1020DC008F150A085D150A080000000000000000BA
:1020EC009B170A0891170A0887170A08F9160A0895
:1020FC007B170A086F170A0863170A085B170A0888
:10210C0051170A0847170A0803170A0800000000AD
:10211C0000000000000000000000000000000000B3
:10212C0000000000000000000000000000000000A3
:10213C000000000000000000000000000000000093
:10214C000000000000000000000000000000000083
:10215C000000000000000000000000000000000073
:10216C000000000000000000000000000000000063
:10217C004300000015040A081D110A08E5110A089D
:10218C0095120A0811140A0845140A08A5170A081A
:10219C00791A0A08F11A0A08B51B0A08391C0A0828
:0421AC00BD1C0A0844
:0421B000000000002B
:1021B400AB1E0A08A11E0A08901E0A087B200A0802
:1021C400000000001C210A083C210A085C210A08BE
:1021D40000000000000000000000000000000000FB
:1021E4007C210A080000000000000000000000003C
:1021F40000000000000000000000000000000000DB
:1022040000000000000000000000000000000000CA
:1022140000000000000000000000000000000000BA
:042224001000002086
:10222800FFFFFFFF00000102030405060708090A73
:102238000B0C0D0E0F101112131415161718191A6E
:082248001B1C1D1E1F202800B5
:042250007856341276
:04000005080A001CC9
:00000001FF
