
/Users/kere/jarvis/flowMeter/flowMeter/target/1.5.2/photon/flowMeter.elf:     file format elf32-littlearm

Sections:
Idx Name          Size      VMA       LMA       File off  Algn
  0 .module_info  00000018  080a0000  080a0000  00010000  2**2
                  CONTENTS, ALLOC, LOAD, READONLY, DATA
  1 .dynalib      00000004  080a0018  080a0018  00010018  2**2
                  CONTENTS, ALLOC, LOAD, READONLY, DATA
  2 .text         00002194  080a001c  080a001c  0001001c  2**2
                  CONTENTS, ALLOC, LOAD, READONLY, CODE
  3 .backup       00000004  40024000  080a21b0  00014000  2**2
                  CONTENTS, ALLOC, LOAD, DATA
  4 .data         00000074  20000000  080a21b4  00020000  2**2
                  CONTENTS, ALLOC, LOAD, DATA
  5 .bss          00000624  20000074  20000074  00030074  2**2
                  ALLOC
  6 .module_info_suffix 00000028  080a2228  080a2228  00022228  2**0
                  CONTENTS, ALLOC, LOAD, READONLY, DATA
  7 .module_info_crc 00000004  080a2250  080a2250  00022250  2**0
                  CONTENTS, ALLOC, LOAD, READONLY, DATA
  8 .debug_info   000a1ab8  00000000  00000000  00022254  2**0
                  CONTENTS, READONLY, DEBUGGING
  9 .debug_abbrev 0000e39b  00000000  00000000  000c3d0c  2**0
                  CONTENTS, READONLY, DEBUGGING
 10 .debug_loc    00010c83  00000000  00000000  000d20a7  2**0
                  CONTENTS, READONLY, DEBUGGING
 11 .debug_aranges 00001dc8  00000000  00000000  000e2d2a  2**0
                  CONTENTS, READONLY, DEBUGGING
 12 .debug_ranges 000032b8  00000000  00000000  000e4af2  2**0
                  CONTENTS, READONLY, DEBUGGING
 13 .debug_macro  000231db  00000000  00000000  000e7daa  2**0
                  CONTENTS, READONLY, DEBUGGING
 14 .debug_line   0001fc53  00000000  00000000  0010af85  2**0
                  CONTENTS, READONLY, DEBUGGING
 15 .debug_str    000a99d6  00000000  00000000  0012abd8  2**0
                  CONTENTS, READONLY, DEBUGGING
 16 .debug_frame  0000b398  00000000  00000000  001d45b0  2**2
                  CONTENTS, READONLY, DEBUGGING

Disassembly of section .text:

080a001c <module_user_pre_init>:
/**
 * Initializes this user module. Returns the start of the heap.
 */
void* module_user_pre_init() {

    if ( (&link_global_data_start!=&link_global_data_initial_values) && (link_global_data_size != 0))
 80a001c:	4809      	ldr	r0, [pc, #36]	; (80a0044 <link_dynalib_end+0x28>)
 80a001e:	490a      	ldr	r1, [pc, #40]	; (80a0048 <link_dynalib_end+0x2c>)
extern constructor_ptr_t link_constructors_end;

/**
 * Initializes this user module. Returns the start of the heap.
 */
void* module_user_pre_init() {
 80a0020:	b508      	push	{r3, lr}

    if ( (&link_global_data_start!=&link_global_data_initial_values) && (link_global_data_size != 0))
 80a0022:	4288      	cmp	r0, r1
 80a0024:	d005      	beq.n	80a0032 <module_user_pre_init+0x16>
 80a0026:	4a09      	ldr	r2, [pc, #36]	; (80a004c <link_dynalib_end+0x30>)
 80a0028:	4282      	cmp	r2, r0
 80a002a:	d002      	beq.n	80a0032 <module_user_pre_init+0x16>
    {
        memcpy(&link_global_data_start, &link_global_data_initial_values, link_global_data_size);
 80a002c:	1a12      	subs	r2, r2, r0
 80a002e:	f001 feb5 	bl	80a1d9c <memcpy>
    }

    memset(&link_bss_location, 0, link_bss_size );
 80a0032:	4807      	ldr	r0, [pc, #28]	; (80a0050 <link_dynalib_end+0x34>)
 80a0034:	4a07      	ldr	r2, [pc, #28]	; (80a0054 <link_dynalib_end+0x38>)
 80a0036:	2100      	movs	r1, #0
 80a0038:	1a12      	subs	r2, r2, r0
 80a003a:	f001 feba 	bl	80a1db2 <memset>
    return &link_heap_start;
}
 80a003e:	4806      	ldr	r0, [pc, #24]	; (80a0058 <link_dynalib_end+0x3c>)
 80a0040:	bd08      	pop	{r3, pc}
 80a0042:	bf00      	nop
 80a0044:	20000000 	.word	0x20000000
 80a0048:	080a21b4 	.word	0x080a21b4
 80a004c:	20000074 	.word	0x20000074
 80a0050:	20000074 	.word	0x20000074
 80a0054:	20000698 	.word	0x20000698
 80a0058:	20000698 	.word	0x20000698

080a005c <module_user_init>:
extern constructor_ptr_t link_constructors_location[];
extern constructor_ptr_t link_constructors_end;
#define link_constructors_size   ((unsigned long)&link_constructors_end  -  (unsigned long)&link_constructors_location )

void module_user_init()
{
 80a005c:	b570      	push	{r4, r5, r6, lr}
    module_user_init_hook();
 80a005e:	f001 fc1b 	bl	80a1898 <module_user_init_hook>
 80a0062:	4b07      	ldr	r3, [pc, #28]	; (80a0080 <module_user_init+0x24>)
 80a0064:	4c07      	ldr	r4, [pc, #28]	; (80a0084 <module_user_init+0x28>)
 80a0066:	461e      	mov	r6, r3
 80a0068:	1ae4      	subs	r4, r4, r3
 80a006a:	08a4      	lsrs	r4, r4, #2

    // invoke constructors
    int ctor_num;
    for (ctor_num=0; ctor_num < link_constructors_size/sizeof(constructor_ptr_t); ctor_num++ )
 80a006c:	2500      	movs	r5, #0
 80a006e:	42a5      	cmp	r5, r4
 80a0070:	d004      	beq.n	80a007c <module_user_init+0x20>
    {
        link_constructors_location[ctor_num]();
 80a0072:	f856 3025 	ldr.w	r3, [r6, r5, lsl #2]
 80a0076:	4798      	blx	r3
{
    module_user_init_hook();

    // invoke constructors
    int ctor_num;
    for (ctor_num=0; ctor_num < link_constructors_size/sizeof(constructor_ptr_t); ctor_num++ )
 80a0078:	3501      	adds	r5, #1
 80a007a:	e7f8      	b.n	80a006e <module_user_init+0x12>
    {
        link_constructors_location[ctor_num]();
    }
}
 80a007c:	bd70      	pop	{r4, r5, r6, pc}
 80a007e:	bf00      	nop
 80a0080:	080a2180 	.word	0x080a2180
 80a0084:	080a21b0 	.word	0x080a21b0

080a0088 <module_user_setup>:

/**
 * Export these functions with a fuller name so they don't clash with the setup/loop wrappers in the system module.
 */
void module_user_setup() {
    setup();
 80a0088:	f000 b8b4 	b.w	80a01f4 <setup>

080a008c <module_user_loop>:
}

void module_user_loop() {
 80a008c:	b508      	push	{r3, lr}
    loop();
 80a008e:	f000 f8d7 	bl	80a0240 <loop>
    _post_loop();
}
 80a0092:	e8bd 4008 	ldmia.w	sp!, {r3, lr}
    setup();
}

void module_user_loop() {
    loop();
    _post_loop();
 80a0096:	f001 bbc1 	b.w	80a181c <_post_loop>

080a009a <_Znwj>:
 80a009a:	f000 bc47 	b.w	80a092c <malloc>

080a009e <_ZdlPv>:
 80a009e:	f000 bc4d 	b.w	80a093c <free>

080a00a2 <__cxa_guard_acquire>:

/* Provide default implemenation for __cxa_guard_acquire() and
 * __cxa_guard_release(). Note: these must be revisited if a multitasking
 * OS is ported to this platform. */
__extension__ typedef int __guard __attribute__((mode (__DI__)));
int __cxa_guard_acquire(__guard *g) {return !*(char *)(g);};
 80a00a2:	7800      	ldrb	r0, [r0, #0]
 80a00a4:	fab0 f080 	clz	r0, r0
 80a00a8:	0940      	lsrs	r0, r0, #5
 80a00aa:	4770      	bx	lr

080a00ac <__cxa_guard_release>:
void __cxa_guard_release (__guard *g) {*(char *)g = 1;};
 80a00ac:	2301      	movs	r3, #1
 80a00ae:	7003      	strb	r3, [r0, #0]
 80a00b0:	4770      	bx	lr
	...

080a00b4 <_Z8countISRv>:
    }
}

void countISR()
{
    countInLiters++; //need to handle int overflow?
 80a00b4:	4a02      	ldr	r2, [pc, #8]	; (80a00c0 <_Z8countISRv+0xc>)
 80a00b6:	6813      	ldr	r3, [r2, #0]
 80a00b8:	3301      	adds	r3, #1
 80a00ba:	6013      	str	r3, [r2, #0]
 80a00bc:	4770      	bx	lr
 80a00be:	bf00      	nop
 80a00c0:	200000a8 	.word	0x200000a8

080a00c4 <_ZNSt17_Function_handlerIFvvEPS0_E9_M_invokeERKSt9_Any_data>:

     public:
      static void
      _M_invoke(const _Any_data& __functor, _ArgTypes&&... __args)
      {
	(*_Base::_M_get_pointer(__functor))(
 80a00c4:	6803      	ldr	r3, [r0, #0]
 80a00c6:	4718      	bx	r3

080a00c8 <_ZNSt14_Function_base13_Base_managerIPFvvEE10_M_managerERSt9_Any_dataRKS4_St18_Manager_operation>:
      public:
	static bool
	_M_manager(_Any_data& __dest, const _Any_data& __source,
		   _Manager_operation __op)
	{
	  switch (__op)
 80a00c8:	2a01      	cmp	r2, #1
 80a00ca:	d002      	beq.n	80a00d2 <_ZNSt14_Function_base13_Base_managerIPFvvEE10_M_managerERSt9_Any_dataRKS4_St18_Manager_operation+0xa>
 80a00cc:	2a02      	cmp	r2, #2
 80a00ce:	d002      	beq.n	80a00d6 <_ZNSt14_Function_base13_Base_managerIPFvvEE10_M_managerERSt9_Any_dataRKS4_St18_Manager_operation+0xe>
 80a00d0:	e004      	b.n	80a00dc <_ZNSt14_Function_base13_Base_managerIPFvvEE10_M_managerERSt9_Any_dataRKS4_St18_Manager_operation+0x14>
	    case __get_type_info:
	      __dest._M_access<const type_info*>() = &typeid(_Functor);
	      break;
#endif
	    case __get_functor_ptr:
	      __dest._M_access<_Functor*>() = _M_get_pointer(__source);
 80a00d2:	6001      	str	r1, [r0, #0]
	      break;
 80a00d4:	e002      	b.n	80a00dc <_ZNSt14_Function_base13_Base_managerIPFvvEE10_M_managerERSt9_Any_dataRKS4_St18_Manager_operation+0x14>
	// Clone a location-invariant function object that fits within
	// an _Any_data structure.
	static void
	_M_clone(_Any_data& __dest, const _Any_data& __source, true_type)
	{
	  new (__dest._M_access()) _Functor(__source._M_access<_Functor>());
 80a00d6:	680b      	ldr	r3, [r1, #0]
 80a00d8:	b100      	cbz	r0, 80a00dc <_ZNSt14_Function_base13_Base_managerIPFvvEE10_M_managerERSt9_Any_dataRKS4_St18_Manager_operation+0x14>
 80a00da:	6003      	str	r3, [r0, #0]
	    case __destroy_functor:
	      _M_destroy(__dest, _Local_storage());
	      break;
	    }
	  return false;
	}
 80a00dc:	2000      	movs	r0, #0
 80a00de:	4770      	bx	lr

080a00e0 <_ZN5Timer7timeoutEv>:
     * Subclasses can either provide a callback function, or override
     * this timeout method.
     */
    virtual void timeout()
    {
        if (callback) {
 80a00e0:	6943      	ldr	r3, [r0, #20]
 80a00e2:	b113      	cbz	r3, 80a00ea <_ZN5Timer7timeoutEv+0xa>
    function<_Res(_ArgTypes...)>::
    operator()(_ArgTypes... __args) const
    {
      if (_M_empty())
	__throw_bad_function_call();
      return _M_invoker(_M_functor, std::forward<_ArgTypes>(__args)...);
 80a00e4:	6983      	ldr	r3, [r0, #24]
 80a00e6:	300c      	adds	r0, #12
 80a00e8:	4718      	bx	r3
 80a00ea:	4770      	bx	lr

080a00ec <_ZN5Timer12invoke_timerEPv>:
private:
	volatile bool running;
    os_timer_t handle;
    timer_callback_fn callback;

    static void invoke_timer(os_timer_t timer)
 80a00ec:	b513      	push	{r0, r1, r4, lr}
 80a00ee:	4604      	mov	r4, r0
typedef std::function<os_thread_return_t(void)> wiring_thread_fn_t;

class SingleThreadedSection {
public:
    SingleThreadedSection() {
        os_thread_scheduling(false, NULL);
 80a00f0:	2100      	movs	r1, #0
 80a00f2:	4608      	mov	r0, r1
 80a00f4:	f000 fa0a 	bl	80a050c <os_thread_scheduling>
    {
        Timer* t = nullptr;
        SINGLE_THREADED_BLOCK() {
            void* id = nullptr;
 80a00f8:	a902      	add	r1, sp, #8
 80a00fa:	2300      	movs	r3, #0
            os_timer_get_id(timer, &id);
 80a00fc:	4620      	mov	r0, r4

    static void invoke_timer(os_timer_t timer)
    {
        Timer* t = nullptr;
        SINGLE_THREADED_BLOCK() {
            void* id = nullptr;
 80a00fe:	f841 3d04 	str.w	r3, [r1, #-4]!
            os_timer_get_id(timer, &id);
 80a0102:	f000 fa1b 	bl	80a053c <os_timer_get_id>
            t = static_cast<Timer*>(id);
 80a0106:	9c01      	ldr	r4, [sp, #4]
            if (t) {
 80a0108:	b10c      	cbz	r4, 80a010e <_ZN5Timer12invoke_timerEPv+0x22>
                t->running = true;
 80a010a:	2301      	movs	r3, #1
 80a010c:	7123      	strb	r3, [r4, #4]
    }

    ~SingleThreadedSection() {
        os_thread_scheduling(true, NULL);
 80a010e:	2100      	movs	r1, #0
 80a0110:	2001      	movs	r0, #1
 80a0112:	f000 f9fb 	bl	80a050c <os_thread_scheduling>
            }
        }
        if (t) {
 80a0116:	b12c      	cbz	r4, 80a0124 <_ZN5Timer12invoke_timerEPv+0x38>
            t->timeout();
 80a0118:	6823      	ldr	r3, [r4, #0]
 80a011a:	4620      	mov	r0, r4
 80a011c:	689b      	ldr	r3, [r3, #8]
 80a011e:	4798      	blx	r3
            t->running = false;
 80a0120:	2300      	movs	r3, #0
 80a0122:	7123      	strb	r3, [r4, #4]
        }
    }
 80a0124:	b002      	add	sp, #8
 80a0126:	bd10      	pop	{r4, pc}

080a0128 <_ZN11SystemClassD1Ev>:
    system_error_t error_;
    SleepResult compatResult_;
};


class SystemClass {
 80a0128:	b510      	push	{r4, lr}
 80a012a:	4604      	mov	r4, r0
        return toSleepResult();
    }

private:
    void freeWakeupSourceMemory() {
        if (wakeupSource_) {
 80a012c:	6800      	ldr	r0, [r0, #0]
 80a012e:	b108      	cbz	r0, 80a0134 <_ZN11SystemClassD1Ev+0xc>
            free(wakeupSource_);
 80a0130:	f000 fc04 	bl	80a093c <free>
    system_error_t error_;
    SleepResult compatResult_;
};


class SystemClass {
 80a0134:	4620      	mov	r0, r4
 80a0136:	bd10      	pop	{r4, pc}

080a0138 <_ZNSt14_Function_baseD1Ev>:
	}
      };

    _Function_base() : _M_manager(nullptr) { }

    ~_Function_base()
 80a0138:	b510      	push	{r4, lr}
    {
      if (_M_manager)
 80a013a:	6883      	ldr	r3, [r0, #8]
	}
      };

    _Function_base() : _M_manager(nullptr) { }

    ~_Function_base()
 80a013c:	4604      	mov	r4, r0
    {
      if (_M_manager)
 80a013e:	b113      	cbz	r3, 80a0146 <_ZNSt14_Function_baseD1Ev+0xe>
	_M_manager(_M_functor, _M_functor, __destroy_functor);
 80a0140:	2203      	movs	r2, #3
 80a0142:	4601      	mov	r1, r0
 80a0144:	4798      	blx	r3
    }
 80a0146:	4620      	mov	r0, r4
 80a0148:	bd10      	pop	{r4, pc}

080a014a <_ZN5Timer5_stopEjb>:
    {
        stop(fromISR);
        return handle ? !os_timer_change(handle, OS_TIMER_CHANGE_START, fromISR, 0, block, nullptr) : false;
    }

    bool _stop(unsigned block, bool fromISR=false)
 80a014a:	b507      	push	{r0, r1, r2, lr}
    {
        return handle ? !os_timer_change(handle, OS_TIMER_CHANGE_STOP, fromISR, 0, block, nullptr) : false;
 80a014c:	6880      	ldr	r0, [r0, #8]
 80a014e:	2300      	movs	r3, #0
 80a0150:	b138      	cbz	r0, 80a0162 <_ZN5Timer5_stopEjb+0x18>
 80a0152:	e88d 000a 	stmia.w	sp, {r1, r3}
 80a0156:	2102      	movs	r1, #2
 80a0158:	f000 f9f8 	bl	80a054c <os_timer_change>
 80a015c:	fab0 f080 	clz	r0, r0
 80a0160:	0940      	lsrs	r0, r0, #5
    }
 80a0162:	b003      	add	sp, #12
 80a0164:	f85d fb04 	ldr.w	pc, [sp], #4

080a0168 <_ZN5TimerD1Ev>:
    template <typename T>
    Timer(unsigned period, void (T::*handler)(), T& instance, bool one_shot=false) : Timer(period, std::bind(handler, &instance), one_shot)
    {
    }

    virtual ~Timer() {
 80a0168:	b538      	push	{r3, r4, r5, lr}
 80a016a:	4b10      	ldr	r3, [pc, #64]	; (80a01ac <_ZN5TimerD1Ev+0x44>)
 80a016c:	4604      	mov	r4, r0
 80a016e:	6003      	str	r3, [r0, #0]
    }
    bool _changePeriod(std::chrono::milliseconds ms, unsigned block, bool fromISR=false) { return _changePeriod(ms.count(), block, fromISR); }

    void dispose()
    {
        if (handle) {
 80a0170:	6883      	ldr	r3, [r0, #8]
 80a0172:	b1a3      	cbz	r3, 80a019e <_ZN5TimerD1Ev+0x36>
    inline bool changePeriodFromISR(std::chrono::milliseconds ms) { return changePeriodFromISR(ms.count()); }

    static const unsigned default_wait = 0x7FFFFFFF;

    bool start(unsigned block=default_wait) { return _start(block, false); }
    bool stop(unsigned block=default_wait) { return _stop(block, false); }
 80a0174:	f06f 4100 	mvn.w	r1, #2147483648	; 0x80000000
 80a0178:	2200      	movs	r2, #0
 80a017a:	f7ff ffe6 	bl	80a014a <_ZN5Timer5_stopEjb>
    {
        if (handle) {
            stop();
            // Make sure the callback will not be called after this object is destroyed.
            // TODO: Consider assigning a higher priority to the timer thread
            os_timer_set_id(handle, nullptr);
 80a017e:	2100      	movs	r1, #0
 80a0180:	68a0      	ldr	r0, [r4, #8]
 80a0182:	f000 fa03 	bl	80a058c <os_timer_set_id>
            while (running) {
 80a0186:	7923      	ldrb	r3, [r4, #4]
 80a0188:	f003 05ff 	and.w	r5, r3, #255	; 0xff
 80a018c:	b113      	cbz	r3, 80a0194 <_ZN5TimerD1Ev+0x2c>
                os_thread_yield();
 80a018e:	f000 f9b5 	bl	80a04fc <os_thread_yield>
 80a0192:	e7f8      	b.n	80a0186 <_ZN5TimerD1Ev+0x1e>
            }
            os_timer_destroy(handle, nullptr);
 80a0194:	4629      	mov	r1, r5
 80a0196:	68a0      	ldr	r0, [r4, #8]
 80a0198:	f000 f9c8 	bl	80a052c <os_timer_destroy>
            handle = nullptr;
 80a019c:	60a5      	str	r5, [r4, #8]
   *  @ingroup functors
   *
   *  Polymorphic function wrapper.
   */
  template<typename _Res, typename... _ArgTypes>
    class function<_Res(_ArgTypes...)>
 80a019e:	f104 000c 	add.w	r0, r4, #12
 80a01a2:	f7ff ffc9 	bl	80a0138 <_ZNSt14_Function_baseD1Ev>

    virtual ~Timer() {
    		// when the timer is calling the std::function, we cannot dispose of it until the function completes.
		// the call has exited.
		dispose();
    }
 80a01a6:	4620      	mov	r0, r4
 80a01a8:	bd38      	pop	{r3, r4, r5, pc}
 80a01aa:	bf00      	nop
 80a01ac:	080a1e78 	.word	0x080a1e78

080a01b0 <_ZN5TimerD0Ev>:
    template <typename T>
    Timer(unsigned period, void (T::*handler)(), T& instance, bool one_shot=false) : Timer(period, std::bind(handler, &instance), one_shot)
    {
    }

    virtual ~Timer() {
 80a01b0:	b510      	push	{r4, lr}
 80a01b2:	4604      	mov	r4, r0
    		// when the timer is calling the std::function, we cannot dispose of it until the function completes.
		// the call has exited.
		dispose();
    }
 80a01b4:	f7ff ffd8 	bl	80a0168 <_ZN5TimerD1Ev>
 80a01b8:	4620      	mov	r0, r4
 80a01ba:	211c      	movs	r1, #28
 80a01bc:	f001 fc79 	bl	80a1ab2 <_ZdlPvj>
 80a01c0:	4620      	mov	r0, r4
 80a01c2:	bd10      	pop	{r4, pc}

080a01c4 <_ZN5Meter6wakeupEv>:
    void sleep()
    {
        detachInterrupt(pin);
    }

    void wakeup()
 80a01c4:	b507      	push	{r0, r1, r2, lr}
 80a01c6:	4601      	mov	r1, r0
    {
        attachInterrupt(pin, this->countISR, RISING); //assume we have hw debounce
 80a01c8:	2300      	movs	r3, #0
 80a01ca:	8800      	ldrh	r0, [r0, #0]
 80a01cc:	9300      	str	r3, [sp, #0]
 80a01ce:	2201      	movs	r2, #1
 80a01d0:	f04f 33ff 	mov.w	r3, #4294967295	; 0xffffffff
 80a01d4:	6849      	ldr	r1, [r1, #4]
 80a01d6:	f000 fefb 	bl	80a0fd0 <_Z15attachInterrupttPFvvE13InterruptModeah>
    }
 80a01da:	b003      	add	sp, #12
 80a01dc:	f85d fb04 	ldr.w	pc, [sp], #4

080a01e0 <_Z7connectv>:
    led.wakeup();
    meter.wakeup();
}

void connect()
{
 80a01e0:	b508      	push	{r3, lr}
    static void sleep(Spark_Sleep_TypeDef sleepMode, long seconds=0) __attribute__ ((deprecated("Please use System.sleep() instead.")))
    { SystemClass::sleep(sleepMode, seconds); }
    static void sleep(uint16_t wakeUpPin, InterruptMode edgeTriggerMode, long seconds=0) __attribute__ ((deprecated("Please use System.sleep() instead.")))
    { SystemClass::sleep(wakeUpPin, edgeTriggerMode, seconds); }

    static bool connected(void) { return spark_cloud_flag_connected(); }
 80a01e2:	f000 fb3b 	bl	80a085c <spark_cloud_flag_connected>
    //What to do fo failing connnections?
    if (!Particle.connected())
 80a01e6:	b918      	cbnz	r0, 80a01f0 <_Z7connectv+0x10>
    {
        Particle.connect();
    }
}
 80a01e8:	e8bd 4008 	ldmia.w	sp!, {r3, lr}
    static bool disconnected(void) { return !connected(); }
    static void connect(void) {
        spark_cloud_flag_connect();
 80a01ec:	f000 bb26 	b.w	80a083c <spark_cloud_flag_connect>
 80a01f0:	bd08      	pop	{r3, pc}
	...

080a01f4 <setup>:
volatile int countInLiters = 0;
// Had to use this extra variable to publish since adding a volatile variable throws an error, dnt know why yet
int count = 0; //non volatile count variable

void setup()
{
 80a01f4:	b508      	push	{r3, lr}
        return _variable(varKey, (const char*)userVar, userVarType);
    }

    template<typename T> static inline bool _variable(const char *varKey, typename T::PointerType userVar, const T& userVarType)
    {
        return spark_variable(varKey, (const void*)userVar, T::TYPE_ID, NULL);
 80a01f6:	2202      	movs	r2, #2
 80a01f8:	2300      	movs	r3, #0
 80a01fa:	4904      	ldr	r1, [pc, #16]	; (80a020c <setup+0x18>)
 80a01fc:	4804      	ldr	r0, [pc, #16]	; (80a0210 <setup+0x1c>)
 80a01fe:	f000 fb15 	bl	80a082c <spark_variable>
    Particle.variable("litersCount", &count, INT); //register variable to be called when needed

    connect();
}
 80a0202:	e8bd 4008 	ldmia.w	sp!, {r3, lr}

void setup()
{
    Particle.variable("litersCount", &count, INT); //register variable to be called when needed

    connect();
 80a0206:	f7ff bfeb 	b.w	80a01e0 <_Z7connectv>
 80a020a:	bf00      	nop
 80a020c:	200000a0 	.word	0x200000a0
 80a0210:	080a1e84 	.word	0x080a1e84

080a0214 <_ZNSt14__shared_countILN9__gnu_cxx12_Lock_policyE0EED1Ev>:
      explicit __shared_count(const __weak_count<_Lp>& __r);

      // Does not throw if __r._M_get_use_count() == 0, caller must check.
      explicit __shared_count(const __weak_count<_Lp>& __r, std::nothrow_t);

      ~__shared_count() noexcept
 80a0214:	b538      	push	{r3, r4, r5, lr}
      {
	if (_M_pi != nullptr)
 80a0216:	6804      	ldr	r4, [r0, #0]
      explicit __shared_count(const __weak_count<_Lp>& __r);

      // Does not throw if __r._M_get_use_count() == 0, caller must check.
      explicit __shared_count(const __weak_count<_Lp>& __r, std::nothrow_t);

      ~__shared_count() noexcept
 80a0218:	4605      	mov	r5, r0
      {
	if (_M_pi != nullptr)
 80a021a:	b17c      	cbz	r4, 80a023c <_ZNSt14__shared_countILN9__gnu_cxx12_Lock_policyE0EED1Ev+0x28>

  template<>
    inline void
    _Sp_counted_base<_S_single>::_M_release() noexcept
    {
      if (--_M_use_count == 0)
 80a021c:	6863      	ldr	r3, [r4, #4]
 80a021e:	3b01      	subs	r3, #1
 80a0220:	6063      	str	r3, [r4, #4]
 80a0222:	b95b      	cbnz	r3, 80a023c <_ZNSt14__shared_countILN9__gnu_cxx12_Lock_policyE0EED1Ev+0x28>
        {
          _M_dispose();
 80a0224:	6823      	ldr	r3, [r4, #0]
 80a0226:	4620      	mov	r0, r4
 80a0228:	689b      	ldr	r3, [r3, #8]
 80a022a:	4798      	blx	r3
          if (--_M_weak_count == 0)
 80a022c:	68a3      	ldr	r3, [r4, #8]
 80a022e:	3b01      	subs	r3, #1
 80a0230:	60a3      	str	r3, [r4, #8]
 80a0232:	b91b      	cbnz	r3, 80a023c <_ZNSt14__shared_countILN9__gnu_cxx12_Lock_policyE0EED1Ev+0x28>
            _M_destroy();
 80a0234:	6823      	ldr	r3, [r4, #0]
 80a0236:	4620      	mov	r0, r4
 80a0238:	68db      	ldr	r3, [r3, #12]
 80a023a:	4798      	blx	r3

      ~__shared_count() noexcept
      {
	if (_M_pi != nullptr)
	  _M_pi->_M_release();
      }
 80a023c:	4628      	mov	r0, r5
 80a023e:	bd38      	pop	{r3, r4, r5, pc}

080a0240 <loop>:
}

void loop()
{
 80a0240:	b51f      	push	{r0, r1, r2, r3, r4, lr}
    count = countInLiters; //update non volatile count variable
 80a0242:	4b20      	ldr	r3, [pc, #128]	; (80a02c4 <loop+0x84>)
 80a0244:	4a20      	ldr	r2, [pc, #128]	; (80a02c8 <loop+0x88>)
 80a0246:	6819      	ldr	r1, [r3, #0]
 80a0248:	6011      	str	r1, [r2, #0]
    if (0 == (countInLiters % COUNTER_STEP))
 80a024a:	681a      	ldr	r2, [r3, #0]
 80a024c:	2305      	movs	r3, #5
 80a024e:	fb92 f3f3 	sdiv	r3, r2, r3
 80a0252:	eb03 0383 	add.w	r3, r3, r3, lsl #2
 80a0256:	429a      	cmp	r2, r3
 80a0258:	d131      	bne.n	80a02be <loop+0x7e>
    {
        digitalWrite(pin, LOW);
    }
    bool isOn()
    {
        if (HIGH == digitalRead(pin))
 80a025a:	4c1c      	ldr	r4, [pc, #112]	; (80a02cc <loop+0x8c>)
 80a025c:	8820      	ldrh	r0, [r4, #0]
 80a025e:	f001 fbb7 	bl	80a19d0 <digitalRead>
 80a0262:	2801      	cmp	r0, #1
 80a0264:	d126      	bne.n	80a02b4 <loop+0x74>
    bool stop(unsigned block=default_wait) { return _stop(block, false); }
    bool reset(unsigned block=default_wait) { return _reset(block, false); }
    bool changePeriod(unsigned period, unsigned block=default_wait) { return _changePeriod(period, block, false); }
    inline bool changePeriod(std::chrono::milliseconds ms, unsigned block=default_wait) { return changePeriod(ms.count(), block); }

    bool isValid() const { return handle!=nullptr; }
 80a0266:	4b1a      	ldr	r3, [pc, #104]	; (80a02d0 <loop+0x90>)
 80a0268:	6898      	ldr	r0, [r3, #8]
 80a026a:	461c      	mov	r4, r3
    bool isActive() const { return isValid() && os_timer_is_active(handle, nullptr); }
 80a026c:	b118      	cbz	r0, 80a0276 <loop+0x36>
 80a026e:	2100      	movs	r1, #0
 80a0270:	f000 f984 	bl	80a057c <os_timer_is_active>
 80a0274:	b978      	cbnz	r0, 80a0296 <loop+0x56>
    inline bool changePeriodFromISR(std::chrono::milliseconds ms) { return changePeriodFromISR(ms.count()); }

    static const unsigned default_wait = 0x7FFFFFFF;

    bool start(unsigned block=default_wait) { return _start(block, false); }
    bool stop(unsigned block=default_wait) { return _stop(block, false); }
 80a0276:	2200      	movs	r2, #0
 80a0278:	4611      	mov	r1, r2
 80a027a:	4815      	ldr	r0, [pc, #84]	; (80a02d0 <loop+0x90>)
 80a027c:	f7ff ff65 	bl	80a014a <_ZN5Timer5_stopEjb>
    bool isActive() const { return isValid() && os_timer_is_active(handle, nullptr); }

    bool _start(unsigned block, bool fromISR=false)
    {
        stop(fromISR);
        return handle ? !os_timer_change(handle, OS_TIMER_CHANGE_START, fromISR, 0, block, nullptr) : false;
 80a0280:	68a0      	ldr	r0, [r4, #8]
 80a0282:	b140      	cbz	r0, 80a0296 <loop+0x56>
 80a0284:	2300      	movs	r3, #0
 80a0286:	f06f 4200 	mvn.w	r2, #2147483648	; 0x80000000
 80a028a:	e88d 000c 	stmia.w	sp, {r2, r3}
 80a028e:	4619      	mov	r1, r3
 80a0290:	461a      	mov	r2, r3
 80a0292:	f000 f95b 	bl	80a054c <os_timer_change>
        if (!ledOnTimer.isActive()) //Start on timer if not started
        {
            ledOnTimer.start();
        }

        Particle.publish(countOverflowEvent, PRIVATE);
 80a0296:	4b0f      	ldr	r3, [pc, #60]	; (80a02d4 <loop+0x94>)
        return publish(eventName, eventData, DEFAULT_CLOUD_EVENT_TTL, flags1, flags2);
    }

    inline particle::Future<bool> publish(const char *eventName, const char *eventData, int ttl, PublishFlags flags1, PublishFlags flags2 = PublishFlags())
    {
        return publish_event(eventName, eventData, ttl, flags1 | flags2);
 80a0298:	a802      	add	r0, sp, #8
 80a029a:	6819      	ldr	r1, [r3, #0]
 80a029c:	4b0e      	ldr	r3, [pc, #56]	; (80a02d8 <loop+0x98>)
 80a029e:	2200      	movs	r2, #0
 80a02a0:	781b      	ldrb	r3, [r3, #0]
 80a02a2:	f88d 3000 	strb.w	r3, [sp]
 80a02a6:	233c      	movs	r3, #60	; 0x3c
 80a02a8:	f000 fccc 	bl	80a0c44 <_ZN10CloudClass13publish_eventEPKcS1_iN8particle5FlagsI15PublishFlagTypehEE>
	: _M_ptr(__p), _M_refcount(__r._M_refcount) // never throws
	{ }

      __shared_ptr(const __shared_ptr&) noexcept = default;
      __shared_ptr& operator=(const __shared_ptr&) noexcept = default;
      ~__shared_ptr() = default;
 80a02ac:	a803      	add	r0, sp, #12
 80a02ae:	f7ff ffb1 	bl	80a0214 <_ZNSt14__shared_countILN9__gnu_cxx12_Lock_policyE0EED1Ev>
    }
}
 80a02b2:	e004      	b.n	80a02be <loop+0x7e>
    {
        this->pin = pin;
    }
    void on()
    {
        digitalWrite(pin, HIGH);
 80a02b4:	2101      	movs	r1, #1
 80a02b6:	8820      	ldrh	r0, [r4, #0]
 80a02b8:	f001 fb71 	bl	80a199e <digitalWrite>
 80a02bc:	e7d3      	b.n	80a0266 <loop+0x26>
 80a02be:	b004      	add	sp, #16
 80a02c0:	bd10      	pop	{r4, pc}
 80a02c2:	bf00      	nop
 80a02c4:	200000a8 	.word	0x200000a8
 80a02c8:	200000a0 	.word	0x200000a0
 80a02cc:	20000094 	.word	0x20000094
 80a02d0:	20000078 	.word	0x20000078
 80a02d4:	20000008 	.word	0x20000008
 80a02d8:	200000a4 	.word	0x200000a4

080a02dc <_Z5sleepv>:
    led.off();
    sleep();
}

void sleep()
{
 80a02dc:	e92d 43f0 	stmdb	sp!, {r4, r5, r6, r7, r8, r9, lr}
    Particle.publish(sleepEvent, PRIVATE);
 80a02e0:	4b3a      	ldr	r3, [pc, #232]	; (80a03cc <_Z5sleepv+0xf0>)
 80a02e2:	f8df 9100 	ldr.w	r9, [pc, #256]	; 80a03e4 <_Z5sleepv+0x108>
 80a02e6:	6819      	ldr	r1, [r3, #0]
 80a02e8:	f899 3000 	ldrb.w	r3, [r9]
    led.off();
    sleep();
}

void sleep()
{
 80a02ec:	b08d      	sub	sp, #52	; 0x34
 80a02ee:	2200      	movs	r2, #0
 80a02f0:	ac07      	add	r4, sp, #28
 80a02f2:	f88d 3000 	strb.w	r3, [sp]
 80a02f6:	a806      	add	r0, sp, #24
 80a02f8:	233c      	movs	r3, #60	; 0x3c
 80a02fa:	f000 fca3 	bl	80a0c44 <_ZN10CloudClass13publish_eventEPKcS1_iN8particle5FlagsI15PublishFlagTypehEE>
 80a02fe:	4620      	mov	r0, r4
 80a0300:	f7ff ff88 	bl	80a0214 <_ZNSt14__shared_countILN9__gnu_cxx12_Lock_policyE0EED1Ev>
        wakeup();
    }

    void sleep()
    {
        detachInterrupt(pin);
 80a0304:	4b32      	ldr	r3, [pc, #200]	; (80a03d0 <_Z5sleepv+0xf4>)
            return false;
        }
    }
    void sleep()
    {
        pinMode(pin, INPUT); //High impedance, not sure it is supported
 80a0306:	f8df 80e0 	ldr.w	r8, [pc, #224]	; 80a03e8 <_Z5sleepv+0x10c>
 80a030a:	8818      	ldrh	r0, [r3, #0]
 80a030c:	f000 fe88 	bl	80a1020 <_Z15detachInterruptt>
 80a0310:	2100      	movs	r1, #0
 80a0312:	f8b8 0000 	ldrh.w	r0, [r8]
 80a0316:	f001 fb31 	bl	80a197c <pinMode>
public:
    // Constructor
    SystemSleepConfiguration()
            : SystemSleepConfigurationHelper(&config_),
              config_(),
              valid_(true) {
 80a031a:	2510      	movs	r5, #16
    static bool connected(void) { return spark_cloud_flag_connected(); }
    static bool disconnected(void) { return !connected(); }
    static void connect(void) {
        spark_cloud_flag_connect();
    }
    static void disconnect(void) { spark_cloud_flag_disconnect(); }
 80a031c:	f000 fa96 	bl	80a084c <spark_cloud_flag_disconnect>
    //sleep peripherals
    meter.sleep();
    led.sleep();

    Particle.disconnect(); //disconnect from cloud
    countInLiters = 0; //reset count
 80a0320:	2600      	movs	r6, #0
 80a0322:	4b2c      	ldr	r3, [pc, #176]	; (80a03d4 <_Z5sleepv+0xf8>)
 80a0324:	462a      	mov	r2, r5
 80a0326:	4631      	mov	r1, r6
 80a0328:	4620      	mov	r0, r4
 80a032a:	601e      	str	r6, [r3, #0]
};

class SystemSleepConfigurationHelper {
public:
    SystemSleepConfigurationHelper(const hal_sleep_config_t* config)
        : config_(config) {
 80a032c:	9406      	str	r4, [sp, #24]
public:
    // Constructor
    SystemSleepConfiguration()
            : SystemSleepConfigurationHelper(&config_),
              config_(),
              valid_(true) {
 80a032e:	f001 fd40 	bl	80a1db2 <memset>
 80a0332:	2301      	movs	r3, #1
 80a0334:	f88d 302c 	strb.w	r3, [sp, #44]	; 0x2c
        config_.size = sizeof(hal_sleep_config_t);
        config_.version = HAL_SLEEP_VERSION;
 80a0338:	2702      	movs	r7, #2
    }

    // Setters
    SystemSleepConfiguration& mode(SystemSleepMode mode) {
        if (valid_) {
            config_.mode = static_cast<hal_sleep_mode_t>(mode);
 80a033a:	2303      	movs	r3, #3
            if (wakeup) {
                reinterpret_cast<hal_wakeup_source_rtc_t*>(wakeup)->ms = ms;
                return *this;
            }
            // Otherwise, configure RTC as wakeup source.
            auto wakeupSource = new(std::nothrow) hal_wakeup_source_rtc_t();
 80a033c:	4926      	ldr	r1, [pc, #152]	; (80a03d8 <_Z5sleepv+0xfc>)
 80a033e:	4628      	mov	r0, r5
    // Constructor
    SystemSleepConfiguration()
            : SystemSleepConfigurationHelper(&config_),
              config_(),
              valid_(true) {
        config_.size = sizeof(hal_sleep_config_t);
 80a0340:	f8ad 501c 	strh.w	r5, [sp, #28]
        config_.version = HAL_SLEEP_VERSION;
 80a0344:	f8ad 701e 	strh.w	r7, [sp, #30]
    }

    // Setters
    SystemSleepConfiguration& mode(SystemSleepMode mode) {
        if (valid_) {
            config_.mode = static_cast<hal_sleep_mode_t>(mode);
 80a0348:	f88d 3020 	strb.w	r3, [sp, #32]
            if (wakeup) {
                reinterpret_cast<hal_wakeup_source_rtc_t*>(wakeup)->ms = ms;
                return *this;
            }
            // Otherwise, configure RTC as wakeup source.
            auto wakeupSource = new(std::nothrow) hal_wakeup_source_rtc_t();
 80a034c:	f001 fbbc 	bl	80a1ac8 <_ZnwjRKSt9nothrow_t>
 80a0350:	4604      	mov	r4, r0
 80a0352:	2800      	cmp	r0, #0
 80a0354:	d034      	beq.n	80a03c0 <_Z5sleepv+0xe4>
 80a0356:	462a      	mov	r2, r5
 80a0358:	4631      	mov	r1, r6
 80a035a:	f001 fd2a 	bl	80a1db2 <memset>
                valid_ = false;
                return *this;
            }
            wakeupSource->base.size = sizeof(hal_wakeup_source_rtc_t);
            wakeupSource->base.version = HAL_SLEEP_VERSION;
            wakeupSource->base.type = HAL_WAKEUP_SOURCE_TYPE_RTC;
 80a035e:	2304      	movs	r3, #4
            auto wakeupSource = new(std::nothrow) hal_wakeup_source_rtc_t();
            if (!wakeupSource) {
                valid_ = false;
                return *this;
            }
            wakeupSource->base.size = sizeof(hal_wakeup_source_rtc_t);
 80a0360:	8025      	strh	r5, [r4, #0]
            wakeupSource->base.version = HAL_SLEEP_VERSION;
 80a0362:	8067      	strh	r7, [r4, #2]
            wakeupSource->base.type = HAL_WAKEUP_SOURCE_TYPE_RTC;
 80a0364:	80a3      	strh	r3, [r4, #4]
            wakeupSource->base.next = config_.wakeup_sources;
 80a0366:	9b0a      	ldr	r3, [sp, #40]	; 0x28
 80a0368:	60a3      	str	r3, [r4, #8]
            wakeupSource->ms = ms;
 80a036a:	4b1c      	ldr	r3, [pc, #112]	; (80a03dc <_Z5sleepv+0x100>)
 80a036c:	60e3      	str	r3, [r4, #12]
            config_.wakeup_sources = reinterpret_cast<hal_wakeup_source_base_t*>(wakeupSource);
 80a036e:	940a      	str	r4, [sp, #40]	; 0x28

    //sleep for SLEEP_TIME duration
    SystemSleepConfiguration config;
    config.mode(SystemSleepMode::HIBERNATE)
        .duration(SLEEP_TIME);
    System.sleep(config);
 80a0370:	a803      	add	r0, sp, #12
 80a0372:	a906      	add	r1, sp, #24
 80a0374:	f000 ffe4 	bl	80a1340 <_ZN11SystemClass5sleepERK24SystemSleepConfiguration>
        return toSleepResult();
    }

private:
    void freeWakeupSourceMemory() {
        if (wakeupSource_) {
 80a0378:	9803      	ldr	r0, [sp, #12]
 80a037a:	b108      	cbz	r0, 80a0380 <_Z5sleepv+0xa4>
            free(wakeupSource_);
 80a037c:	f000 fade 	bl	80a093c <free>

    //resumes here after sleep
    connect();
 80a0380:	f7ff ff2e 	bl	80a01e0 <_Z7connectv>
    Particle.publish(wakeupEvent, PRIVATE);
 80a0384:	4b16      	ldr	r3, [pc, #88]	; (80a03e0 <_Z5sleepv+0x104>)
        return publish(eventName, eventData, DEFAULT_CLOUD_EVENT_TTL, flags1, flags2);
    }

    inline particle::Future<bool> publish(const char *eventName, const char *eventData, int ttl, PublishFlags flags1, PublishFlags flags2 = PublishFlags())
    {
        return publish_event(eventName, eventData, ttl, flags1 | flags2);
 80a0386:	2200      	movs	r2, #0
 80a0388:	6819      	ldr	r1, [r3, #0]
 80a038a:	f899 3000 	ldrb.w	r3, [r9]
 80a038e:	a803      	add	r0, sp, #12
 80a0390:	f88d 3000 	strb.w	r3, [sp]
 80a0394:	233c      	movs	r3, #60	; 0x3c
 80a0396:	f000 fc55 	bl	80a0c44 <_ZN10CloudClass13publish_eventEPKcS1_iN8particle5FlagsI15PublishFlagTypehEE>
 80a039a:	a804      	add	r0, sp, #16
 80a039c:	f7ff ff3a 	bl	80a0214 <_ZNSt14__shared_countILN9__gnu_cxx12_Lock_policyE0EED1Ev>
    }
    void wakeup()
    {
        pinMode(pin, OUTPUT); //set pin pin as output //TODO enable low or high
 80a03a0:	2101      	movs	r1, #1
 80a03a2:	f8b8 0000 	ldrh.w	r0, [r8]
 80a03a6:	f001 fae9 	bl	80a197c <pinMode>

    //wake peripherals
    led.wakeup();
    meter.wakeup();
 80a03aa:	4809      	ldr	r0, [pc, #36]	; (80a03d0 <_Z5sleepv+0xf4>)
 80a03ac:	f7ff ff0a 	bl	80a01c4 <_ZN5Meter6wakeupEv>
    }

    // Destructor
    ~SystemSleepConfiguration() {
        // Free memory
        auto wakeupSource = config_.wakeup_sources;
 80a03b0:	980a      	ldr	r0, [sp, #40]	; 0x28
        while (wakeupSource) {
 80a03b2:	b140      	cbz	r0, 80a03c6 <_Z5sleepv+0xea>
            auto next = wakeupSource->next;
 80a03b4:	6884      	ldr	r4, [r0, #8]
            delete wakeupSource;
 80a03b6:	210c      	movs	r1, #12
 80a03b8:	f001 fb7b 	bl	80a1ab2 <_ZdlPvj>
            wakeupSource = next;
 80a03bc:	4620      	mov	r0, r4
 80a03be:	e7f8      	b.n	80a03b2 <_Z5sleepv+0xd6>
                return *this;
            }
            // Otherwise, configure RTC as wakeup source.
            auto wakeupSource = new(std::nothrow) hal_wakeup_source_rtc_t();
            if (!wakeupSource) {
                valid_ = false;
 80a03c0:	f88d 002c 	strb.w	r0, [sp, #44]	; 0x2c
 80a03c4:	e7d4      	b.n	80a0370 <_Z5sleepv+0x94>
}
 80a03c6:	b00d      	add	sp, #52	; 0x34
 80a03c8:	e8bd 83f0 	ldmia.w	sp!, {r4, r5, r6, r7, r8, r9, pc}
 80a03cc:	20000000 	.word	0x20000000
 80a03d0:	20000098 	.word	0x20000098
 80a03d4:	200000a8 	.word	0x200000a8
 80a03d8:	080a2118 	.word	0x080a2118
 80a03dc:	00124f80 	.word	0x00124f80
 80a03e0:	20000004 	.word	0x20000004
 80a03e4:	200000a4 	.word	0x200000a4
 80a03e8:	20000094 	.word	0x20000094

080a03ec <_Z17ledOnTimerHandlerv>:
{
    countInLiters++; //need to handle int overflow?
}

void ledOnTimerHandler()
{
 80a03ec:	b508      	push	{r3, lr}
    inline bool changePeriodFromISR(std::chrono::milliseconds ms) { return changePeriodFromISR(ms.count()); }

    static const unsigned default_wait = 0x7FFFFFFF;

    bool start(unsigned block=default_wait) { return _start(block, false); }
    bool stop(unsigned block=default_wait) { return _stop(block, false); }
 80a03ee:	2200      	movs	r2, #0
 80a03f0:	f06f 4100 	mvn.w	r1, #2147483648	; 0x80000000
 80a03f4:	4805      	ldr	r0, [pc, #20]	; (80a040c <_Z17ledOnTimerHandlerv+0x20>)
 80a03f6:	f7ff fea8 	bl	80a014a <_ZN5Timer5_stopEjb>
    {
        digitalWrite(pin, HIGH);
    }
    void off()
    {
        digitalWrite(pin, LOW);
 80a03fa:	4b05      	ldr	r3, [pc, #20]	; (80a0410 <_Z17ledOnTimerHandlerv+0x24>)
 80a03fc:	2100      	movs	r1, #0
 80a03fe:	8818      	ldrh	r0, [r3, #0]
 80a0400:	f001 facd 	bl	80a199e <digitalWrite>
    ledOnTimer.stop();
    led.off();
    sleep();
}
 80a0404:	e8bd 4008 	ldmia.w	sp!, {r3, lr}

void ledOnTimerHandler()
{
    ledOnTimer.stop();
    led.off();
    sleep();
 80a0408:	f7ff bf68 	b.w	80a02dc <_Z5sleepv>
 80a040c:	20000078 	.word	0x20000078
 80a0410:	20000094 	.word	0x20000094

080a0414 <_GLOBAL__sub_I_sleepEvent>:
    //What to do fo failing connnections?
    if (!Particle.connected())
    {
        Particle.connect();
    }
}
 80a0414:	b5f0      	push	{r4, r5, r6, r7, lr}
} // namespace particle

// particle::Flag<TagT, ValueT>
template<typename TagT, typename ValueT>
inline particle::Flag<TagT, ValueT>::Flag(ValueT val) :
        val_(val) {
 80a0416:	4b2b      	ldr	r3, [pc, #172]	; (80a04c4 <_GLOBAL__sub_I_sleepEvent+0xb0>)
 80a0418:	b089      	sub	sp, #36	; 0x24
 80a041a:	2601      	movs	r6, #1
 80a041c:	701e      	strb	r6, [r3, #0]
inline int32_t pinReadFast(pin_t _pin)
{
    return ((PIN_MAP[_pin].gpio_peripheral->IDR & PIN_MAP[_pin].gpio_pin) == 0 ? LOW : HIGH);
}
#elif defined(STM32F2XX)
static Hal_Pin_Info* PIN_MAP = HAL_Pin_Map();
 80a041e:	f000 f8cd 	bl	80a05bc <HAL_Pin_Map>
    WAKEUP_REASON_PIN_OR_RTC = 3,
    WAKEUP_REASON_UNKNOWN = 4
};

struct SleepResult {
    SleepResult() {}
 80a0422:	f64f 73ff 	movw	r3, #65535	; 0xffff

class SystemSleepResult {
public:
    SystemSleepResult()
            : wakeupSource_(nullptr),
              error_(SYSTEM_ERROR_NONE) {
 80a0426:	4c28      	ldr	r4, [pc, #160]	; (80a04c8 <_GLOBAL__sub_I_sleepEvent+0xb4>)
 80a0428:	2500      	movs	r5, #0

const char *sleepEvent = "going-to-sleep";
const char *wakeupEvent = "waking-up";
const char *countOverflowEvent = "counter-overflow";

SYSTEM_MODE(SEMI_AUTOMATIC);
 80a042a:	4f28      	ldr	r7, [pc, #160]	; (80a04cc <_GLOBAL__sub_I_sleepEvent+0xb8>)
    WAKEUP_REASON_PIN_OR_RTC = 3,
    WAKEUP_REASON_UNKNOWN = 4
};

struct SleepResult {
    SleepResult() {}
 80a042c:	8163      	strh	r3, [r4, #10]

class SystemSleepResult {
public:
    SystemSleepResult()
            : wakeupSource_(nullptr),
              error_(SYSTEM_ERROR_NONE) {
 80a042e:	6025      	str	r5, [r4, #0]
 80a0430:	80a5      	strh	r5, [r4, #4]
    WAKEUP_REASON_PIN_OR_RTC = 3,
    WAKEUP_REASON_UNKNOWN = 4
};

struct SleepResult {
    SleepResult() {}
 80a0432:	71a5      	strb	r5, [r4, #6]
 80a0434:	8125      	strh	r5, [r4, #8]

class SystemClass {
public:

    SystemClass(System_Mode_TypeDef mode = DEFAULT) {
        set_system_mode(mode);
 80a0436:	2002      	movs	r0, #2
 80a0438:	f000 f9c2 	bl	80a07c0 <set_system_mode>
 80a043c:	463a      	mov	r2, r7
 80a043e:	4924      	ldr	r1, [pc, #144]	; (80a04d0 <_GLOBAL__sub_I_sleepEvent+0xbc>)
 80a0440:	4620      	mov	r0, r4
 80a0442:	f001 fb31 	bl	80a1aa8 <__aeabi_atexit>
    int pin;

public:
    Led(int pin)
    {
        this->pin = pin;
 80a0446:	4b23      	ldr	r3, [pc, #140]	; (80a04d4 <_GLOBAL__sub_I_sleepEvent+0xc0>)
    void (*countISR)();

public:
    Meter(int pin, void (*countISR)())
    {
        this->pin = pin;
 80a0448:	4c23      	ldr	r4, [pc, #140]	; (80a04d8 <_GLOBAL__sub_I_sleepEvent+0xc4>)
 80a044a:	601d      	str	r5, [r3, #0]
        this->countISR = countISR;
 80a044c:	4b23      	ldr	r3, [pc, #140]	; (80a04dc <_GLOBAL__sub_I_sleepEvent+0xc8>)
        pinMode(pin, INPUT_PULLDOWN);
 80a044e:	2103      	movs	r1, #3
 80a0450:	4630      	mov	r0, r6

public:
    Meter(int pin, void (*countISR)())
    {
        this->pin = pin;
        this->countISR = countISR;
 80a0452:	6063      	str	r3, [r4, #4]
    void (*countISR)();

public:
    Meter(int pin, void (*countISR)())
    {
        this->pin = pin;
 80a0454:	6026      	str	r6, [r4, #0]
        this->countISR = countISR;
        pinMode(pin, INPUT_PULLDOWN);
 80a0456:	f001 fa91 	bl	80a197c <pinMode>
        wakeup();
 80a045a:	4620      	mov	r0, r4
 80a045c:	f7ff feb2 	bl	80a01c4 <_ZN5Meter6wakeupEv>
	  { return true; }

      private:
	static void
	_M_init_functor(_Any_data& __functor, _Functor&& __f, true_type)
	{ new (__functor._M_access()) _Functor(std::move(__f)); }
 80a0460:	4b1f      	ldr	r3, [pc, #124]	; (80a04e0 <_GLOBAL__sub_I_sleepEvent+0xcc>)
#endif
    {
      // concept requirements
      __glibcxx_function_requires(_SGIAssignableConcept<_Tp>)

      _Tp __tmp = _GLIBCXX_MOVE(__a);
 80a0462:	aa02      	add	r2, sp, #8
 80a0464:	9304      	str	r3, [sp, #16]
 80a0466:	ae04      	add	r6, sp, #16
{
public:

    typedef std::function<void(void)> timer_callback_fn;

    Timer(unsigned period, timer_callback_fn callback_, bool one_shot=false) : running(false), handle(nullptr), callback(std::move(callback_)) {
 80a0468:	4c1e      	ldr	r4, [pc, #120]	; (80a04e4 <_GLOBAL__sub_I_sleepEvent+0xd0>)
 80a046a:	e896 0003 	ldmia.w	r6, {r0, r1}
 80a046e:	4b1e      	ldr	r3, [pc, #120]	; (80a04e8 <_GLOBAL__sub_I_sleepEvent+0xd4>)
 80a0470:	e882 0003 	stmia.w	r2, {r0, r1}
 80a0474:	6023      	str	r3, [r4, #0]
      __a = _GLIBCXX_MOVE(__b);
 80a0476:	f104 030c 	add.w	r3, r4, #12
 80a047a:	e893 0003 	ldmia.w	r3, {r0, r1}
 80a047e:	e886 0003 	stmia.w	r6, {r0, r1}
      __b = _GLIBCXX_MOVE(__tmp);
 80a0482:	e892 0003 	ldmia.w	r2, {r0, r1}
 80a0486:	e883 0003 	stmia.w	r3, {r0, r1}
 80a048a:	4b18      	ldr	r3, [pc, #96]	; (80a04ec <_GLOBAL__sub_I_sleepEvent+0xd8>)
 80a048c:	7125      	strb	r5, [r4, #4]
 80a048e:	6163      	str	r3, [r4, #20]
    {
      // concept requirements
      __glibcxx_function_requires(_SGIAssignableConcept<_Tp>)

      _Tp __tmp = _GLIBCXX_MOVE(__a);
      __a = _GLIBCXX_MOVE(__b);
 80a0490:	69a3      	ldr	r3, [r4, #24]
 80a0492:	60a5      	str	r5, [r4, #8]
 80a0494:	9307      	str	r3, [sp, #28]
      __b = _GLIBCXX_MOVE(__tmp);
 80a0496:	4b16      	ldr	r3, [pc, #88]	; (80a04f0 <_GLOBAL__sub_I_sleepEvent+0xdc>)
        os_timer_create(&handle, period, invoke_timer, this, one_shot, nullptr);
 80a0498:	4a16      	ldr	r2, [pc, #88]	; (80a04f4 <_GLOBAL__sub_I_sleepEvent+0xe0>)
 80a049a:	61a3      	str	r3, [r4, #24]
 80a049c:	f64e 2160 	movw	r1, #60000	; 0xea60
 80a04a0:	4623      	mov	r3, r4
 80a04a2:	9501      	str	r5, [sp, #4]
 80a04a4:	9500      	str	r5, [sp, #0]
 80a04a6:	f104 0008 	add.w	r0, r4, #8
    {
      // concept requirements
      __glibcxx_function_requires(_SGIAssignableConcept<_Tp>)

      _Tp __tmp = _GLIBCXX_MOVE(__a);
      __a = _GLIBCXX_MOVE(__b);
 80a04aa:	9506      	str	r5, [sp, #24]
 80a04ac:	f000 f836 	bl	80a051c <os_timer_create>
   *  @ingroup functors
   *
   *  Polymorphic function wrapper.
   */
  template<typename _Res, typename... _ArgTypes>
    class function<_Res(_ArgTypes...)>
 80a04b0:	4630      	mov	r0, r6
 80a04b2:	f7ff fe41 	bl	80a0138 <_ZNSt14_Function_baseD1Ev>

Led led(D0);
Meter meter(D1, countISR);
Timer ledOnTimer(LED_ON_TIME, ledOnTimerHandler);
 80a04b6:	463a      	mov	r2, r7
 80a04b8:	490f      	ldr	r1, [pc, #60]	; (80a04f8 <_GLOBAL__sub_I_sleepEvent+0xe4>)
 80a04ba:	4620      	mov	r0, r4
 80a04bc:	f001 faf4 	bl	80a1aa8 <__aeabi_atexit>
    //What to do fo failing connnections?
    if (!Particle.connected())
    {
        Particle.connect();
    }
}
 80a04c0:	b009      	add	sp, #36	; 0x24
 80a04c2:	bdf0      	pop	{r4, r5, r6, r7, pc}
 80a04c4:	200000a4 	.word	0x200000a4
 80a04c8:	200000ac 	.word	0x200000ac
 80a04cc:	20000074 	.word	0x20000074
 80a04d0:	080a0129 	.word	0x080a0129
 80a04d4:	20000094 	.word	0x20000094
 80a04d8:	20000098 	.word	0x20000098
 80a04dc:	080a00b5 	.word	0x080a00b5
 80a04e0:	080a03ed 	.word	0x080a03ed
 80a04e4:	20000078 	.word	0x20000078
 80a04e8:	080a1e78 	.word	0x080a1e78
 80a04ec:	080a00c9 	.word	0x080a00c9
 80a04f0:	080a00c5 	.word	0x080a00c5
 80a04f4:	080a00ed 	.word	0x080a00ed
 80a04f8:	080a0169 	.word	0x080a0169

080a04fc <os_thread_yield>:

#if PLATFORM_THREADING
DYNALIB_FN(0, hal_concurrent, __gthread_equal, bool(__gthread_t, __gthread_t))
DYNALIB_FN(1, hal_concurrent, os_thread_create, os_result_t(os_thread_t*, const char*, os_thread_prio_t, os_thread_fn_t, void*, size_t))
DYNALIB_FN(2, hal_concurrent, os_thread_is_current, bool(os_thread_t))
DYNALIB_FN(3, hal_concurrent, os_thread_yield, os_result_t(void))
 80a04fc:	b508      	push	{r3, lr}
 80a04fe:	4b02      	ldr	r3, [pc, #8]	; (80a0508 <os_thread_yield+0xc>)
 80a0500:	681b      	ldr	r3, [r3, #0]
 80a0502:	68db      	ldr	r3, [r3, #12]
 80a0504:	9301      	str	r3, [sp, #4]
 80a0506:	bd08      	pop	{r3, pc}
 80a0508:	080601d0 	.word	0x080601d0

080a050c <os_thread_scheduling>:
DYNALIB_FN(4, hal_concurrent, os_thread_join, os_result_t(os_thread_t))
DYNALIB_FN(5, hal_concurrent, os_thread_cleanup, os_result_t(os_thread_t))
DYNALIB_FN(6, hal_concurrent, os_thread_delay_until, os_result_t(system_tick_t*, system_tick_t))
DYNALIB_FN(7, hal_concurrent, os_thread_scheduling, void(bool, void*))
 80a050c:	b508      	push	{r3, lr}
 80a050e:	4b02      	ldr	r3, [pc, #8]	; (80a0518 <os_thread_scheduling+0xc>)
 80a0510:	681b      	ldr	r3, [r3, #0]
 80a0512:	69db      	ldr	r3, [r3, #28]
 80a0514:	9301      	str	r3, [sp, #4]
 80a0516:	bd08      	pop	{r3, pc}
 80a0518:	080601d0 	.word	0x080601d0

080a051c <os_timer_create>:

DYNALIB_FN(8, hal_concurrent, os_timer_create, int(os_timer_t*, unsigned, void(*)(os_timer_t), void*, bool, void*))
 80a051c:	b508      	push	{r3, lr}
 80a051e:	4b02      	ldr	r3, [pc, #8]	; (80a0528 <os_timer_create+0xc>)
 80a0520:	681b      	ldr	r3, [r3, #0]
 80a0522:	6a1b      	ldr	r3, [r3, #32]
 80a0524:	9301      	str	r3, [sp, #4]
 80a0526:	bd08      	pop	{r3, pc}
 80a0528:	080601d0 	.word	0x080601d0

080a052c <os_timer_destroy>:
DYNALIB_FN(9, hal_concurrent, os_timer_destroy, int(os_timer_t, void*))
 80a052c:	b508      	push	{r3, lr}
 80a052e:	4b02      	ldr	r3, [pc, #8]	; (80a0538 <os_timer_destroy+0xc>)
 80a0530:	681b      	ldr	r3, [r3, #0]
 80a0532:	6a5b      	ldr	r3, [r3, #36]	; 0x24
 80a0534:	9301      	str	r3, [sp, #4]
 80a0536:	bd08      	pop	{r3, pc}
 80a0538:	080601d0 	.word	0x080601d0

080a053c <os_timer_get_id>:
DYNALIB_FN(10, hal_concurrent, os_timer_get_id, int(os_timer_t, void**))
 80a053c:	b508      	push	{r3, lr}
 80a053e:	4b02      	ldr	r3, [pc, #8]	; (80a0548 <os_timer_get_id+0xc>)
 80a0540:	681b      	ldr	r3, [r3, #0]
 80a0542:	6a9b      	ldr	r3, [r3, #40]	; 0x28
 80a0544:	9301      	str	r3, [sp, #4]
 80a0546:	bd08      	pop	{r3, pc}
 80a0548:	080601d0 	.word	0x080601d0

080a054c <os_timer_change>:
DYNALIB_FN(11, hal_concurrent, os_timer_change, int(os_timer_t, os_timer_change_t, bool, unsigned, unsigned, void*))
 80a054c:	b508      	push	{r3, lr}
 80a054e:	4b02      	ldr	r3, [pc, #8]	; (80a0558 <os_timer_change+0xc>)
 80a0550:	681b      	ldr	r3, [r3, #0]
 80a0552:	6adb      	ldr	r3, [r3, #44]	; 0x2c
 80a0554:	9301      	str	r3, [sp, #4]
 80a0556:	bd08      	pop	{r3, pc}
 80a0558:	080601d0 	.word	0x080601d0

080a055c <os_mutex_recursive_create>:
DYNALIB_FN(13, hal_concurrent, os_mutex_destroy, int(os_mutex_t))
DYNALIB_FN(14, hal_concurrent, os_mutex_lock, int(os_mutex_t))
DYNALIB_FN(15, hal_concurrent, os_mutex_trylock, int(os_mutex_t))
DYNALIB_FN(16, hal_concurrent, os_mutex_unlock, int(os_mutex_t))

DYNALIB_FN(17, hal_concurrent, os_mutex_recursive_create, int(os_mutex_recursive_t*))
 80a055c:	b508      	push	{r3, lr}
 80a055e:	4b02      	ldr	r3, [pc, #8]	; (80a0568 <os_mutex_recursive_create+0xc>)
 80a0560:	681b      	ldr	r3, [r3, #0]
 80a0562:	6c5b      	ldr	r3, [r3, #68]	; 0x44
 80a0564:	9301      	str	r3, [sp, #4]
 80a0566:	bd08      	pop	{r3, pc}
 80a0568:	080601d0 	.word	0x080601d0

080a056c <os_mutex_recursive_destroy>:
DYNALIB_FN(18, hal_concurrent, os_mutex_recursive_destroy, int(os_mutex_recursive_t))
 80a056c:	b508      	push	{r3, lr}
 80a056e:	4b02      	ldr	r3, [pc, #8]	; (80a0578 <os_mutex_recursive_destroy+0xc>)
 80a0570:	681b      	ldr	r3, [r3, #0]
 80a0572:	6c9b      	ldr	r3, [r3, #72]	; 0x48
 80a0574:	9301      	str	r3, [sp, #4]
 80a0576:	bd08      	pop	{r3, pc}
 80a0578:	080601d0 	.word	0x080601d0

080a057c <os_timer_is_active>:
DYNALIB_FN(19, hal_concurrent, os_mutex_recursive_lock, int(os_mutex_recursive_t))
DYNALIB_FN(20, hal_concurrent, os_mutex_recursive_trylock, int(os_mutex_recursive_t))
DYNALIB_FN(21, hal_concurrent, os_mutex_recursive_unlock, int(os_mutex_recursive_t))

DYNALIB_FN(22, hal_concurrent, os_timer_is_active, int(os_timer_t, void*))
 80a057c:	b508      	push	{r3, lr}
 80a057e:	4b02      	ldr	r3, [pc, #8]	; (80a0588 <os_timer_is_active+0xc>)
 80a0580:	681b      	ldr	r3, [r3, #0]
 80a0582:	6d9b      	ldr	r3, [r3, #88]	; 0x58
 80a0584:	9301      	str	r3, [sp, #4]
 80a0586:	bd08      	pop	{r3, pc}
 80a0588:	080601d0 	.word	0x080601d0

080a058c <os_timer_set_id>:
DYNALIB_FN(24, hal_concurrent, os_queue_destroy, int(os_queue_t, void*))
DYNALIB_FN(25, hal_concurrent, os_queue_put, int(os_queue_t, const void* item, system_tick_t, void*))
DYNALIB_FN(26, hal_concurrent, os_queue_take, int(os_queue_t, void* item, system_tick_t, void*))
DYNALIB_FN(27, hal_concurrent, os_thread_exit, os_result_t(os_thread_t))

DYNALIB_FN(28, hal_concurrent, os_timer_set_id, int(os_timer_t, void*))
 80a058c:	b508      	push	{r3, lr}
 80a058e:	4b02      	ldr	r3, [pc, #8]	; (80a0598 <os_timer_set_id+0xc>)
 80a0590:	681b      	ldr	r3, [r3, #0]
 80a0592:	6f1b      	ldr	r3, [r3, #112]	; 0x70
 80a0594:	9301      	str	r3, [sp, #4]
 80a0596:	bd08      	pop	{r3, pc}
 80a0598:	080601d0 	.word	0x080601d0

080a059c <HAL_RNG_GetRandomNumber>:

DYNALIB_BEGIN(hal)

#if PLATFORM_ID > 3
DYNALIB_FN(0, hal, HAL_RNG_Configuration, void(void))
DYNALIB_FN(1, hal, HAL_RNG_GetRandomNumber, uint32_t(void))
 80a059c:	b508      	push	{r3, lr}
 80a059e:	4b02      	ldr	r3, [pc, #8]	; (80a05a8 <HAL_RNG_GetRandomNumber+0xc>)
 80a05a0:	681b      	ldr	r3, [r3, #0]
 80a05a2:	685b      	ldr	r3, [r3, #4]
 80a05a4:	9301      	str	r3, [sp, #4]
 80a05a6:	bd08      	pop	{r3, pc}
 80a05a8:	0806019c 	.word	0x0806019c

080a05ac <HAL_Timer_Get_Milli_Seconds>:
#endif

DYNALIB_FN(BASE_IDX + 0, hal, HAL_Delay_Milliseconds, void(uint32_t))
DYNALIB_FN(BASE_IDX + 1, hal, HAL_Delay_Microseconds, void(uint32_t))
DYNALIB_FN(BASE_IDX + 2, hal, HAL_Timer_Get_Micro_Seconds, system_tick_t(void))
DYNALIB_FN(BASE_IDX + 3, hal, HAL_Timer_Get_Milli_Seconds, system_tick_t(void))
 80a05ac:	b508      	push	{r3, lr}
 80a05ae:	4b02      	ldr	r3, [pc, #8]	; (80a05b8 <HAL_Timer_Get_Milli_Seconds+0xc>)
 80a05b0:	681b      	ldr	r3, [r3, #0]
 80a05b2:	695b      	ldr	r3, [r3, #20]
 80a05b4:	9301      	str	r3, [sp, #4]
 80a05b6:	bd08      	pop	{r3, pc}
 80a05b8:	0806019c 	.word	0x0806019c

080a05bc <HAL_Pin_Map>:
// New HAL functions must be added to the end of this list.
// GNINRAW

DYNALIB_BEGIN(hal_gpio)

DYNALIB_FN(0, hal_gpio, HAL_Pin_Map, Hal_Pin_Info*(void))
 80a05bc:	b508      	push	{r3, lr}
 80a05be:	4b02      	ldr	r3, [pc, #8]	; (80a05c8 <HAL_Pin_Map+0xc>)
 80a05c0:	681b      	ldr	r3, [r3, #0]
 80a05c2:	681b      	ldr	r3, [r3, #0]
 80a05c4:	9301      	str	r3, [sp, #4]
 80a05c6:	bd08      	pop	{r3, pc}
 80a05c8:	080601b0 	.word	0x080601b0

080a05cc <HAL_Pin_Mode>:
DYNALIB_FN(1, hal_gpio, HAL_Validate_Pin_Function, PinFunction(pin_t, PinFunction))
DYNALIB_FN(2, hal_gpio, HAL_Pin_Mode, void(pin_t, PinMode))
 80a05cc:	b508      	push	{r3, lr}
 80a05ce:	4b02      	ldr	r3, [pc, #8]	; (80a05d8 <HAL_Pin_Mode+0xc>)
 80a05d0:	681b      	ldr	r3, [r3, #0]
 80a05d2:	689b      	ldr	r3, [r3, #8]
 80a05d4:	9301      	str	r3, [sp, #4]
 80a05d6:	bd08      	pop	{r3, pc}
 80a05d8:	080601b0 	.word	0x080601b0

080a05dc <HAL_Get_Pin_Mode>:
DYNALIB_FN(3, hal_gpio, HAL_Get_Pin_Mode, PinMode(pin_t))
 80a05dc:	b508      	push	{r3, lr}
 80a05de:	4b02      	ldr	r3, [pc, #8]	; (80a05e8 <HAL_Get_Pin_Mode+0xc>)
 80a05e0:	681b      	ldr	r3, [r3, #0]
 80a05e2:	68db      	ldr	r3, [r3, #12]
 80a05e4:	9301      	str	r3, [sp, #4]
 80a05e6:	bd08      	pop	{r3, pc}
 80a05e8:	080601b0 	.word	0x080601b0

080a05ec <HAL_GPIO_Write>:
DYNALIB_FN(4, hal_gpio, HAL_GPIO_Write, void(pin_t, uint8_t))
 80a05ec:	b508      	push	{r3, lr}
 80a05ee:	4b02      	ldr	r3, [pc, #8]	; (80a05f8 <HAL_GPIO_Write+0xc>)
 80a05f0:	681b      	ldr	r3, [r3, #0]
 80a05f2:	691b      	ldr	r3, [r3, #16]
 80a05f4:	9301      	str	r3, [sp, #4]
 80a05f6:	bd08      	pop	{r3, pc}
 80a05f8:	080601b0 	.word	0x080601b0

080a05fc <HAL_GPIO_Read>:
DYNALIB_FN(5, hal_gpio, HAL_GPIO_Read, int32_t(pin_t))
 80a05fc:	b508      	push	{r3, lr}
 80a05fe:	4b02      	ldr	r3, [pc, #8]	; (80a0608 <HAL_GPIO_Read+0xc>)
 80a0600:	681b      	ldr	r3, [r3, #0]
 80a0602:	695b      	ldr	r3, [r3, #20]
 80a0604:	9301      	str	r3, [sp, #4]
 80a0606:	bd08      	pop	{r3, pc}
 80a0608:	080601b0 	.word	0x080601b0

080a060c <HAL_Interrupts_Attach>:
DYNALIB_FN(6, hal_gpio, HAL_Interrupts_Attach, int(uint16_t, HAL_InterruptHandler, void*, InterruptMode, HAL_InterruptExtraConfiguration*))
 80a060c:	b508      	push	{r3, lr}
 80a060e:	4b02      	ldr	r3, [pc, #8]	; (80a0618 <HAL_Interrupts_Attach+0xc>)
 80a0610:	681b      	ldr	r3, [r3, #0]
 80a0612:	699b      	ldr	r3, [r3, #24]
 80a0614:	9301      	str	r3, [sp, #4]
 80a0616:	bd08      	pop	{r3, pc}
 80a0618:	080601b0 	.word	0x080601b0

080a061c <HAL_Interrupts_Detach>:
DYNALIB_FN(7, hal_gpio, HAL_Interrupts_Detach, int(uint16_t))
 80a061c:	b508      	push	{r3, lr}
 80a061e:	4b02      	ldr	r3, [pc, #8]	; (80a0628 <HAL_Interrupts_Detach+0xc>)
 80a0620:	681b      	ldr	r3, [r3, #0]
 80a0622:	69db      	ldr	r3, [r3, #28]
 80a0624:	9301      	str	r3, [sp, #4]
 80a0626:	bd08      	pop	{r3, pc}
 80a0628:	080601b0 	.word	0x080601b0

080a062c <HAL_I2C_Write_Data>:
DYNALIB_FN(BASE_IDX + 3, hal_i2c, HAL_I2C_Begin, void(HAL_I2C_Interface, I2C_Mode, uint8_t, void*))
DYNALIB_FN(BASE_IDX + 4, hal_i2c, HAL_I2C_End, void(HAL_I2C_Interface, void*))
DYNALIB_FN(BASE_IDX + 5, hal_i2c, HAL_I2C_Request_Data, uint32_t(HAL_I2C_Interface, uint8_t, uint8_t, uint8_t, void*))
DYNALIB_FN(BASE_IDX + 6, hal_i2c, HAL_I2C_Begin_Transmission, void(HAL_I2C_Interface, uint8_t, const HAL_I2C_Transmission_Config*))
DYNALIB_FN(BASE_IDX + 7, hal_i2c, HAL_I2C_End_Transmission, uint8_t(HAL_I2C_Interface, uint8_t, void*))
DYNALIB_FN(BASE_IDX + 8, hal_i2c, HAL_I2C_Write_Data, uint32_t(HAL_I2C_Interface, uint8_t, void*))
 80a062c:	b508      	push	{r3, lr}
 80a062e:	4b02      	ldr	r3, [pc, #8]	; (80a0638 <HAL_I2C_Write_Data+0xc>)
 80a0630:	681b      	ldr	r3, [r3, #0]
 80a0632:	6e1b      	ldr	r3, [r3, #96]	; 0x60
 80a0634:	9301      	str	r3, [sp, #4]
 80a0636:	bd08      	pop	{r3, pc}
 80a0638:	080601ac 	.word	0x080601ac

080a063c <HAL_I2C_Available_Data>:
DYNALIB_FN(BASE_IDX + 9, hal_i2c, HAL_I2C_Available_Data, int32_t(HAL_I2C_Interface, void*))
 80a063c:	b508      	push	{r3, lr}
 80a063e:	4b02      	ldr	r3, [pc, #8]	; (80a0648 <HAL_I2C_Available_Data+0xc>)
 80a0640:	681b      	ldr	r3, [r3, #0]
 80a0642:	6e5b      	ldr	r3, [r3, #100]	; 0x64
 80a0644:	9301      	str	r3, [sp, #4]
 80a0646:	bd08      	pop	{r3, pc}
 80a0648:	080601ac 	.word	0x080601ac

080a064c <HAL_I2C_Read_Data>:
DYNALIB_FN(BASE_IDX + 10, hal_i2c, HAL_I2C_Read_Data, int32_t(HAL_I2C_Interface, void*))
 80a064c:	b508      	push	{r3, lr}
 80a064e:	4b02      	ldr	r3, [pc, #8]	; (80a0658 <HAL_I2C_Read_Data+0xc>)
 80a0650:	681b      	ldr	r3, [r3, #0]
 80a0652:	6e9b      	ldr	r3, [r3, #104]	; 0x68
 80a0654:	9301      	str	r3, [sp, #4]
 80a0656:	bd08      	pop	{r3, pc}
 80a0658:	080601ac 	.word	0x080601ac

080a065c <HAL_I2C_Peek_Data>:
DYNALIB_FN(BASE_IDX + 11, hal_i2c, HAL_I2C_Peek_Data, int32_t(HAL_I2C_Interface, void*))
 80a065c:	b508      	push	{r3, lr}
 80a065e:	4b02      	ldr	r3, [pc, #8]	; (80a0668 <HAL_I2C_Peek_Data+0xc>)
 80a0660:	681b      	ldr	r3, [r3, #0]
 80a0662:	6edb      	ldr	r3, [r3, #108]	; 0x6c
 80a0664:	9301      	str	r3, [sp, #4]
 80a0666:	bd08      	pop	{r3, pc}
 80a0668:	080601ac 	.word	0x080601ac

080a066c <HAL_I2C_Flush_Data>:
DYNALIB_FN(BASE_IDX + 12, hal_i2c, HAL_I2C_Flush_Data, void(HAL_I2C_Interface, void*))
 80a066c:	b508      	push	{r3, lr}
 80a066e:	4b02      	ldr	r3, [pc, #8]	; (80a0678 <HAL_I2C_Flush_Data+0xc>)
 80a0670:	681b      	ldr	r3, [r3, #0]
 80a0672:	6f1b      	ldr	r3, [r3, #112]	; 0x70
 80a0674:	9301      	str	r3, [sp, #4]
 80a0676:	bd08      	pop	{r3, pc}
 80a0678:	080601ac 	.word	0x080601ac

080a067c <HAL_I2C_Is_Enabled>:
DYNALIB_FN(BASE_IDX + 13, hal_i2c, HAL_I2C_Is_Enabled, bool(HAL_I2C_Interface, void*))
 80a067c:	b508      	push	{r3, lr}
 80a067e:	4b02      	ldr	r3, [pc, #8]	; (80a0688 <HAL_I2C_Is_Enabled+0xc>)
 80a0680:	681b      	ldr	r3, [r3, #0]
 80a0682:	6f5b      	ldr	r3, [r3, #116]	; 0x74
 80a0684:	9301      	str	r3, [sp, #4]
 80a0686:	bd08      	pop	{r3, pc}
 80a0688:	080601ac 	.word	0x080601ac

080a068c <HAL_I2C_Init>:
DYNALIB_FN(BASE_IDX + 14, hal_i2c, HAL_I2C_Set_Callback_On_Receive, void(HAL_I2C_Interface, void(*)(int), void*))
DYNALIB_FN(BASE_IDX + 15, hal_i2c, HAL_I2C_Set_Callback_On_Request, void(HAL_I2C_Interface, void(*)(void), void*))
DYNALIB_FN(BASE_IDX + 16, hal_i2c, HAL_I2C_Init, int(HAL_I2C_Interface, const HAL_I2C_Config*))
 80a068c:	b508      	push	{r3, lr}
 80a068e:	4b03      	ldr	r3, [pc, #12]	; (80a069c <HAL_I2C_Init+0x10>)
 80a0690:	681b      	ldr	r3, [r3, #0]
 80a0692:	f8d3 3080 	ldr.w	r3, [r3, #128]	; 0x80
 80a0696:	9301      	str	r3, [sp, #4]
 80a0698:	bd08      	pop	{r3, pc}
 80a069a:	0000      	.short	0x0000
 80a069c:	080601ac 	.word	0x080601ac

080a06a0 <HAL_SPI_Init>:
DYNALIB_FN(2, hal_spi, HAL_SPI_Set_Bit_Order, void(HAL_SPI_Interface, uint8_t))
DYNALIB_FN(3, hal_spi, HAL_SPI_Set_Data_Mode, void(HAL_SPI_Interface, uint8_t))
DYNALIB_FN(4, hal_spi, HAL_SPI_Set_Clock_Divider, void(HAL_SPI_Interface, uint8_t))
DYNALIB_FN(5, hal_spi, HAL_SPI_Send_Receive_Data, uint16_t(HAL_SPI_Interface, uint16_t))
DYNALIB_FN(6, hal_spi, HAL_SPI_Is_Enabled_Old, bool(void))
DYNALIB_FN(7, hal_spi, HAL_SPI_Init, void(HAL_SPI_Interface))
 80a06a0:	b508      	push	{r3, lr}
 80a06a2:	4b02      	ldr	r3, [pc, #8]	; (80a06ac <HAL_SPI_Init+0xc>)
 80a06a4:	681b      	ldr	r3, [r3, #0]
 80a06a6:	69db      	ldr	r3, [r3, #28]
 80a06a8:	9301      	str	r3, [sp, #4]
 80a06aa:	bd08      	pop	{r3, pc}
 80a06ac:	080601b4 	.word	0x080601b4

080a06b0 <HAL_SPI_Is_Enabled>:
DYNALIB_FN(8, hal_spi, HAL_SPI_Is_Enabled, bool(HAL_SPI_Interface))
 80a06b0:	b508      	push	{r3, lr}
 80a06b2:	4b02      	ldr	r3, [pc, #8]	; (80a06bc <HAL_SPI_Is_Enabled+0xc>)
 80a06b4:	681b      	ldr	r3, [r3, #0]
 80a06b6:	6a1b      	ldr	r3, [r3, #32]
 80a06b8:	9301      	str	r3, [sp, #4]
 80a06ba:	bd08      	pop	{r3, pc}
 80a06bc:	080601b4 	.word	0x080601b4

080a06c0 <HAL_USART_Init>:
#define BASE_IDX 6 // Base index for all subsequent functions
#else
#define BASE_IDX 0
#endif

DYNALIB_FN(BASE_IDX + 0, hal_usart, HAL_USART_Init, void(HAL_USART_Serial, Ring_Buffer*, Ring_Buffer*))
 80a06c0:	b508      	push	{r3, lr}
 80a06c2:	4b02      	ldr	r3, [pc, #8]	; (80a06cc <HAL_USART_Init+0xc>)
 80a06c4:	681b      	ldr	r3, [r3, #0]
 80a06c6:	699b      	ldr	r3, [r3, #24]
 80a06c8:	9301      	str	r3, [sp, #4]
 80a06ca:	bd08      	pop	{r3, pc}
 80a06cc:	080601c4 	.word	0x080601c4

080a06d0 <HAL_USART_Write_Data>:
DYNALIB_FN(BASE_IDX + 1, hal_usart, HAL_USART_Begin, void(HAL_USART_Serial, uint32_t))
DYNALIB_FN(BASE_IDX + 2, hal_usart, HAL_USART_End, void(HAL_USART_Serial))
DYNALIB_FN(BASE_IDX + 3, hal_usart, HAL_USART_Write_Data, uint32_t(HAL_USART_Serial, uint8_t))
 80a06d0:	b508      	push	{r3, lr}
 80a06d2:	4b02      	ldr	r3, [pc, #8]	; (80a06dc <HAL_USART_Write_Data+0xc>)
 80a06d4:	681b      	ldr	r3, [r3, #0]
 80a06d6:	6a5b      	ldr	r3, [r3, #36]	; 0x24
 80a06d8:	9301      	str	r3, [sp, #4]
 80a06da:	bd08      	pop	{r3, pc}
 80a06dc:	080601c4 	.word	0x080601c4

080a06e0 <HAL_USART_Available_Data>:
DYNALIB_FN(BASE_IDX + 4, hal_usart, HAL_USART_Available_Data, int32_t(HAL_USART_Serial))
 80a06e0:	b508      	push	{r3, lr}
 80a06e2:	4b02      	ldr	r3, [pc, #8]	; (80a06ec <HAL_USART_Available_Data+0xc>)
 80a06e4:	681b      	ldr	r3, [r3, #0]
 80a06e6:	6a9b      	ldr	r3, [r3, #40]	; 0x28
 80a06e8:	9301      	str	r3, [sp, #4]
 80a06ea:	bd08      	pop	{r3, pc}
 80a06ec:	080601c4 	.word	0x080601c4

080a06f0 <HAL_USART_Read_Data>:
DYNALIB_FN(BASE_IDX + 5, hal_usart, HAL_USART_Read_Data, int32_t(HAL_USART_Serial))
 80a06f0:	b508      	push	{r3, lr}
 80a06f2:	4b02      	ldr	r3, [pc, #8]	; (80a06fc <HAL_USART_Read_Data+0xc>)
 80a06f4:	681b      	ldr	r3, [r3, #0]
 80a06f6:	6adb      	ldr	r3, [r3, #44]	; 0x2c
 80a06f8:	9301      	str	r3, [sp, #4]
 80a06fa:	bd08      	pop	{r3, pc}
 80a06fc:	080601c4 	.word	0x080601c4

080a0700 <HAL_USART_Peek_Data>:
DYNALIB_FN(BASE_IDX + 6, hal_usart, HAL_USART_Peek_Data, int32_t(HAL_USART_Serial))
 80a0700:	b508      	push	{r3, lr}
 80a0702:	4b02      	ldr	r3, [pc, #8]	; (80a070c <HAL_USART_Peek_Data+0xc>)
 80a0704:	681b      	ldr	r3, [r3, #0]
 80a0706:	6b1b      	ldr	r3, [r3, #48]	; 0x30
 80a0708:	9301      	str	r3, [sp, #4]
 80a070a:	bd08      	pop	{r3, pc}
 80a070c:	080601c4 	.word	0x080601c4

080a0710 <HAL_USART_Flush_Data>:
DYNALIB_FN(BASE_IDX + 7, hal_usart, HAL_USART_Flush_Data, void(HAL_USART_Serial))
 80a0710:	b508      	push	{r3, lr}
 80a0712:	4b02      	ldr	r3, [pc, #8]	; (80a071c <HAL_USART_Flush_Data+0xc>)
 80a0714:	681b      	ldr	r3, [r3, #0]
 80a0716:	6b5b      	ldr	r3, [r3, #52]	; 0x34
 80a0718:	9301      	str	r3, [sp, #4]
 80a071a:	bd08      	pop	{r3, pc}
 80a071c:	080601c4 	.word	0x080601c4

080a0720 <HAL_USART_Is_Enabled>:
DYNALIB_FN(BASE_IDX + 8, hal_usart, HAL_USART_Is_Enabled, bool(HAL_USART_Serial))
 80a0720:	b508      	push	{r3, lr}
 80a0722:	4b02      	ldr	r3, [pc, #8]	; (80a072c <HAL_USART_Is_Enabled+0xc>)
 80a0724:	681b      	ldr	r3, [r3, #0]
 80a0726:	6b9b      	ldr	r3, [r3, #56]	; 0x38
 80a0728:	9301      	str	r3, [sp, #4]
 80a072a:	bd08      	pop	{r3, pc}
 80a072c:	080601c4 	.word	0x080601c4

080a0730 <HAL_USART_Available_Data_For_Write>:
DYNALIB_FN(BASE_IDX + 9, hal_usart, HAL_USART_Half_Duplex, void(HAL_USART_Serial, bool))
DYNALIB_FN(BASE_IDX + 10, hal_usart, HAL_USART_Available_Data_For_Write, int32_t(HAL_USART_Serial))
 80a0730:	b508      	push	{r3, lr}
 80a0732:	4b02      	ldr	r3, [pc, #8]	; (80a073c <HAL_USART_Available_Data_For_Write+0xc>)
 80a0734:	681b      	ldr	r3, [r3, #0]
 80a0736:	6c1b      	ldr	r3, [r3, #64]	; 0x40
 80a0738:	9301      	str	r3, [sp, #4]
 80a073a:	bd08      	pop	{r3, pc}
 80a073c:	080601c4 	.word	0x080601c4

080a0740 <HAL_USB_USART_Init>:
#endif

DYNALIB_BEGIN(hal_usb)

#ifdef USB_CDC_ENABLE
DYNALIB_FN(0, hal_usb, HAL_USB_USART_Init, void(HAL_USB_USART_Serial, const HAL_USB_USART_Config*))
 80a0740:	b508      	push	{r3, lr}
 80a0742:	4b02      	ldr	r3, [pc, #8]	; (80a074c <HAL_USB_USART_Init+0xc>)
 80a0744:	681b      	ldr	r3, [r3, #0]
 80a0746:	681b      	ldr	r3, [r3, #0]
 80a0748:	9301      	str	r3, [sp, #4]
 80a074a:	bd08      	pop	{r3, pc}
 80a074c:	080601d8 	.word	0x080601d8

080a0750 <HAL_USB_USART_Available_Data>:
DYNALIB_FN(1, hal_usb, HAL_USB_USART_Begin, void(HAL_USB_USART_Serial, uint32_t, void *))
DYNALIB_FN(2, hal_usb, HAL_USB_USART_End, void(HAL_USB_USART_Serial))
DYNALIB_FN(3, hal_usb, HAL_USB_USART_Baud_Rate, unsigned int(HAL_USB_USART_Serial))
DYNALIB_FN(4, hal_usb, HAL_USB_USART_Available_Data, int32_t(HAL_USB_USART_Serial))
 80a0750:	b508      	push	{r3, lr}
 80a0752:	4b02      	ldr	r3, [pc, #8]	; (80a075c <HAL_USB_USART_Available_Data+0xc>)
 80a0754:	681b      	ldr	r3, [r3, #0]
 80a0756:	691b      	ldr	r3, [r3, #16]
 80a0758:	9301      	str	r3, [sp, #4]
 80a075a:	bd08      	pop	{r3, pc}
 80a075c:	080601d8 	.word	0x080601d8

080a0760 <HAL_USB_USART_Available_Data_For_Write>:
DYNALIB_FN(5, hal_usb, HAL_USB_USART_Available_Data_For_Write, int32_t(HAL_USB_USART_Serial))
 80a0760:	b508      	push	{r3, lr}
 80a0762:	4b02      	ldr	r3, [pc, #8]	; (80a076c <HAL_USB_USART_Available_Data_For_Write+0xc>)
 80a0764:	681b      	ldr	r3, [r3, #0]
 80a0766:	695b      	ldr	r3, [r3, #20]
 80a0768:	9301      	str	r3, [sp, #4]
 80a076a:	bd08      	pop	{r3, pc}
 80a076c:	080601d8 	.word	0x080601d8

080a0770 <HAL_USB_USART_Receive_Data>:
DYNALIB_FN(6, hal_usb, HAL_USB_USART_Receive_Data, int32_t(HAL_USB_USART_Serial, uint8_t))
 80a0770:	b508      	push	{r3, lr}
 80a0772:	4b02      	ldr	r3, [pc, #8]	; (80a077c <HAL_USB_USART_Receive_Data+0xc>)
 80a0774:	681b      	ldr	r3, [r3, #0]
 80a0776:	699b      	ldr	r3, [r3, #24]
 80a0778:	9301      	str	r3, [sp, #4]
 80a077a:	bd08      	pop	{r3, pc}
 80a077c:	080601d8 	.word	0x080601d8

080a0780 <HAL_USB_USART_Send_Data>:
DYNALIB_FN(7, hal_usb, HAL_USB_USART_Send_Data, int32_t(HAL_USB_USART_Serial, uint8_t))
 80a0780:	b508      	push	{r3, lr}
 80a0782:	4b02      	ldr	r3, [pc, #8]	; (80a078c <HAL_USB_USART_Send_Data+0xc>)
 80a0784:	681b      	ldr	r3, [r3, #0]
 80a0786:	69db      	ldr	r3, [r3, #28]
 80a0788:	9301      	str	r3, [sp, #4]
 80a078a:	bd08      	pop	{r3, pc}
 80a078c:	080601d8 	.word	0x080601d8

080a0790 <HAL_USB_USART_Flush_Data>:
DYNALIB_FN(8, hal_usb, HAL_USB_USART_Flush_Data, void(HAL_USB_USART_Serial))
 80a0790:	b508      	push	{r3, lr}
 80a0792:	4b02      	ldr	r3, [pc, #8]	; (80a079c <HAL_USB_USART_Flush_Data+0xc>)
 80a0794:	681b      	ldr	r3, [r3, #0]
 80a0796:	6a1b      	ldr	r3, [r3, #32]
 80a0798:	9301      	str	r3, [sp, #4]
 80a079a:	bd08      	pop	{r3, pc}
 80a079c:	080601d8 	.word	0x080601d8

080a07a0 <inet_gethostbyname>:
DYNALIB_FN(14, hal_wlan, wlan_set_error_count, void(uint32_t))
DYNALIB_FN(15, hal_wlan, wlan_fetch_ipconfig, int(WLanConfig*))
DYNALIB_FN(16, hal_wlan, wlan_setup, void(void))

DYNALIB_FN(17, hal_wlan, HAL_NET_SetNetWatchDog, uint32_t(uint32_t))
DYNALIB_FN(18, hal_wlan, inet_gethostbyname, int(const char*, uint16_t, HAL_IPAddress*, network_interface_t, void*))
 80a07a0:	b508      	push	{r3, lr}
 80a07a2:	4b02      	ldr	r3, [pc, #8]	; (80a07ac <inet_gethostbyname+0xc>)
 80a07a4:	681b      	ldr	r3, [r3, #0]
 80a07a6:	6c9b      	ldr	r3, [r3, #72]	; 0x48
 80a07a8:	9301      	str	r3, [sp, #4]
 80a07aa:	bd08      	pop	{r3, pc}
 80a07ac:	080601c0 	.word	0x080601c0

080a07b0 <log_message>:
DYNALIB_FN(16, services, log_print_, void(int, int, const char*, const char*, const char*, ...)) // Deprecated
DYNALIB_FN(17, services, LED_RGB_SetChangeHandler, void(led_update_handler_fn, void*))
DYNALIB_FN(18, services, log_print_direct_, void(int, void*, const char*, ...)) // Deprecated
DYNALIB_FN(19, services, LED_GetColor, uint32_t(uint32_t, void*))

DYNALIB_FN(20, services, log_message, void(int, const char*, LogAttributes*, void*, const char*, ...))
 80a07b0:	b508      	push	{r3, lr}
 80a07b2:	4b02      	ldr	r3, [pc, #8]	; (80a07bc <log_message+0xc>)
 80a07b4:	681b      	ldr	r3, [r3, #0]
 80a07b6:	6d1b      	ldr	r3, [r3, #80]	; 0x50
 80a07b8:	9301      	str	r3, [sp, #4]
 80a07ba:	bd08      	pop	{r3, pc}
 80a07bc:	080201a8 	.word	0x080201a8

080a07c0 <set_system_mode>:
#endif

DYNALIB_BEGIN(system)

DYNALIB_FN(0, system, system_mode, System_Mode_TypeDef(void))
DYNALIB_FN(1, system, set_system_mode, void(System_Mode_TypeDef))
 80a07c0:	b508      	push	{r3, lr}
 80a07c2:	4b02      	ldr	r3, [pc, #8]	; (80a07cc <set_system_mode+0xc>)
 80a07c4:	681b      	ldr	r3, [r3, #0]
 80a07c6:	685b      	ldr	r3, [r3, #4]
 80a07c8:	9301      	str	r3, [sp, #4]
 80a07ca:	bd08      	pop	{r3, pc}
 80a07cc:	080601a4 	.word	0x080601a4

080a07d0 <application_thread_current>:
DYNALIB_FN(15, system, system_get_flag, int(system_flag_t, uint8_t*, void*))
DYNALIB_FN(16, system, Spark_Prepare_For_Firmware_Update, int(FileTransfer::Descriptor&, uint32_t, void*))
DYNALIB_FN(17, system, Spark_Save_Firmware_Chunk, int(FileTransfer::Descriptor&, const uint8_t*, void*))
DYNALIB_FN(18, system, Spark_Finish_Firmware_Update, int(FileTransfer::Descriptor&, uint32_t, void*))

DYNALIB_FN(19, system, application_thread_current, uint8_t(void*))
 80a07d0:	b508      	push	{r3, lr}
 80a07d2:	4b02      	ldr	r3, [pc, #8]	; (80a07dc <application_thread_current+0xc>)
 80a07d4:	681b      	ldr	r3, [r3, #0]
 80a07d6:	6cdb      	ldr	r3, [r3, #76]	; 0x4c
 80a07d8:	9301      	str	r3, [sp, #4]
 80a07da:	bd08      	pop	{r3, pc}
 80a07dc:	080601a4 	.word	0x080601a4

080a07e0 <application_thread_invoke>:
DYNALIB_FN(20, system, system_thread_current, uint8_t(void*))
DYNALIB_FN(21, system, application_thread_invoke, uint8_t(void(*)(void*), void*, void*))
 80a07e0:	b508      	push	{r3, lr}
 80a07e2:	4b02      	ldr	r3, [pc, #8]	; (80a07ec <application_thread_invoke+0xc>)
 80a07e4:	681b      	ldr	r3, [r3, #0]
 80a07e6:	6d5b      	ldr	r3, [r3, #84]	; 0x54
 80a07e8:	9301      	str	r3, [sp, #4]
 80a07ea:	bd08      	pop	{r3, pc}
 80a07ec:	080601a4 	.word	0x080601a4

080a07f0 <system_ctrl_set_app_request_handler>:
DYNALIB_FN(BASE_IDX + 6, system, led_pattern_period, uint16_t(int, int, void*))
DYNALIB_FN(BASE_IDX + 7, system, system_set_tester_handlers, int(system_tester_handlers_t*, void*))
DYNALIB_FN(BASE_IDX + 8, system, system_format_diag_data, int(const uint16_t*, size_t, unsigned, appender_fn, void*, void*))

// Control requests
DYNALIB_FN(BASE_IDX + 9, system, system_ctrl_set_app_request_handler, int(ctrl_request_handler_fn, void*))
 80a07f0:	b508      	push	{r3, lr}
 80a07f2:	4b03      	ldr	r3, [pc, #12]	; (80a0800 <system_ctrl_set_app_request_handler+0x10>)
 80a07f4:	681b      	ldr	r3, [r3, #0]
 80a07f6:	f8d3 3090 	ldr.w	r3, [r3, #144]	; 0x90
 80a07fa:	9301      	str	r3, [sp, #4]
 80a07fc:	bd08      	pop	{r3, pc}
 80a07fe:	0000      	.short	0x0000
 80a0800:	080601a4 	.word	0x080601a4

080a0804 <system_ctrl_set_result>:
DYNALIB_FN(BASE_IDX + 10, system, system_ctrl_alloc_reply_data, int(ctrl_request*, size_t, void*))
DYNALIB_FN(BASE_IDX + 11, system, system_ctrl_free_request_data, void(ctrl_request*, void*))
DYNALIB_FN(BASE_IDX + 12, system, system_ctrl_set_result, void(ctrl_request*, int, ctrl_completion_handler_fn, void*, void*))
 80a0804:	b508      	push	{r3, lr}
 80a0806:	4b03      	ldr	r3, [pc, #12]	; (80a0814 <system_ctrl_set_result+0x10>)
 80a0808:	681b      	ldr	r3, [r3, #0]
 80a080a:	f8d3 309c 	ldr.w	r3, [r3, #156]	; 0x9c
 80a080e:	9301      	str	r3, [sp, #4]
 80a0810:	bd08      	pop	{r3, pc}
 80a0812:	0000      	.short	0x0000
 80a0814:	080601a4 	.word	0x080601a4

080a0818 <system_sleep_ext>:
#define BASE_IDX1 (BASE_IDX + 18)
#else
#define BASE_IDX1 (BASE_IDX + 17)
#endif // HAL_PLATFORM_POWER_MANAGEMENT

DYNALIB_FN(BASE_IDX1 + 0, system, system_sleep_ext, int(const hal_sleep_config_t*, hal_wakeup_source_base_t**, void*))
 80a0818:	b508      	push	{r3, lr}
 80a081a:	4b03      	ldr	r3, [pc, #12]	; (80a0828 <system_sleep_ext+0x10>)
 80a081c:	681b      	ldr	r3, [r3, #0]
 80a081e:	f8d3 30b0 	ldr.w	r3, [r3, #176]	; 0xb0
 80a0822:	9301      	str	r3, [sp, #4]
 80a0824:	bd08      	pop	{r3, pc}
 80a0826:	0000      	.short	0x0000
 80a0828:	080601a4 	.word	0x080601a4

080a082c <spark_variable>:
#endif


DYNALIB_BEGIN(system_cloud)

DYNALIB_FN(0, system_cloud, spark_variable, bool(const char*, const void*, Spark_Data_TypeDef, spark_variable_t*))
 80a082c:	b508      	push	{r3, lr}
 80a082e:	4b02      	ldr	r3, [pc, #8]	; (80a0838 <spark_variable+0xc>)
 80a0830:	681b      	ldr	r3, [r3, #0]
 80a0832:	681b      	ldr	r3, [r3, #0]
 80a0834:	9301      	str	r3, [sp, #4]
 80a0836:	bd08      	pop	{r3, pc}
 80a0838:	080601cc 	.word	0x080601cc

080a083c <spark_cloud_flag_connect>:
DYNALIB_FN(1, system_cloud, spark_function, bool(const char*, p_user_function_int_str_t, void*))
DYNALIB_FN(2, system_cloud, spark_process, void(void))
DYNALIB_FN(3, system_cloud, spark_cloud_flag_connect, void(void))
 80a083c:	b508      	push	{r3, lr}
 80a083e:	4b02      	ldr	r3, [pc, #8]	; (80a0848 <spark_cloud_flag_connect+0xc>)
 80a0840:	681b      	ldr	r3, [r3, #0]
 80a0842:	68db      	ldr	r3, [r3, #12]
 80a0844:	9301      	str	r3, [sp, #4]
 80a0846:	bd08      	pop	{r3, pc}
 80a0848:	080601cc 	.word	0x080601cc

080a084c <spark_cloud_flag_disconnect>:
DYNALIB_FN(4, system_cloud, spark_cloud_flag_disconnect, void(void))
 80a084c:	b508      	push	{r3, lr}
 80a084e:	4b02      	ldr	r3, [pc, #8]	; (80a0858 <spark_cloud_flag_disconnect+0xc>)
 80a0850:	681b      	ldr	r3, [r3, #0]
 80a0852:	691b      	ldr	r3, [r3, #16]
 80a0854:	9301      	str	r3, [sp, #4]
 80a0856:	bd08      	pop	{r3, pc}
 80a0858:	080601cc 	.word	0x080601cc

080a085c <spark_cloud_flag_connected>:
DYNALIB_FN(5, system_cloud, spark_cloud_flag_connected, bool(void))
 80a085c:	b508      	push	{r3, lr}
 80a085e:	4b02      	ldr	r3, [pc, #8]	; (80a0868 <spark_cloud_flag_connected+0xc>)
 80a0860:	681b      	ldr	r3, [r3, #0]
 80a0862:	695b      	ldr	r3, [r3, #20]
 80a0864:	9301      	str	r3, [sp, #4]
 80a0866:	bd08      	pop	{r3, pc}
 80a0868:	080601cc 	.word	0x080601cc

080a086c <spark_send_event>:
DYNALIB_FN(6, system_cloud, system_cloud_protocol_instance, ProtocolFacade*(void))
DYNALIB_FN(7, system_cloud, spark_deviceID, String(void))
DYNALIB_FN(8, system_cloud, spark_send_event, bool(const char*, const char*, int, uint32_t, void*))
 80a086c:	b508      	push	{r3, lr}
 80a086e:	4b02      	ldr	r3, [pc, #8]	; (80a0878 <spark_send_event+0xc>)
 80a0870:	681b      	ldr	r3, [r3, #0]
 80a0872:	6a1b      	ldr	r3, [r3, #32]
 80a0874:	9301      	str	r3, [sp, #4]
 80a0876:	bd08      	pop	{r3, pc}
 80a0878:	080601cc 	.word	0x080601cc

080a087c <spark_set_random_seed_from_cloud_handler>:
DYNALIB_FN(10, system_cloud, spark_unsubscribe, void(void*))
DYNALIB_FN(11, system_cloud, spark_sync_time, bool(void*))
DYNALIB_FN(12, system_cloud, spark_sync_time_pending, bool(void*))
DYNALIB_FN(13, system_cloud, spark_sync_time_last, system_tick_t(time_t*, void*))
DYNALIB_FN(14, system_cloud, spark_set_connection_property, int(unsigned, unsigned, particle::protocol::connection_properties_t*, void*))
DYNALIB_FN(15, system_cloud, spark_set_random_seed_from_cloud_handler, int(void (*handler)(unsigned int), void*))
 80a087c:	b508      	push	{r3, lr}
 80a087e:	4b02      	ldr	r3, [pc, #8]	; (80a0888 <spark_set_random_seed_from_cloud_handler+0xc>)
 80a0880:	681b      	ldr	r3, [r3, #0]
 80a0882:	6bdb      	ldr	r3, [r3, #60]	; 0x3c
 80a0884:	9301      	str	r3, [sp, #4]
 80a0886:	bd08      	pop	{r3, pc}
 80a0888:	080601cc 	.word	0x080601cc

080a088c <network_connect>:
#endif

DYNALIB_BEGIN(system_net)

DYNALIB_FN(0, system_net, network_config, const void*(network_handle_t, uint32_t, void*))
DYNALIB_FN(1, system_net, network_connect, void(network_handle_t, uint32_t, uint32_t, void*))
 80a088c:	b508      	push	{r3, lr}
 80a088e:	4b02      	ldr	r3, [pc, #8]	; (80a0898 <network_connect+0xc>)
 80a0890:	681b      	ldr	r3, [r3, #0]
 80a0892:	685b      	ldr	r3, [r3, #4]
 80a0894:	9301      	str	r3, [sp, #4]
 80a0896:	bd08      	pop	{r3, pc}
 80a0898:	080601c8 	.word	0x080601c8

080a089c <network_connecting>:
DYNALIB_FN(2, system_net, network_connecting, bool(network_handle_t, uint32_t, void*))
 80a089c:	b508      	push	{r3, lr}
 80a089e:	4b02      	ldr	r3, [pc, #8]	; (80a08a8 <network_connecting+0xc>)
 80a08a0:	681b      	ldr	r3, [r3, #0]
 80a08a2:	689b      	ldr	r3, [r3, #8]
 80a08a4:	9301      	str	r3, [sp, #4]
 80a08a6:	bd08      	pop	{r3, pc}
 80a08a8:	080601c8 	.word	0x080601c8

080a08ac <network_disconnect>:
DYNALIB_FN(3, system_net, network_disconnect, void(network_handle_t, uint32_t, void*))
 80a08ac:	b508      	push	{r3, lr}
 80a08ae:	4b02      	ldr	r3, [pc, #8]	; (80a08b8 <network_disconnect+0xc>)
 80a08b0:	681b      	ldr	r3, [r3, #0]
 80a08b2:	68db      	ldr	r3, [r3, #12]
 80a08b4:	9301      	str	r3, [sp, #4]
 80a08b6:	bd08      	pop	{r3, pc}
 80a08b8:	080601c8 	.word	0x080601c8

080a08bc <network_ready>:
DYNALIB_FN(4, system_net, network_ready, bool(network_handle_t, uint32_t, void*))
 80a08bc:	b508      	push	{r3, lr}
 80a08be:	4b02      	ldr	r3, [pc, #8]	; (80a08c8 <network_ready+0xc>)
 80a08c0:	681b      	ldr	r3, [r3, #0]
 80a08c2:	691b      	ldr	r3, [r3, #16]
 80a08c4:	9301      	str	r3, [sp, #4]
 80a08c6:	bd08      	pop	{r3, pc}
 80a08c8:	080601c8 	.word	0x080601c8

080a08cc <network_on>:
DYNALIB_FN(5, system_net, network_on, void(network_handle_t, uint32_t, uint32_t, void*))
 80a08cc:	b508      	push	{r3, lr}
 80a08ce:	4b02      	ldr	r3, [pc, #8]	; (80a08d8 <network_on+0xc>)
 80a08d0:	681b      	ldr	r3, [r3, #0]
 80a08d2:	695b      	ldr	r3, [r3, #20]
 80a08d4:	9301      	str	r3, [sp, #4]
 80a08d6:	bd08      	pop	{r3, pc}
 80a08d8:	080601c8 	.word	0x080601c8

080a08dc <network_off>:
DYNALIB_FN(6, system_net, network_off, void(network_handle_t, uint32_t, uint32_t, void*))
 80a08dc:	b508      	push	{r3, lr}
 80a08de:	4b02      	ldr	r3, [pc, #8]	; (80a08e8 <network_off+0xc>)
 80a08e0:	681b      	ldr	r3, [r3, #0]
 80a08e2:	699b      	ldr	r3, [r3, #24]
 80a08e4:	9301      	str	r3, [sp, #4]
 80a08e6:	bd08      	pop	{r3, pc}
 80a08e8:	080601c8 	.word	0x080601c8

080a08ec <network_listen>:
DYNALIB_FN(7, system_net, network_listen, void(network_handle_t, uint32_t, void*))
 80a08ec:	b508      	push	{r3, lr}
 80a08ee:	4b02      	ldr	r3, [pc, #8]	; (80a08f8 <network_listen+0xc>)
 80a08f0:	681b      	ldr	r3, [r3, #0]
 80a08f2:	69db      	ldr	r3, [r3, #28]
 80a08f4:	9301      	str	r3, [sp, #4]
 80a08f6:	bd08      	pop	{r3, pc}
 80a08f8:	080601c8 	.word	0x080601c8

080a08fc <network_listening>:
DYNALIB_FN(8, system_net, network_listening, bool(network_handle_t, uint32_t, void*))
 80a08fc:	b508      	push	{r3, lr}
 80a08fe:	4b02      	ldr	r3, [pc, #8]	; (80a0908 <network_listening+0xc>)
 80a0900:	681b      	ldr	r3, [r3, #0]
 80a0902:	6a1b      	ldr	r3, [r3, #32]
 80a0904:	9301      	str	r3, [sp, #4]
 80a0906:	bd08      	pop	{r3, pc}
 80a0908:	080601c8 	.word	0x080601c8

080a090c <network_set_listen_timeout>:
DYNALIB_FN(9, system_net, network_has_credentials, bool(network_handle_t, uint32_t, void*))
DYNALIB_FN(10, system_net, network_set_credentials, int(network_handle_t, uint32_t, NetworkCredentials*, void*))
DYNALIB_FN(11, system_net, network_clear_credentials, bool(network_handle_t, uint32_t, NetworkCredentials*, void*))
DYNALIB_FN(12, system_net, network_set_listen_timeout, void(network_handle_t, uint16_t, void*))
 80a090c:	b508      	push	{r3, lr}
 80a090e:	4b02      	ldr	r3, [pc, #8]	; (80a0918 <network_set_listen_timeout+0xc>)
 80a0910:	681b      	ldr	r3, [r3, #0]
 80a0912:	6b1b      	ldr	r3, [r3, #48]	; 0x30
 80a0914:	9301      	str	r3, [sp, #4]
 80a0916:	bd08      	pop	{r3, pc}
 80a0918:	080601c8 	.word	0x080601c8

080a091c <network_get_listen_timeout>:
DYNALIB_FN(13, system_net, network_get_listen_timeout, uint16_t(network_handle_t, uint32_t, void*))
 80a091c:	b508      	push	{r3, lr}
 80a091e:	4b02      	ldr	r3, [pc, #8]	; (80a0928 <network_get_listen_timeout+0xc>)
 80a0920:	681b      	ldr	r3, [r3, #0]
 80a0922:	6b5b      	ldr	r3, [r3, #52]	; 0x34
 80a0924:	9301      	str	r3, [sp, #4]
 80a0926:	bd08      	pop	{r3, pc}
 80a0928:	080601c8 	.word	0x080601c8

080a092c <malloc>:
#include <assert.h>
#endif

DYNALIB_BEGIN(rt)

DYNALIB_FN(0, rt, malloc, void*(size_t))
 80a092c:	b508      	push	{r3, lr}
 80a092e:	4b02      	ldr	r3, [pc, #8]	; (80a0938 <malloc+0xc>)
 80a0930:	681b      	ldr	r3, [r3, #0]
 80a0932:	681b      	ldr	r3, [r3, #0]
 80a0934:	9301      	str	r3, [sp, #4]
 80a0936:	bd08      	pop	{r3, pc}
 80a0938:	080601a0 	.word	0x080601a0

080a093c <free>:
DYNALIB_FN(1, rt, free, void(void*))
 80a093c:	b508      	push	{r3, lr}
 80a093e:	4b02      	ldr	r3, [pc, #8]	; (80a0948 <free+0xc>)
 80a0940:	681b      	ldr	r3, [r3, #0]
 80a0942:	685b      	ldr	r3, [r3, #4]
 80a0944:	9301      	str	r3, [sp, #4]
 80a0946:	bd08      	pop	{r3, pc}
 80a0948:	080601a0 	.word	0x080601a0

080a094c <abort>:
DYNALIB_FN(6, rt, siscanf, int(const char*, const char*, ...))
DYNALIB_FN(7, rt, snprintf, int(char*, size_t, const char*, ...))
DYNALIB_FN(8, rt, sniprintf, int(char*, size_t, const char*, ...))
DYNALIB_FN(9, rt, vsnprintf, int(char*, size_t, const char*, va_list))
DYNALIB_FN(10, rt, vsniprintf, int(char*, size_t, const char*, va_list))
DYNALIB_FN(11, rt, abort, void(void))
 80a094c:	b508      	push	{r3, lr}
 80a094e:	4b02      	ldr	r3, [pc, #8]	; (80a0958 <abort+0xc>)
 80a0950:	681b      	ldr	r3, [r3, #0]
 80a0952:	6adb      	ldr	r3, [r3, #44]	; 0x2c
 80a0954:	9301      	str	r3, [sp, #4]
 80a0956:	bd08      	pop	{r3, pc}
 80a0958:	080601a0 	.word	0x080601a0

080a095c <_malloc_r>:
DYNALIB_FN(12, rt, _malloc_r, void*(struct _reent*, size_t))
 80a095c:	b508      	push	{r3, lr}
 80a095e:	4b02      	ldr	r3, [pc, #8]	; (80a0968 <_malloc_r+0xc>)
 80a0960:	681b      	ldr	r3, [r3, #0]
 80a0962:	6b1b      	ldr	r3, [r3, #48]	; 0x30
 80a0964:	9301      	str	r3, [sp, #4]
 80a0966:	bd08      	pop	{r3, pc}
 80a0968:	080601a0 	.word	0x080601a0

080a096c <_ZN8particle6detail21futureCallbackWrapperEPv>:
 * License along with this library; if not, see <http://www.gnu.org/licenses/>.
 */

#include "spark_wiring_async.h"

void particle::detail::futureCallbackWrapper(void* data) {
 80a096c:	b510      	push	{r4, lr}
  template<typename _Res, typename... _ArgTypes>
    _Res
    function<_Res(_ArgTypes...)>::
    operator()(_ArgTypes... __args) const
    {
      if (_M_empty())
 80a096e:	6883      	ldr	r3, [r0, #8]
 80a0970:	4604      	mov	r4, r0
 80a0972:	b90b      	cbnz	r3, 80a0978 <_ZN8particle6detail21futureCallbackWrapperEPv+0xc>
	__throw_bad_function_call();
 80a0974:	f001 f8b9 	bl	80a1aea <_ZSt25__throw_bad_function_callv>
      return _M_invoker(_M_functor, std::forward<_ArgTypes>(__args)...);
 80a0978:	68c3      	ldr	r3, [r0, #12]
 80a097a:	4798      	blx	r3

    _Function_base() : _M_manager(nullptr) { }

    ~_Function_base()
    {
      if (_M_manager)
 80a097c:	68a3      	ldr	r3, [r4, #8]
 80a097e:	b11b      	cbz	r3, 80a0988 <_ZN8particle6detail21futureCallbackWrapperEPv+0x1c>
	_M_manager(_M_functor, _M_functor, __destroy_functor);
 80a0980:	2203      	movs	r2, #3
 80a0982:	4621      	mov	r1, r4
 80a0984:	4620      	mov	r0, r4
 80a0986:	4798      	blx	r3
    auto callbackPtr = static_cast<const std::function<void()>*>(data);
    (*callbackPtr)();
    delete callbackPtr;
 80a0988:	4620      	mov	r0, r4
}
 80a098a:	e8bd 4010 	ldmia.w	sp!, {r4, lr}
#include "spark_wiring_async.h"

void particle::detail::futureCallbackWrapper(void* data) {
    auto callbackPtr = static_cast<const std::function<void()>*>(data);
    (*callbackPtr)();
    delete callbackPtr;
 80a098e:	2110      	movs	r1, #16
 80a0990:	f001 b88f 	b.w	80a1ab2 <_ZdlPvj>

080a0994 <_ZNSt15_Sp_counted_ptrIPN8particle6detail10FutureImplIbNS1_13FutureContextEEELN9__gnu_cxx12_Lock_policyE0EED1Ev>:
    class __shared_count;


  // Counted ptr with no deleter or allocator support
  template<typename _Ptr, _Lock_policy _Lp>
    class _Sp_counted_ptr final : public _Sp_counted_base<_Lp>
 80a0994:	4770      	bx	lr

080a0996 <_ZNSt15_Sp_counted_ptrIPN8particle6detail10FutureImplIbNS1_13FutureContextEEELN9__gnu_cxx12_Lock_policyE0EE14_M_get_deleterERKSt9type_info>:
      _M_destroy() noexcept
      { delete this; }

      virtual void*
      _M_get_deleter(const std::type_info&) noexcept
      { return nullptr; }
 80a0996:	2000      	movs	r0, #0
 80a0998:	4770      	bx	lr

080a099a <_ZNSt15_Sp_counted_ptrIPN8particle6detail10FutureImplIbNS1_13FutureContextEEELN9__gnu_cxx12_Lock_policyE0EED0Ev>:
    class __shared_count;


  // Counted ptr with no deleter or allocator support
  template<typename _Ptr, _Lock_policy _Lp>
    class _Sp_counted_ptr final : public _Sp_counted_base<_Lp>
 80a099a:	b510      	push	{r4, lr}
 80a099c:	4604      	mov	r4, r0
 80a099e:	2110      	movs	r1, #16
 80a09a0:	f001 f887 	bl	80a1ab2 <_ZdlPvj>
 80a09a4:	4620      	mov	r0, r4
 80a09a6:	bd10      	pop	{r4, pc}

080a09a8 <_ZNSt15_Sp_counted_ptrIPN8particle6detail10FutureImplIbNS1_13FutureContextEEELN9__gnu_cxx12_Lock_policyE0EE10_M_destroyEv>:
      virtual void
      _M_dispose() noexcept
      { delete _M_ptr; }

      virtual void
      _M_destroy() noexcept
 80a09a8:	b508      	push	{r3, lr}
      { delete this; }
 80a09aa:	b108      	cbz	r0, 80a09b0 <_ZNSt15_Sp_counted_ptrIPN8particle6detail10FutureImplIbNS1_13FutureContextEEELN9__gnu_cxx12_Lock_policyE0EE10_M_destroyEv+0x8>
 80a09ac:	f7ff fff5 	bl	80a099a <_ZNSt15_Sp_counted_ptrIPN8particle6detail10FutureImplIbNS1_13FutureContextEEELN9__gnu_cxx12_Lock_policyE0EED0Ev>
 80a09b0:	bd08      	pop	{r3, pc}

080a09b2 <_ZN8particle5ErrorC1EOS0_>:

} // namespace particle

inline particle::Error::Error(Type type) :
        msg_(nullptr),
        type_(type) {
 80a09b2:	2200      	movs	r2, #0
 80a09b4:	6002      	str	r2, [r0, #0]
 80a09b6:	f64f 729c 	movw	r2, #65436	; 0xff9c
 80a09ba:	8082      	strh	r2, [r0, #4]

inline particle::Error::Error(const Error& error) :
        Error(error.type_, error.msg_) {
}

inline particle::Error::Error(Error&& error) :
 80a09bc:	b510      	push	{r4, lr}
 80a09be:	f9b1 4004 	ldrsh.w	r4, [r1, #4]
 80a09c2:	8084      	strh	r4, [r0, #4]
      __b = _GLIBCXX_MOVE(__tmp);
 80a09c4:	808a      	strh	r2, [r1, #4]
#endif
    {
      // concept requirements
      __glibcxx_function_requires(_SGIAssignableConcept<_Tp>)

      _Tp __tmp = _GLIBCXX_MOVE(__a);
 80a09c6:	6802      	ldr	r2, [r0, #0]
      __a = _GLIBCXX_MOVE(__b);
 80a09c8:	680c      	ldr	r4, [r1, #0]
 80a09ca:	6004      	str	r4, [r0, #0]
      __b = _GLIBCXX_MOVE(__tmp);
 80a09cc:	600a      	str	r2, [r1, #0]
        Error() {
    swap(*this, error);
}
 80a09ce:	bd10      	pop	{r4, pc}

080a09d0 <_ZN8particle5ErrorD1Ev>:

inline particle::Error::~Error() {
 80a09d0:	b510      	push	{r4, lr}
 80a09d2:	4604      	mov	r4, r0
    free((void*)msg_);
 80a09d4:	6800      	ldr	r0, [r0, #0]
 80a09d6:	f7ff ffb1 	bl	80a093c <free>
}
 80a09da:	4620      	mov	r0, r4
 80a09dc:	bd10      	pop	{r4, pc}

080a09de <_ZNSt15_Sp_counted_ptrIPN8particle6detail10FutureImplIbNS1_13FutureContextEEELN9__gnu_cxx12_Lock_policyE0EE10_M_disposeEv>:
      explicit
      _Sp_counted_ptr(_Ptr __p) noexcept
      : _M_ptr(__p) { }

      virtual void
      _M_dispose() noexcept
 80a09de:	b538      	push	{r3, r4, r5, lr}
      { delete _M_ptr; }
 80a09e0:	68c4      	ldr	r4, [r0, #12]
 80a09e2:	b1f4      	cbz	r4, 80a0a22 <_ZNSt15_Sp_counted_ptrIPN8particle6detail10FutureImplIbNS1_13FutureContextEEELN9__gnu_cxx12_Lock_policyE0EE10_M_disposeEv+0x44>

      _Tp
      load(memory_order __m = memory_order_seq_cst) const noexcept
      { 
        _Tp tmp;
	__atomic_load(&_M_i, &tmp, __m);
 80a09e4:	7823      	ldrb	r3, [r4, #0]
    ~FutureImpl() {
        // Call destructor of the appropriate unnamed enum's field
        const State s = this->state();
        if (s == State::SUCCEEDED) {
            result_.~ResultT();
        } else if (s == State::FAILED) {
 80a09e6:	2b02      	cmp	r3, #2
 80a09e8:	d103      	bne.n	80a09f2 <_ZNSt15_Sp_counted_ptrIPN8particle6detail10FutureImplIbNS1_13FutureContextEEELN9__gnu_cxx12_Lock_policyE0EE10_M_disposeEv+0x14>
            error_.~Error();
 80a09ea:	f104 000c 	add.w	r0, r4, #12
 80a09ee:	f7ff ffef 	bl	80a09d0 <_ZN8particle5ErrorD1Ev>
      {
        memory_order __b = __m & __memory_order_mask;
	__glibcxx_assert(__b != memory_order_release);
	__glibcxx_assert(__b != memory_order_acq_rel);

	return __atomic_load_n(&_M_p, __m);
 80a09f2:	6865      	ldr	r5, [r4, #4]
    // Completion callback types
    typedef typename detail::FutureCallbackTypes<ResultT>::OnSuccess OnSuccessCallback;
    typedef typename detail::FutureCallbackTypes<ResultT>::OnError OnErrorCallback;

    ~FutureImplBase() {
        delete onSuccess_.load(std::memory_order_relaxed);
 80a09f4:	b135      	cbz	r5, 80a0a04 <_ZNSt15_Sp_counted_ptrIPN8particle6detail10FutureImplIbNS1_13FutureContextEEELN9__gnu_cxx12_Lock_policyE0EE10_M_disposeEv+0x26>
   *  @ingroup functors
   *
   *  Polymorphic function wrapper.
   */
  template<typename _Res, typename... _ArgTypes>
    class function<_Res(_ArgTypes...)>
 80a09f6:	4628      	mov	r0, r5
 80a09f8:	f7ff fb9e 	bl	80a0138 <_ZNSt14_Function_baseD1Ev>
 80a09fc:	2110      	movs	r1, #16
 80a09fe:	4628      	mov	r0, r5
 80a0a00:	f001 f857 	bl	80a1ab2 <_ZdlPvj>
 80a0a04:	68a5      	ldr	r5, [r4, #8]
        delete onError_.load(std::memory_order_relaxed);
 80a0a06:	b135      	cbz	r5, 80a0a16 <_ZNSt15_Sp_counted_ptrIPN8particle6detail10FutureImplIbNS1_13FutureContextEEELN9__gnu_cxx12_Lock_policyE0EE10_M_disposeEv+0x38>
 80a0a08:	4628      	mov	r0, r5
 80a0a0a:	f7ff fb95 	bl	80a0138 <_ZNSt14_Function_baseD1Ev>
 80a0a0e:	2110      	movs	r1, #16
 80a0a10:	4628      	mov	r0, r5
 80a0a12:	f001 f84e 	bl	80a1ab2 <_ZdlPvj>
 80a0a16:	4620      	mov	r0, r4
 80a0a18:	e8bd 4038 	ldmia.w	sp!, {r3, r4, r5, lr}
 80a0a1c:	2114      	movs	r1, #20
 80a0a1e:	f001 b848 	b.w	80a1ab2 <_ZdlPvj>
 80a0a22:	bd38      	pop	{r3, r4, r5, pc}

080a0a24 <_ZN8particle6FutureIbNS_6detail13FutureContextEEC1ESt10shared_ptrINS1_10FutureImplIbS2_EEE>:
};

template<typename ResultT, typename ContextT = detail::FutureContext>
class Future: public FutureBase<ResultT, ContextT> {
public:
    using FutureBase<ResultT, ContextT>::FutureBase;
 80a0a24:	b513      	push	{r0, r1, r4, lr}
 80a0a26:	4604      	mov	r4, r0
      }

      void
      _M_swap(__shared_count& __r) noexcept
      {
	_Sp_counted_base<_Lp>* __tmp = __r._M_pi;
 80a0a28:	e891 0005 	ldmia.w	r1, {r0, r2}
	__r._M_pi = _M_pi;
 80a0a2c:	2300      	movs	r3, #0
 80a0a2e:	604b      	str	r3, [r1, #4]

      __shared_ptr(__shared_ptr&& __r) noexcept
      : _M_ptr(__r._M_ptr), _M_refcount()
      {
	_M_refcount._M_swap(__r._M_refcount);
	__r._M_ptr = 0;
 80a0a30:	600b      	str	r3, [r1, #0]
	__shared_ptr(const __shared_ptr<_Tp1, _Lp>& __r) noexcept
	: _M_ptr(__r._M_ptr), _M_refcount(__r._M_refcount)
	{ }

      __shared_ptr(__shared_ptr&& __r) noexcept
      : _M_ptr(__r._M_ptr), _M_refcount()
 80a0a32:	6020      	str	r0, [r4, #0]
      void
      _M_swap(__shared_count& __r) noexcept
      {
	_Sp_counted_base<_Lp>* __tmp = __r._M_pi;
	__r._M_pi = _M_pi;
	_M_pi = __tmp;
 80a0a34:	6062      	str	r2, [r4, #4]
	: _M_ptr(__p), _M_refcount(__r._M_refcount) // never throws
	{ }

      __shared_ptr(const __shared_ptr&) noexcept = default;
      __shared_ptr& operator=(const __shared_ptr&) noexcept = default;
      ~__shared_ptr() = default;
 80a0a36:	a801      	add	r0, sp, #4

      void
      _M_swap(__shared_count& __r) noexcept
      {
	_Sp_counted_base<_Lp>* __tmp = __r._M_pi;
	__r._M_pi = _M_pi;
 80a0a38:	9301      	str	r3, [sp, #4]

      __shared_ptr(__shared_ptr&& __r) noexcept
      : _M_ptr(__r._M_ptr), _M_refcount()
      {
	_M_refcount._M_swap(__r._M_refcount);
	__r._M_ptr = 0;
 80a0a3a:	9300      	str	r3, [sp, #0]
	: _M_ptr(__p), _M_refcount(__r._M_refcount) // never throws
	{ }

      __shared_ptr(const __shared_ptr&) noexcept = default;
      __shared_ptr& operator=(const __shared_ptr&) noexcept = default;
      ~__shared_ptr() = default;
 80a0a3c:	f7ff fbea 	bl	80a0214 <_ZNSt14__shared_countILN9__gnu_cxx12_Lock_policyE0EED1Ev>
 80a0a40:	4620      	mov	r0, r4
 80a0a42:	b002      	add	sp, #8
 80a0a44:	bd10      	pop	{r4, pc}

080a0a46 <_ZNSt14__shared_countILN9__gnu_cxx12_Lock_policyE0EEC1ERKS2_>:
	if (_M_pi != nullptr)
	  _M_pi->_M_release();
      }

      __shared_count(const __shared_count& __r) noexcept
      : _M_pi(__r._M_pi)
 80a0a46:	680b      	ldr	r3, [r1, #0]
 80a0a48:	6003      	str	r3, [r0, #0]
      {
	if (_M_pi != 0)
 80a0a4a:	b113      	cbz	r3, 80a0a52 <_ZNSt14__shared_countILN9__gnu_cxx12_Lock_policyE0EEC1ERKS2_+0xc>
    }

  template<>
    inline void
    _Sp_counted_base<_S_single>::_M_add_ref_copy()
    { ++_M_use_count; }
 80a0a4c:	685a      	ldr	r2, [r3, #4]
 80a0a4e:	3201      	adds	r2, #1
 80a0a50:	605a      	str	r2, [r3, #4]
      __shared_count(const __shared_count& __r) noexcept
      : _M_pi(__r._M_pi)
      {
	if (_M_pi != 0)
	  _M_pi->_M_add_ref_copy();
      }
 80a0a52:	4770      	bx	lr

080a0a54 <_ZN8particle11PromiseBaseIbNS_6detail13FutureContextEE11fromDataPtrEPv>:
        // TODO: Use custom reference counting object to avoid unnecessary memory allocation
        return new detail::FutureImplPtr<ResultT, ContextT>(p_);
    }

    // Unwraps promise from an object pointer created via dataPtr() method
    static Promise<ResultT, ContextT> fromDataPtr(void* data) {
 80a0a54:	b5f7      	push	{r0, r1, r2, r4, r5, r6, r7, lr}
      template<typename _Tp1>
	__shared_ptr(const __shared_ptr<_Tp1, _Lp>& __r, _Tp* __p) noexcept
	: _M_ptr(__p), _M_refcount(__r._M_refcount) // never throws
	{ }

      __shared_ptr(const __shared_ptr&) noexcept = default;
 80a0a56:	460c      	mov	r4, r1
 80a0a58:	4606      	mov	r6, r0
 80a0a5a:	460f      	mov	r7, r1
 80a0a5c:	f854 3b04 	ldr.w	r3, [r4], #4
 80a0a60:	ad02      	add	r5, sp, #8
 80a0a62:	f845 3d08 	str.w	r3, [r5, #-8]!
 80a0a66:	4621      	mov	r1, r4
 80a0a68:	a801      	add	r0, sp, #4
 80a0a6a:	f7ff ffec 	bl	80a0a46 <_ZNSt14__shared_countILN9__gnu_cxx12_Lock_policyE0EEC1ERKS2_>
        auto d = static_cast<detail::FutureImplPtr<ResultT, ContextT>*>(data);
        const Promise<ResultT, ContextT> p(*d);
 80a0a6e:	4629      	mov	r1, r5
 80a0a70:	4630      	mov	r0, r6
 80a0a72:	f7ff ffd7 	bl	80a0a24 <_ZN8particle6FutureIbNS_6detail13FutureContextEEC1ESt10shared_ptrINS1_10FutureImplIbS2_EEE>
      __shared_ptr& operator=(const __shared_ptr&) noexcept = default;
      ~__shared_ptr() = default;
 80a0a76:	a801      	add	r0, sp, #4
 80a0a78:	f7ff fbcc 	bl	80a0214 <_ZNSt14__shared_countILN9__gnu_cxx12_Lock_policyE0EED1Ev>
 80a0a7c:	4620      	mov	r0, r4
 80a0a7e:	f7ff fbc9 	bl	80a0214 <_ZNSt14__shared_countILN9__gnu_cxx12_Lock_policyE0EED1Ev>
        delete d;
 80a0a82:	4638      	mov	r0, r7
 80a0a84:	2108      	movs	r1, #8
 80a0a86:	f001 f814 	bl	80a1ab2 <_ZdlPvj>
        return p;
    }
 80a0a8a:	4630      	mov	r0, r6
 80a0a8c:	b003      	add	sp, #12
 80a0a8e:	bdf0      	pop	{r4, r5, r6, r7, pc}

080a0a90 <_ZSt4swapISt9_Any_dataEvRT_S2_>:
   *  @param  __b  Another thing of arbitrary type.
   *  @return   Nothing.
  */
  template<typename _Tp>
    inline void
    swap(_Tp& __a, _Tp& __b)
 80a0a90:	b513      	push	{r0, r1, r4, lr}
 80a0a92:	460b      	mov	r3, r1
 80a0a94:	4604      	mov	r4, r0
#endif
    {
      // concept requirements
      __glibcxx_function_requires(_SGIAssignableConcept<_Tp>)

      _Tp __tmp = _GLIBCXX_MOVE(__a);
 80a0a96:	c803      	ldmia	r0, {r0, r1}
 80a0a98:	e88d 0003 	stmia.w	sp, {r0, r1}
      __a = _GLIBCXX_MOVE(__b);
 80a0a9c:	e893 0003 	ldmia.w	r3, {r0, r1}
 80a0aa0:	e884 0003 	stmia.w	r4, {r0, r1}
      __b = _GLIBCXX_MOVE(__tmp);
 80a0aa4:	e89d 0003 	ldmia.w	sp, {r0, r1}
 80a0aa8:	e883 0003 	stmia.w	r3, {r0, r1}
    }
 80a0aac:	b002      	add	sp, #8
 80a0aae:	bd10      	pop	{r4, pc}

080a0ab0 <_ZNSt14__shared_countILN9__gnu_cxx12_Lock_policyE0EEC1IPN8particle6detail10FutureImplIbNS5_13FutureContextEEEEET_>:
      constexpr __shared_count() noexcept : _M_pi(0)
      { }

      template<typename _Ptr>
        explicit
	__shared_count(_Ptr __p) : _M_pi(0)
 80a0ab0:	b538      	push	{r3, r4, r5, lr}
 80a0ab2:	2300      	movs	r3, #0
 80a0ab4:	4604      	mov	r4, r0
 80a0ab6:	6003      	str	r3, [r0, #0]
	{
	  __try
	    {
	      _M_pi = new _Sp_counted_ptr<_Ptr, _Lp>(__p);
 80a0ab8:	2010      	movs	r0, #16
      constexpr __shared_count() noexcept : _M_pi(0)
      { }

      template<typename _Ptr>
        explicit
	__shared_count(_Ptr __p) : _M_pi(0)
 80a0aba:	460d      	mov	r5, r1
	{
	  __try
	    {
	      _M_pi = new _Sp_counted_ptr<_Ptr, _Lp>(__p);
 80a0abc:	f7ff faed 	bl	80a009a <_Znwj>
 80a0ac0:	b128      	cbz	r0, 80a0ace <_ZNSt14__shared_countILN9__gnu_cxx12_Lock_policyE0EEC1IPN8particle6detail10FutureImplIbNS5_13FutureContextEEEEET_+0x1e>
    class _Sp_counted_base
    : public _Mutex_base<_Lp>
    {
    public:  
      _Sp_counted_base() noexcept
      : _M_use_count(1), _M_weak_count(1) { }
 80a0ac2:	2301      	movs	r3, #1
 80a0ac4:	6043      	str	r3, [r0, #4]
 80a0ac6:	6083      	str	r3, [r0, #8]
    class _Sp_counted_ptr final : public _Sp_counted_base<_Lp>
    {
    public:
      explicit
      _Sp_counted_ptr(_Ptr __p) noexcept
      : _M_ptr(__p) { }
 80a0ac8:	4b02      	ldr	r3, [pc, #8]	; (80a0ad4 <_ZNSt14__shared_countILN9__gnu_cxx12_Lock_policyE0EEC1IPN8particle6detail10FutureImplIbNS5_13FutureContextEEEEET_+0x24>)
 80a0aca:	60c5      	str	r5, [r0, #12]
 80a0acc:	6003      	str	r3, [r0, #0]
        explicit
	__shared_count(_Ptr __p) : _M_pi(0)
	{
	  __try
	    {
	      _M_pi = new _Sp_counted_ptr<_Ptr, _Lp>(__p);
 80a0ace:	6020      	str	r0, [r4, #0]
	  __catch(...)
	    {
	      delete __p;
	      __throw_exception_again;
	    }
	}
 80a0ad0:	4620      	mov	r0, r4
 80a0ad2:	bd38      	pop	{r3, r4, r5, pc}
 80a0ad4:	080a1ec4 	.word	0x080a1ec4

080a0ad8 <_ZNKSt8functionIFvRKN8particle5ErrorEEEclES3_>:
  template<typename _Res, typename... _ArgTypes>
    _Res
    function<_Res(_ArgTypes...)>::
    operator()(_ArgTypes... __args) const
    {
      if (_M_empty())
 80a0ad8:	6882      	ldr	r2, [r0, #8]
	  }
      }

  template<typename _Res, typename... _ArgTypes>
    _Res
    function<_Res(_ArgTypes...)>::
 80a0ada:	b510      	push	{r4, lr}
    operator()(_ArgTypes... __args) const
    {
      if (_M_empty())
 80a0adc:	b90a      	cbnz	r2, 80a0ae2 <_ZNKSt8functionIFvRKN8particle5ErrorEEEclES3_+0xa>
	__throw_bad_function_call();
 80a0ade:	f001 f804 	bl	80a1aea <_ZSt25__throw_bad_function_callv>
      return _M_invoker(_M_functor, std::forward<_ArgTypes>(__args)...);
 80a0ae2:	68c3      	ldr	r3, [r0, #12]
    }
 80a0ae4:	e8bd 4010 	ldmia.w	sp!, {r4, lr}
    function<_Res(_ArgTypes...)>::
    operator()(_ArgTypes... __args) const
    {
      if (_M_empty())
	__throw_bad_function_call();
      return _M_invoker(_M_functor, std::forward<_ArgTypes>(__args)...);
 80a0ae8:	4718      	bx	r3

080a0aea <_ZNSt17_Function_handlerIFvvESt5_BindIFSt8functionIFvRKN8particle5ErrorEEES4_EEE9_M_invokeERKSt9_Any_data>:
    {
      typedef _Function_base::_Base_manager<_Functor> _Base;

     public:
      static void
      _M_invoke(const _Any_data& __functor, _ArgTypes&&... __args)
 80a0aea:	b508      	push	{r3, lr}
	static _Functor*
	_M_get_pointer(const _Any_data& __source)
	{
	  const _Functor* __ptr =
	    __stored_locally? std::__addressof(__source._M_access<_Functor>())
	    /* have stored a pointer */ : __source._M_access<_Functor*>();
 80a0aec:	6800      	ldr	r0, [r0, #0]
      template<typename _Result, typename... _Args, std::size_t... _Indexes>
	_Result
	__call(tuple<_Args...>&& __args, _Index_tuple<_Indexes...>)
	{
	  return _M_f(_Mu<_Bound_args>()
		      (std::get<_Indexes>(_M_bound_args), __args)...);
 80a0aee:	f100 0110 	add.w	r1, r0, #16
 80a0af2:	f7ff fff1 	bl	80a0ad8 <_ZNKSt8functionIFvRKN8particle5ErrorEEEclES3_>
 80a0af6:	bd08      	pop	{r3, pc}

080a0af8 <_ZNKSt8functionIFvRKbEEclES1_>:
  template<typename _Res, typename... _ArgTypes>
    _Res
    function<_Res(_ArgTypes...)>::
    operator()(_ArgTypes... __args) const
    {
      if (_M_empty())
 80a0af8:	6882      	ldr	r2, [r0, #8]
	  }
      }

  template<typename _Res, typename... _ArgTypes>
    _Res
    function<_Res(_ArgTypes...)>::
 80a0afa:	b510      	push	{r4, lr}
    operator()(_ArgTypes... __args) const
    {
      if (_M_empty())
 80a0afc:	b90a      	cbnz	r2, 80a0b02 <_ZNKSt8functionIFvRKbEEclES1_+0xa>
	__throw_bad_function_call();
 80a0afe:	f000 fff4 	bl	80a1aea <_ZSt25__throw_bad_function_callv>
      return _M_invoker(_M_functor, std::forward<_ArgTypes>(__args)...);
 80a0b02:	68c3      	ldr	r3, [r0, #12]
    }
 80a0b04:	e8bd 4010 	ldmia.w	sp!, {r4, lr}
    function<_Res(_ArgTypes...)>::
    operator()(_ArgTypes... __args) const
    {
      if (_M_empty())
	__throw_bad_function_call();
      return _M_invoker(_M_functor, std::forward<_ArgTypes>(__args)...);
 80a0b08:	4718      	bx	r3

080a0b0a <_ZNSt17_Function_handlerIFvvESt5_BindIFSt8functionIFvRKbEEbEEE9_M_invokeERKSt9_Any_data>:
    {
      typedef _Function_base::_Base_manager<_Functor> _Base;

     public:
      static void
      _M_invoke(const _Any_data& __functor, _ArgTypes&&... __args)
 80a0b0a:	b508      	push	{r3, lr}
	static _Functor*
	_M_get_pointer(const _Any_data& __source)
	{
	  const _Functor* __ptr =
	    __stored_locally? std::__addressof(__source._M_access<_Functor>())
	    /* have stored a pointer */ : __source._M_access<_Functor*>();
 80a0b0c:	6800      	ldr	r0, [r0, #0]
      template<typename _Result, typename... _Args, std::size_t... _Indexes>
	_Result
	__call(tuple<_Args...>&& __args, _Index_tuple<_Indexes...>)
	{
	  return _M_f(_Mu<_Bound_args>()
		      (std::get<_Indexes>(_M_bound_args), __args)...);
 80a0b0e:	f100 0110 	add.w	r1, r0, #16
 80a0b12:	f7ff fff1 	bl	80a0af8 <_ZNKSt8functionIFvRKbEEclES1_>
 80a0b16:	bd08      	pop	{r3, pc}

080a0b18 <_ZNSt8functionIFvRKN8particle5ErrorEEEC1ERKS5_>:
      _Invoker_type _M_invoker;
  };

  // Out-of-line member definitions.
  template<typename _Res, typename... _ArgTypes>
    function<_Res(_ArgTypes...)>::
 80a0b18:	b538      	push	{r3, r4, r5, lr}
	{
	  _Base::_M_init_functor(__functor, std::__addressof(__f.get()));
	}
      };

    _Function_base() : _M_manager(nullptr) { }
 80a0b1a:	2300      	movs	r3, #0
 80a0b1c:	6083      	str	r3, [r0, #8]
 80a0b1e:	688b      	ldr	r3, [r1, #8]
      _Invoker_type _M_invoker;
  };

  // Out-of-line member definitions.
  template<typename _Res, typename... _ArgTypes>
    function<_Res(_ArgTypes...)>::
 80a0b20:	4604      	mov	r4, r0
 80a0b22:	460d      	mov	r5, r1
    function(const function& __x)
    : _Function_base()
    {
      if (static_cast<bool>(__x))
 80a0b24:	b12b      	cbz	r3, 80a0b32 <_ZNSt8functionIFvRKN8particle5ErrorEEEC1ERKS5_+0x1a>
	{
	  __x._M_manager(_M_functor, __x._M_functor, __clone_functor);
 80a0b26:	2202      	movs	r2, #2
 80a0b28:	4798      	blx	r3
	  _M_invoker = __x._M_invoker;
 80a0b2a:	68eb      	ldr	r3, [r5, #12]
 80a0b2c:	60e3      	str	r3, [r4, #12]
	  _M_manager = __x._M_manager;
 80a0b2e:	68ab      	ldr	r3, [r5, #8]
 80a0b30:	60a3      	str	r3, [r4, #8]
	}
    }
 80a0b32:	4620      	mov	r0, r4
 80a0b34:	bd38      	pop	{r3, r4, r5, pc}
	...

080a0b38 <_ZN8particle11PromiseBaseIbNS_6detail13FutureContextEE8setErrorENS_5ErrorE>:

    explicit PromiseBase(detail::FutureImplPtr<ResultT, ContextT> ptr) :
            p_(std::move(ptr)) {
    }

    void setError(Error error) {
 80a0b38:	b5f0      	push	{r4, r5, r6, r7, lr}
 80a0b3a:	b089      	sub	sp, #36	; 0x24
 80a0b3c:	6804      	ldr	r4, [r0, #0]
        p_->setError(std::move(error));
 80a0b3e:	4668      	mov	r0, sp
 80a0b40:	f7ff ff37 	bl	80a09b2 <_ZN8particle5ErrorC1EOS0_>

      bool
      compare_exchange_strong(_Tp& __e, _Tp __i, memory_order __s, 
			      memory_order __f) noexcept
      {
	return __atomic_compare_exchange(&_M_i, &__e, &__i, false, __s, __f);
 80a0b44:	f04f 0202 	mov.w	r2, #2
            onSuccess_(nullptr),
            onError_(nullptr) {
    }

    bool changeState(State state) {
        State s = State::RUNNING; // Expected state
 80a0b48:	2300      	movs	r3, #0
 80a0b4a:	f88d 3008 	strb.w	r3, [sp, #8]
 80a0b4e:	e8d4 3f4f 	ldrexb	r3, [r4]
 80a0b52:	2b00      	cmp	r3, #0
 80a0b54:	d103      	bne.n	80a0b5e <_ZN8particle11PromiseBaseIbNS_6detail13FutureContextEE8setErrorENS_5ErrorE+0x26>
 80a0b56:	e8c4 2f41 	strexb	r1, r2, [r4]
 80a0b5a:	2900      	cmp	r1, #0
 80a0b5c:	d1f7      	bne.n	80a0b4e <_ZN8particle11PromiseBaseIbNS_6detail13FutureContextEE8setErrorENS_5ErrorE+0x16>
 80a0b5e:	d002      	beq.n	80a0b66 <_ZN8particle11PromiseBaseIbNS_6detail13FutureContextEE8setErrorENS_5ErrorE+0x2e>
 80a0b60:	f88d 3008 	strb.w	r3, [sp, #8]
 80a0b64:	e063      	b.n	80a0c2e <_ZN8particle11PromiseBaseIbNS_6detail13FutureContextEE8setErrorENS_5ErrorE+0xf6>
        return std::move(defaultValue);
    }

    void setError(Error error) {
        if (this->changeState(State::FAILED)) {
            new(&error_) Error(std::move(error));
 80a0b66:	f114 050c 	adds.w	r5, r4, #12
 80a0b6a:	d003      	beq.n	80a0b74 <_ZN8particle11PromiseBaseIbNS_6detail13FutureContextEE8setErrorENS_5ErrorE+0x3c>
 80a0b6c:	4669      	mov	r1, sp
 80a0b6e:	4628      	mov	r0, r5
 80a0b70:	f7ff ff1f 	bl	80a09b2 <_ZN8particle5ErrorC1EOS0_>
        memory_order __b = __m & __memory_order_mask;
	__glibcxx_assert(__b != memory_order_acquire);
	__glibcxx_assert(__b != memory_order_acq_rel);
	__glibcxx_assert(__b != memory_order_consume);

	__atomic_store_n(&_M_i, __i, __m);
 80a0b74:	f3bf 8f5f 	dmb	sy
 80a0b78:	2301      	movs	r3, #1
 80a0b7a:	7063      	strb	r3, [r4, #1]

      _GLIBCXX_ALWAYS_INLINE __pointer_type
      exchange(__pointer_type __p,
	       memory_order __m = memory_order_seq_cst) noexcept
      {
	return __atomic_exchange_n(&_M_p, __p, __m);
 80a0b7c:	f3bf 8f5f 	dmb	sy
 80a0b80:	f104 0308 	add.w	r3, r4, #8
 80a0b84:	2000      	movs	r0, #0
 80a0b86:	e853 6f00 	ldrex	r6, [r3]
 80a0b8a:	e843 0200 	strex	r2, r0, [r3]
 80a0b8e:	2a00      	cmp	r2, #0
 80a0b90:	d1f9      	bne.n	80a0b86 <_ZN8particle11PromiseBaseIbNS_6detail13FutureContextEE8setErrorENS_5ErrorE+0x4e>
 80a0b92:	f3bf 8f5f 	dmb	sy

    // Takes a callback from its atomic wrapper and invokes it
    template<typename FunctionT, typename... ArgsT>
    static void invokeCallback(std::atomic<std::function<FunctionT>*>& wrapper, ArgsT&&... args) {
        std::function<FunctionT>* callbackPtr = wrapper.exchange(nullptr, std::memory_order_acq_rel);
        if (callbackPtr) {
 80a0b96:	2e00      	cmp	r6, #0
 80a0b98:	d049      	beq.n	80a0c2e <_ZN8particle11PromiseBaseIbNS_6detail13FutureContextEE8setErrorENS_5ErrorE+0xf6>
        return (application_thread_invoke(callback, data, nullptr) == 0);
    }

    // Returns true if current thread is the application thread
    static bool isApplicationThreadCurrent() {
        return (application_thread_current(nullptr) != 0);
 80a0b9a:	f7ff fe19 	bl	80a07d0 <application_thread_current>
    }

    // Invokes std::function in the application context
    template<typename FunctionT, typename... ArgsT>
    static void invokeCallback(const std::function<FunctionT>& callback, ArgsT&&... args) {
        if (ContextT::isApplicationThreadCurrent()) {
 80a0b9e:	b120      	cbz	r0, 80a0baa <_ZN8particle11PromiseBaseIbNS_6detail13FutureContextEE8setErrorENS_5ErrorE+0x72>
            callback(std::forward<ArgsT>(args)...); // Synchronous call
 80a0ba0:	4629      	mov	r1, r5
 80a0ba2:	4630      	mov	r0, r6
 80a0ba4:	f7ff ff98 	bl	80a0ad8 <_ZNKSt8functionIFvRKN8particle5ErrorEEEclES3_>
 80a0ba8:	e03a      	b.n	80a0c20 <_ZN8particle11PromiseBaseIbNS_6detail13FutureContextEE8setErrorENS_5ErrorE+0xe8>
	}

     public:
      template<typename... _Args>
	explicit _Bind(const _Functor& __f, _Args&&... __args)
	: _M_f(__f), _M_bound_args(std::forward<_Args>(__args)...)
 80a0baa:	4631      	mov	r1, r6
 80a0bac:	a802      	add	r0, sp, #8
 80a0bae:	f7ff ffb3 	bl	80a0b18 <_ZNSt8functionIFvRKN8particle5ErrorEEEC1ERKS5_>
inline particle::Error::Error(const char* msg) :
        Error(UNKNOWN, msg) {
}

inline particle::Error::Error(const Error& error) :
        Error(error.type_, error.msg_) {
 80a0bb2:	68e0      	ldr	r0, [r4, #12]
 80a0bb4:	f9b4 5010 	ldrsh.w	r5, [r4, #16]
        type_(type) {
}

inline particle::Error::Error(Type type, const char* msg) :
        msg_(msg ? (const char*)strdup(msg) : nullptr),
        type_(type) {
 80a0bb8:	b108      	cbz	r0, 80a0bbe <_ZN8particle11PromiseBaseIbNS_6detail13FutureContextEE8setErrorENS_5ErrorE+0x86>
 80a0bba:	f001 f92b 	bl	80a1e14 <strdup>
 80a0bbe:	9006      	str	r0, [sp, #24]
        } else {
            // Bind all arguments and wrap resulting function into a pointer
            auto callbackPtr = new std::function<void()>(std::bind(callback, std::forward<ArgsT>(args)...));
 80a0bc0:	2010      	movs	r0, #16
 80a0bc2:	f8ad 501c 	strh.w	r5, [sp, #28]
 80a0bc6:	f7ff fa68 	bl	80a009a <_Znwj>
 80a0bca:	4605      	mov	r5, r0
 80a0bcc:	b1e8      	cbz	r0, 80a0c0a <_ZN8particle11PromiseBaseIbNS_6detail13FutureContextEE8setErrorENS_5ErrorE+0xd2>
	{
	  _Base::_M_init_functor(__functor, std::__addressof(__f.get()));
	}
      };

    _Function_base() : _M_manager(nullptr) { }
 80a0bce:	2700      	movs	r7, #0
 80a0bd0:	6087      	str	r7, [r0, #8]
	_M_init_functor(_Any_data& __functor, _Functor&& __f, true_type)
	{ new (__functor._M_access()) _Functor(std::move(__f)); }

	static void
	_M_init_functor(_Any_data& __functor, _Functor&& __f, false_type)
	{ __functor._M_access<_Functor*>() = new _Functor(std::move(__f)); }
 80a0bd2:	2018      	movs	r0, #24
 80a0bd4:	f7ff fa61 	bl	80a009a <_Znwj>
 80a0bd8:	4604      	mov	r4, r0
 80a0bda:	b188      	cbz	r0, 80a0c00 <_ZN8particle11PromiseBaseIbNS_6detail13FutureContextEE8setErrorENS_5ErrorE+0xc8>
       *  Swap the targets of @c this function object and @a __f. This
       *  function will not throw an %exception.
       */
      void swap(function& __x)
      {
	std::swap(_M_functor, __x._M_functor);
 80a0bdc:	4601      	mov	r1, r0
	{
	  _Base::_M_init_functor(__functor, std::__addressof(__f.get()));
	}
      };

    _Function_base() : _M_manager(nullptr) { }
 80a0bde:	6087      	str	r7, [r0, #8]
       *  Swap the targets of @c this function object and @a __f. This
       *  function will not throw an %exception.
       */
      void swap(function& __x)
      {
	std::swap(_M_functor, __x._M_functor);
 80a0be0:	a802      	add	r0, sp, #8
 80a0be2:	f7ff ff55 	bl	80a0a90 <_ZSt4swapISt9_Any_dataEvRT_S2_>
#endif
    {
      // concept requirements
      __glibcxx_function_requires(_SGIAssignableConcept<_Tp>)

      _Tp __tmp = _GLIBCXX_MOVE(__a);
 80a0be6:	9b04      	ldr	r3, [sp, #16]
      __a = _GLIBCXX_MOVE(__b);
 80a0be8:	68a2      	ldr	r2, [r4, #8]
      __b = _GLIBCXX_MOVE(__tmp);
 80a0bea:	60a3      	str	r3, [r4, #8]
#endif
    {
      // concept requirements
      __glibcxx_function_requires(_SGIAssignableConcept<_Tp>)

      _Tp __tmp = _GLIBCXX_MOVE(__a);
 80a0bec:	9b05      	ldr	r3, [sp, #20]
      __a = _GLIBCXX_MOVE(__b);
 80a0bee:	9204      	str	r2, [sp, #16]
 80a0bf0:	68e2      	ldr	r2, [r4, #12]
      constexpr _Head_base(const _Head_base&) = default;
      constexpr _Head_base(_Head_base&&) = default;

      template<typename _UHead>
        constexpr _Head_base(_UHead&& __h)
	: _M_head_impl(std::forward<_UHead>(__h)) { }
 80a0bf2:	a906      	add	r1, sp, #24
      __b = _GLIBCXX_MOVE(__tmp);
 80a0bf4:	60e3      	str	r3, [r4, #12]
 80a0bf6:	f104 0010 	add.w	r0, r4, #16
    {
      // concept requirements
      __glibcxx_function_requires(_SGIAssignableConcept<_Tp>)

      _Tp __tmp = _GLIBCXX_MOVE(__a);
      __a = _GLIBCXX_MOVE(__b);
 80a0bfa:	9205      	str	r2, [sp, #20]
 80a0bfc:	f7ff fed9 	bl	80a09b2 <_ZN8particle5ErrorC1EOS0_>
	typedef _Function_handler<_Signature_type, _Functor> _My_handler;

	if (_My_handler::_M_not_empty_function(__f))
	  {
	    _My_handler::_M_init_functor(_M_functor, std::move(__f));
	    _M_invoker = &_My_handler::_M_invoke;
 80a0c00:	4b0d      	ldr	r3, [pc, #52]	; (80a0c38 <_ZN8particle11PromiseBaseIbNS_6detail13FutureContextEE8setErrorENS_5ErrorE+0x100>)
	_M_init_functor(_Any_data& __functor, _Functor&& __f, true_type)
	{ new (__functor._M_access()) _Functor(std::move(__f)); }

	static void
	_M_init_functor(_Any_data& __functor, _Functor&& __f, false_type)
	{ __functor._M_access<_Functor*>() = new _Functor(std::move(__f)); }
 80a0c02:	602c      	str	r4, [r5, #0]
	typedef _Function_handler<_Signature_type, _Functor> _My_handler;

	if (_My_handler::_M_not_empty_function(__f))
	  {
	    _My_handler::_M_init_functor(_M_functor, std::move(__f));
	    _M_invoker = &_My_handler::_M_invoke;
 80a0c04:	60eb      	str	r3, [r5, #12]
	    _M_manager = &_My_handler::_M_manager;
 80a0c06:	4b0d      	ldr	r3, [pc, #52]	; (80a0c3c <_ZN8particle11PromiseBaseIbNS_6detail13FutureContextEE8setErrorENS_5ErrorE+0x104>)
 80a0c08:	60ab      	str	r3, [r5, #8]
      static constexpr const _Head&
      _M_head(const _Head_base& __b) noexcept { return __b; }
    };

  template<std::size_t _Idx, typename _Head>
    struct _Head_base<_Idx, _Head, false>
 80a0c0a:	a806      	add	r0, sp, #24
 80a0c0c:	f7ff fee0 	bl	80a09d0 <_ZN8particle5ErrorD1Ev>
   *  @ingroup functors
   *
   *  Polymorphic function wrapper.
   */
  template<typename _Res, typename... _ArgTypes>
    class function<_Res(_ArgTypes...)>
 80a0c10:	a802      	add	r0, sp, #8
 80a0c12:	f7ff fa91 	bl	80a0138 <_ZNSt14_Function_baseD1Ev>
        spark_process();
    }

    // Asynchronously invokes a callback in the application context
    static bool invokeApplicationCallback(void (*callback)(void* data), void* data) {
        return (application_thread_invoke(callback, data, nullptr) == 0);
 80a0c16:	2200      	movs	r2, #0
 80a0c18:	4629      	mov	r1, r5
 80a0c1a:	4809      	ldr	r0, [pc, #36]	; (80a0c40 <_ZN8particle11PromiseBaseIbNS_6detail13FutureContextEE8setErrorENS_5ErrorE+0x108>)
 80a0c1c:	f7ff fde0 	bl	80a07e0 <application_thread_invoke>
 80a0c20:	4630      	mov	r0, r6
 80a0c22:	f7ff fa89 	bl	80a0138 <_ZNSt14_Function_baseD1Ev>
    template<typename FunctionT, typename... ArgsT>
    static void invokeCallback(std::atomic<std::function<FunctionT>*>& wrapper, ArgsT&&... args) {
        std::function<FunctionT>* callbackPtr = wrapper.exchange(nullptr, std::memory_order_acq_rel);
        if (callbackPtr) {
            invokeCallback(*callbackPtr, std::forward<ArgsT>(args)...);
            delete callbackPtr;
 80a0c26:	2110      	movs	r1, #16
 80a0c28:	4630      	mov	r0, r6
 80a0c2a:	f000 ff42 	bl	80a1ab2 <_ZdlPvj>
    explicit PromiseBase(detail::FutureImplPtr<ResultT, ContextT> ptr) :
            p_(std::move(ptr)) {
    }

    void setError(Error error) {
        p_->setError(std::move(error));
 80a0c2e:	4668      	mov	r0, sp
 80a0c30:	f7ff fece 	bl	80a09d0 <_ZN8particle5ErrorD1Ev>
    }
 80a0c34:	b009      	add	sp, #36	; 0x24
 80a0c36:	bdf0      	pop	{r4, r5, r6, r7, pc}
 80a0c38:	080a0aeb 	.word	0x080a0aeb
 80a0c3c:	080a0d61 	.word	0x080a0d61
 80a0c40:	080a096d 	.word	0x080a096d

080a0c44 <_ZN10CloudClass13publish_eventEPKcS1_iN8particle5FlagsI15PublishFlagTypehEE>:
    desc.data = (void*)data;
    desc.funcKey = funcKey;
    return spark_function(NULL, (user_function_int_str_t*)&desc, NULL);
}

Future<bool> CloudClass::publish_event(const char *eventName, const char *eventData, int ttl, PublishFlags flags) {
 80a0c44:	e92d 4ff0 	stmdb	sp!, {r4, r5, r6, r7, r8, r9, sl, fp, lr}
 80a0c48:	b08b      	sub	sp, #44	; 0x2c
 80a0c4a:	4606      	mov	r6, r0
 80a0c4c:	460f      	mov	r7, r1
 80a0c4e:	4690      	mov	r8, r2
 80a0c50:	4699      	mov	r9, r3
 80a0c52:	f89d a050 	ldrb.w	sl, [sp, #80]	; 0x50
    static void sleep(Spark_Sleep_TypeDef sleepMode, long seconds=0) __attribute__ ((deprecated("Please use System.sleep() instead.")))
    { SystemClass::sleep(sleepMode, seconds); }
    static void sleep(uint16_t wakeUpPin, InterruptMode edgeTriggerMode, long seconds=0) __attribute__ ((deprecated("Please use System.sleep() instead.")))
    { SystemClass::sleep(wakeUpPin, edgeTriggerMode, seconds); }

    static bool connected(void) { return spark_cloud_flag_connected(); }
 80a0c56:	f7ff fe01 	bl	80a085c <spark_cloud_flag_connected>
 80a0c5a:	ad07      	add	r5, sp, #28
    if (!connected()) {
 80a0c5c:	4683      	mov	fp, r0
 80a0c5e:	bb30      	cbnz	r0, 80a0cae <_ZN10CloudClass13publish_eventEPKcS1_iN8particle5FlagsI15PublishFlagTypehEE+0x6a>

} // namespace particle

inline particle::Error::Error(Type type) :
        msg_(nullptr),
        type_(type) {
 80a0c60:	f64f 732e 	movw	r3, #65326	; 0xff2e
 80a0c64:	9005      	str	r0, [sp, #20]
    typedef typename detail::FutureImpl<ResultT, ContextT>::OnSuccessCallback OnSuccessCallback;
    typedef typename detail::FutureImpl<ResultT, ContextT>::OnErrorCallback OnErrorCallback;

    // Construct failed future
    explicit FutureBase(Error error) :
            p_(new detail::FutureImpl<ResultT, ContextT>(std::move(error))) {
 80a0c66:	a905      	add	r1, sp, #20
 80a0c68:	4628      	mov	r0, r5
 80a0c6a:	f8ad 3018 	strh.w	r3, [sp, #24]
 80a0c6e:	f7ff fea0 	bl	80a09b2 <_ZN8particle5ErrorC1EOS0_>
 80a0c72:	2014      	movs	r0, #20
 80a0c74:	f7ff fa11 	bl	80a009a <_Znwj>
 80a0c78:	4604      	mov	r4, r0
 80a0c7a:	b158      	cbz	r0, 80a0c94 <_ZN10CloudClass13publish_eventEPKcS1_iN8particle5FlagsI15PublishFlagTypehEE+0x50>
      ~atomic() noexcept = default;
      atomic(const atomic&) = delete;
      atomic& operator=(const atomic&) = delete;
      atomic& operator=(const atomic&) volatile = delete;

      constexpr atomic(_Tp __i) noexcept : _M_i(__i) { }
 80a0c7c:	2302      	movs	r3, #2
 80a0c7e:	7003      	strb	r3, [r0, #0]
      __atomic_base(const __atomic_base&) = delete;
      __atomic_base& operator=(const __atomic_base&) = delete;
      __atomic_base& operator=(const __atomic_base&) volatile = delete;

      // Requires __int_type convertible to _M_i.
      constexpr __atomic_base(__int_type __i) noexcept : _M_i (__i) { }
 80a0c80:	2301      	movs	r3, #1
 80a0c82:	7043      	strb	r3, [r0, #1]
      __atomic_base(const __atomic_base&) = delete;
      __atomic_base& operator=(const __atomic_base&) = delete;
      __atomic_base& operator=(const __atomic_base&) volatile = delete;

      // Requires __pointer_type convertible to _M_p.
      constexpr __atomic_base(__pointer_type __p) noexcept : _M_p (__p) { }
 80a0c84:	f8c0 b004 	str.w	fp, [r0, #4]
 80a0c88:	f8c0 b008 	str.w	fp, [r0, #8]
            result_(std::move(result)) {
    }

    explicit FutureImpl(Error error) :
            FutureImplBase<ResultT, ContextT>(State::FAILED),
            error_(std::move(error)) {
 80a0c8c:	4629      	mov	r1, r5
 80a0c8e:	300c      	adds	r0, #12
 80a0c90:	f7ff fe8f 	bl	80a09b2 <_ZN8particle5ErrorC1EOS0_>
      : _M_ptr(0), _M_refcount()
      { }

      template<typename _Tp1>
	explicit __shared_ptr(_Tp1* __p)
        : _M_ptr(__p), _M_refcount(__p)
 80a0c94:	4630      	mov	r0, r6
 80a0c96:	4621      	mov	r1, r4
 80a0c98:	f840 4b04 	str.w	r4, [r0], #4
 80a0c9c:	f7ff ff08 	bl	80a0ab0 <_ZNSt14__shared_countILN9__gnu_cxx12_Lock_policyE0EEC1IPN8particle6detail10FutureImplIbNS5_13FutureContextEEEEET_>
    typedef typename detail::FutureImpl<ResultT, ContextT>::OnSuccessCallback OnSuccessCallback;
    typedef typename detail::FutureImpl<ResultT, ContextT>::OnErrorCallback OnErrorCallback;

    // Construct failed future
    explicit FutureBase(Error error) :
            p_(new detail::FutureImpl<ResultT, ContextT>(std::move(error))) {
 80a0ca0:	4628      	mov	r0, r5
 80a0ca2:	f7ff fe95 	bl	80a09d0 <_ZN8particle5ErrorD1Ev>
    }

    explicit FutureBase(Error::Type error) :
            FutureBase(Error(error)) {
 80a0ca6:	a805      	add	r0, sp, #20
 80a0ca8:	f7ff fe92 	bl	80a09d0 <_ZN8particle5ErrorD1Ev>
 80a0cac:	e052      	b.n	80a0d54 <_ZN10CloudClass13publish_eventEPKcS1_iN8particle5FlagsI15PublishFlagTypehEE+0x110>
        return Future<bool>(Error::INVALID_STATE);
    }
    spark_send_event_data d = { sizeof(spark_send_event_data) };
 80a0cae:	2400      	movs	r4, #0
 80a0cb0:	230c      	movs	r3, #12
// can be acquired via Future
template<typename ResultT, typename ContextT>
class PromiseBase {
public:
    PromiseBase() :
            p_(new detail::FutureImpl<ResultT, ContextT>(State::RUNNING)) {
 80a0cb2:	2014      	movs	r0, #20
 80a0cb4:	606c      	str	r4, [r5, #4]
 80a0cb6:	60ac      	str	r4, [r5, #8]
 80a0cb8:	9307      	str	r3, [sp, #28]
 80a0cba:	f7ff f9ee 	bl	80a009a <_Znwj>
 80a0cbe:	4601      	mov	r1, r0
 80a0cc0:	b118      	cbz	r0, 80a0cca <_ZN10CloudClass13publish_eventEPKcS1_iN8particle5FlagsI15PublishFlagTypehEE+0x86>
 80a0cc2:	7004      	strb	r4, [r0, #0]
      __atomic_base(const __atomic_base&) = delete;
      __atomic_base& operator=(const __atomic_base&) = delete;
      __atomic_base& operator=(const __atomic_base&) volatile = delete;

      // Requires __int_type convertible to _M_i.
      constexpr __atomic_base(__int_type __i) noexcept : _M_i (__i) { }
 80a0cc4:	7044      	strb	r4, [r0, #1]
      __atomic_base(const __atomic_base&) = delete;
      __atomic_base& operator=(const __atomic_base&) = delete;
      __atomic_base& operator=(const __atomic_base&) volatile = delete;

      // Requires __pointer_type convertible to _M_p.
      constexpr __atomic_base(__pointer_type __p) noexcept : _M_p (__p) { }
 80a0cc6:	6044      	str	r4, [r0, #4]
 80a0cc8:	6084      	str	r4, [r0, #8]
 80a0cca:	a804      	add	r0, sp, #16
 80a0ccc:	9103      	str	r1, [sp, #12]
 80a0cce:	f7ff feef 	bl	80a0ab0 <_ZNSt14__shared_countILN9__gnu_cxx12_Lock_policyE0EEC1IPN8particle6detail10FutureImplIbNS5_13FutureContextEEEEET_>

    // Completion handler
    Promise<bool> p;
    d.handler_callback = publishCompletionCallback;
 80a0cd2:	4b22      	ldr	r3, [pc, #136]	; (80a0d5c <_ZN10CloudClass13publish_eventEPKcS1_iN8particle5FlagsI15PublishFlagTypehEE+0x118>)
    }

    // Wraps this promise into an object pointer that can be passed to a C function
    void* dataPtr() const {
        // TODO: Use custom reference counting object to avoid unnecessary memory allocation
        return new detail::FutureImplPtr<ResultT, ContextT>(p_);
 80a0cd4:	2008      	movs	r0, #8
 80a0cd6:	9308      	str	r3, [sp, #32]
 80a0cd8:	f7ff f9df 	bl	80a009a <_Znwj>
 80a0cdc:	4604      	mov	r4, r0
 80a0cde:	b128      	cbz	r0, 80a0cec <_ZN10CloudClass13publish_eventEPKcS1_iN8particle5FlagsI15PublishFlagTypehEE+0xa8>
      template<typename _Tp1>
	__shared_ptr(const __shared_ptr<_Tp1, _Lp>& __r, _Tp* __p) noexcept
	: _M_ptr(__p), _M_refcount(__r._M_refcount) // never throws
	{ }

      __shared_ptr(const __shared_ptr&) noexcept = default;
 80a0ce0:	9b03      	ldr	r3, [sp, #12]
 80a0ce2:	a904      	add	r1, sp, #16
 80a0ce4:	f840 3b04 	str.w	r3, [r0], #4
 80a0ce8:	f7ff fead 	bl	80a0a46 <_ZNSt14__shared_countILN9__gnu_cxx12_Lock_policyE0EEC1ERKS2_>
    d.handler_data = p.dataPtr();

    if (!spark_send_event(eventName, eventData, ttl, flags.value(), &d) && !p.isDone()) {
 80a0cec:	9500      	str	r5, [sp, #0]
 80a0cee:	fa5f f38a 	uxtb.w	r3, sl
 80a0cf2:	464a      	mov	r2, r9
 80a0cf4:	4641      	mov	r1, r8
 80a0cf6:	4638      	mov	r0, r7
    spark_send_event_data d = { sizeof(spark_send_event_data) };

    // Completion handler
    Promise<bool> p;
    d.handler_callback = publishCompletionCallback;
    d.handler_data = p.dataPtr();
 80a0cf8:	9409      	str	r4, [sp, #36]	; 0x24

    if (!spark_send_event(eventName, eventData, ttl, flags.value(), &d) && !p.isDone()) {
 80a0cfa:	f7ff fdb7 	bl	80a086c <spark_send_event>
 80a0cfe:	b920      	cbnz	r0, 80a0d0a <_ZN10CloudClass13publish_eventEPKcS1_iN8particle5FlagsI15PublishFlagTypehEE+0xc6>
      {
       memory_order __b = __m & __memory_order_mask;
	__glibcxx_assert(__b != memory_order_release);
	__glibcxx_assert(__b != memory_order_acq_rel);

	return __atomic_load_n(&_M_i, __m);
 80a0d00:	9b03      	ldr	r3, [sp, #12]
 80a0d02:	785b      	ldrb	r3, [r3, #1]
 80a0d04:	f003 02ff 	and.w	r2, r3, #255	; 0xff
 80a0d08:	b183      	cbz	r3, 80a0d2c <_ZN10CloudClass13publish_eventEPKcS1_iN8particle5FlagsI15PublishFlagTypehEE+0xe8>
 80a0d0a:	9b03      	ldr	r3, [sp, #12]
 80a0d0c:	a904      	add	r1, sp, #16
 80a0d0e:	a806      	add	r0, sp, #24
 80a0d10:	9305      	str	r3, [sp, #20]
 80a0d12:	f7ff fe98 	bl	80a0a46 <_ZNSt14__shared_countILN9__gnu_cxx12_Lock_policyE0EEC1ERKS2_>
    bool isDone() const {
        return p_->isDone();
    }

    Future<ResultT, ContextT> future() const {
        return Future<ResultT, ContextT>(p_);
 80a0d16:	a905      	add	r1, sp, #20
 80a0d18:	4630      	mov	r0, r6
 80a0d1a:	f7ff fe83 	bl	80a0a24 <_ZN8particle6FutureIbNS_6detail13FutureContextEEC1ESt10shared_ptrINS1_10FutureImplIbS2_EEE>
      __shared_ptr& operator=(const __shared_ptr&) noexcept = default;
      ~__shared_ptr() = default;
 80a0d1e:	a806      	add	r0, sp, #24
 80a0d20:	f7ff fa78 	bl	80a0214 <_ZNSt14__shared_countILN9__gnu_cxx12_Lock_policyE0EED1Ev>
 80a0d24:	a804      	add	r0, sp, #16
 80a0d26:	f7ff fa75 	bl	80a0214 <_ZNSt14__shared_countILN9__gnu_cxx12_Lock_policyE0EED1Ev>
 80a0d2a:	e013      	b.n	80a0d54 <_ZN10CloudClass13publish_eventEPKcS1_iN8particle5FlagsI15PublishFlagTypehEE+0x110>
 80a0d2c:	f64f 739c 	movw	r3, #65436	; 0xff9c
        // Set generic error code in case completion callback wasn't invoked for some reason
        p.setError(Error::UNKNOWN);
 80a0d30:	a905      	add	r1, sp, #20
 80a0d32:	a803      	add	r0, sp, #12
 80a0d34:	9205      	str	r2, [sp, #20]
 80a0d36:	f8ad 3018 	strh.w	r3, [sp, #24]
 80a0d3a:	f7ff fefd 	bl	80a0b38 <_ZN8particle11PromiseBaseIbNS_6detail13FutureContextEE8setErrorENS_5ErrorE>
 80a0d3e:	a805      	add	r0, sp, #20
 80a0d40:	f7ff fe46 	bl	80a09d0 <_ZN8particle5ErrorD1Ev>
        p.fromDataPtr(d.handler_data); // Free wrapper object
 80a0d44:	a805      	add	r0, sp, #20
 80a0d46:	9909      	ldr	r1, [sp, #36]	; 0x24
 80a0d48:	f7ff fe84 	bl	80a0a54 <_ZN8particle11PromiseBaseIbNS_6detail13FutureContextEE11fromDataPtrEPv>
 80a0d4c:	a806      	add	r0, sp, #24
 80a0d4e:	f7ff fa61 	bl	80a0214 <_ZNSt14__shared_countILN9__gnu_cxx12_Lock_policyE0EED1Ev>
 80a0d52:	e7da      	b.n	80a0d0a <_ZN10CloudClass13publish_eventEPKcS1_iN8particle5FlagsI15PublishFlagTypehEE+0xc6>
    }

    return p.future();
}
 80a0d54:	4630      	mov	r0, r6
 80a0d56:	b00b      	add	sp, #44	; 0x2c
 80a0d58:	e8bd 8ff0 	ldmia.w	sp!, {r4, r5, r6, r7, r8, r9, sl, fp, pc}
 80a0d5c:	080a0ed1 	.word	0x080a0ed1

080a0d60 <_ZNSt14_Function_base13_Base_managerISt5_BindIFSt8functionIFvRKN8particle5ErrorEEES4_EEE10_M_managerERSt9_Any_dataRKSC_St18_Manager_operation>:
      public:
	static bool
	_M_manager(_Any_data& __dest, const _Any_data& __source,
		   _Manager_operation __op)
	{
	  switch (__op)
 80a0d60:	2a02      	cmp	r2, #2
	  delete __victim._M_access<_Functor*>();
	}

      public:
	static bool
	_M_manager(_Any_data& __dest, const _Any_data& __source,
 80a0d62:	b5f8      	push	{r3, r4, r5, r6, r7, lr}
 80a0d64:	4604      	mov	r4, r0
		   _Manager_operation __op)
	{
	  switch (__op)
 80a0d66:	d006      	beq.n	80a0d76 <_ZNSt14_Function_base13_Base_managerISt5_BindIFSt8functionIFvRKN8particle5ErrorEEES4_EEE10_M_managerERSt9_Any_dataRKSC_St18_Manager_operation+0x16>
 80a0d68:	2a03      	cmp	r2, #3
 80a0d6a:	d017      	beq.n	80a0d9c <_ZNSt14_Function_base13_Base_managerISt5_BindIFSt8functionIFvRKN8particle5ErrorEEES4_EEE10_M_managerERSt9_Any_dataRKSC_St18_Manager_operation+0x3c>
 80a0d6c:	2a01      	cmp	r2, #1
 80a0d6e:	d122      	bne.n	80a0db6 <_ZNSt14_Function_base13_Base_managerISt5_BindIFSt8functionIFvRKN8particle5ErrorEEES4_EEE10_M_managerERSt9_Any_dataRKSC_St18_Manager_operation+0x56>
	static _Functor*
	_M_get_pointer(const _Any_data& __source)
	{
	  const _Functor* __ptr =
	    __stored_locally? std::__addressof(__source._M_access<_Functor>())
	    /* have stored a pointer */ : __source._M_access<_Functor*>();
 80a0d70:	680b      	ldr	r3, [r1, #0]
	    case __get_type_info:
	      __dest._M_access<const type_info*>() = &typeid(_Functor);
	      break;
#endif
	    case __get_functor_ptr:
	      __dest._M_access<_Functor*>() = _M_get_pointer(__source);
 80a0d72:	6003      	str	r3, [r0, #0]
	      break;
 80a0d74:	e01f      	b.n	80a0db6 <_ZNSt14_Function_base13_Base_managerISt5_BindIFSt8functionIFvRKN8particle5ErrorEEES4_EEE10_M_managerERSt9_Any_dataRKSC_St18_Manager_operation+0x56>
	// Clone a function object that is not location-invariant or
	// that cannot fit into an _Any_data structure.
	static void
	_M_clone(_Any_data& __dest, const _Any_data& __source, false_type)
	{
	  __dest._M_access<_Functor*>() =
 80a0d76:	2018      	movs	r0, #24
 80a0d78:	680e      	ldr	r6, [r1, #0]
 80a0d7a:	f7ff f98e 	bl	80a009a <_Znwj>
 80a0d7e:	4605      	mov	r5, r0
 80a0d80:	b150      	cbz	r0, 80a0d98 <_ZNSt14_Function_base13_Base_managerISt5_BindIFSt8functionIFvRKN8particle5ErrorEEES4_EEE10_M_managerERSt9_Any_dataRKSC_St18_Manager_operation+0x38>
      template<typename... _Args>
	explicit _Bind(_Functor&& __f, _Args&&... __args)
	: _M_f(std::move(__f)), _M_bound_args(std::forward<_Args>(__args)...)
	{ }

      _Bind(const _Bind&) = default;
 80a0d82:	4631      	mov	r1, r6
 80a0d84:	f7ff fec8 	bl	80a0b18 <_ZNSt8functionIFvRKN8particle5ErrorEEEC1ERKS5_>
inline particle::Error::Error(const char* msg) :
        Error(UNKNOWN, msg) {
}

inline particle::Error::Error(const Error& error) :
        Error(error.type_, error.msg_) {
 80a0d88:	6930      	ldr	r0, [r6, #16]
 80a0d8a:	f9b6 7014 	ldrsh.w	r7, [r6, #20]
        type_(type) {
}

inline particle::Error::Error(Type type, const char* msg) :
        msg_(msg ? (const char*)strdup(msg) : nullptr),
        type_(type) {
 80a0d8e:	b108      	cbz	r0, 80a0d94 <_ZNSt14_Function_base13_Base_managerISt5_BindIFSt8functionIFvRKN8particle5ErrorEEES4_EEE10_M_managerERSt9_Any_dataRKSC_St18_Manager_operation+0x34>
 80a0d90:	f001 f840 	bl	80a1e14 <strdup>
 80a0d94:	6128      	str	r0, [r5, #16]
 80a0d96:	82af      	strh	r7, [r5, #20]
	// Clone a function object that is not location-invariant or
	// that cannot fit into an _Any_data structure.
	static void
	_M_clone(_Any_data& __dest, const _Any_data& __source, false_type)
	{
	  __dest._M_access<_Functor*>() =
 80a0d98:	6025      	str	r5, [r4, #0]
 80a0d9a:	e00c      	b.n	80a0db6 <_ZNSt14_Function_base13_Base_managerISt5_BindIFSt8functionIFvRKN8particle5ErrorEEES4_EEE10_M_managerERSt9_Any_dataRKSC_St18_Manager_operation+0x56>

	// Destroying an object located on the heap.
	static void
	_M_destroy(_Any_data& __victim, false_type)
	{
	  delete __victim._M_access<_Functor*>();
 80a0d9c:	6804      	ldr	r4, [r0, #0]
 80a0d9e:	b154      	cbz	r4, 80a0db6 <_ZNSt14_Function_base13_Base_managerISt5_BindIFSt8functionIFvRKN8particle5ErrorEEES4_EEE10_M_managerERSt9_Any_dataRKSC_St18_Manager_operation+0x56>
 80a0da0:	f104 0010 	add.w	r0, r4, #16
 80a0da4:	f7ff fe14 	bl	80a09d0 <_ZN8particle5ErrorD1Ev>
   *  @ingroup functors
   *
   *  Polymorphic function wrapper.
   */
  template<typename _Res, typename... _ArgTypes>
    class function<_Res(_ArgTypes...)>
 80a0da8:	4620      	mov	r0, r4
 80a0daa:	f7ff f9c5 	bl	80a0138 <_ZNSt14_Function_baseD1Ev>

	// Destroying an object located on the heap.
	static void
	_M_destroy(_Any_data& __victim, false_type)
	{
	  delete __victim._M_access<_Functor*>();
 80a0dae:	2118      	movs	r1, #24
 80a0db0:	4620      	mov	r0, r4
 80a0db2:	f000 fe7e 	bl	80a1ab2 <_ZdlPvj>
	    case __destroy_functor:
	      _M_destroy(__dest, _Local_storage());
	      break;
	    }
	  return false;
	}
 80a0db6:	2000      	movs	r0, #0
 80a0db8:	bdf8      	pop	{r3, r4, r5, r6, r7, pc}

080a0dba <_ZNSt8functionIFvRKbEEC1ERKS3_>:
      _Invoker_type _M_invoker;
  };

  // Out-of-line member definitions.
  template<typename _Res, typename... _ArgTypes>
    function<_Res(_ArgTypes...)>::
 80a0dba:	b538      	push	{r3, r4, r5, lr}
	{
	  _Base::_M_init_functor(__functor, std::__addressof(__f.get()));
	}
      };

    _Function_base() : _M_manager(nullptr) { }
 80a0dbc:	2300      	movs	r3, #0
 80a0dbe:	6083      	str	r3, [r0, #8]
 80a0dc0:	688b      	ldr	r3, [r1, #8]
      _Invoker_type _M_invoker;
  };

  // Out-of-line member definitions.
  template<typename _Res, typename... _ArgTypes>
    function<_Res(_ArgTypes...)>::
 80a0dc2:	4604      	mov	r4, r0
 80a0dc4:	460d      	mov	r5, r1
    function(const function& __x)
    : _Function_base()
    {
      if (static_cast<bool>(__x))
 80a0dc6:	b12b      	cbz	r3, 80a0dd4 <_ZNSt8functionIFvRKbEEC1ERKS3_+0x1a>
	{
	  __x._M_manager(_M_functor, __x._M_functor, __clone_functor);
 80a0dc8:	2202      	movs	r2, #2
 80a0dca:	4798      	blx	r3
	  _M_invoker = __x._M_invoker;
 80a0dcc:	68eb      	ldr	r3, [r5, #12]
 80a0dce:	60e3      	str	r3, [r4, #12]
	  _M_manager = __x._M_manager;
 80a0dd0:	68ab      	ldr	r3, [r5, #8]
 80a0dd2:	60a3      	str	r3, [r4, #8]
	}
    }
 80a0dd4:	4620      	mov	r0, r4
 80a0dd6:	bd38      	pop	{r3, r4, r5, pc}

080a0dd8 <_ZNSt14_Function_base13_Base_managerISt5_BindIFSt8functionIFvRKbEEbEEE10_M_managerERSt9_Any_dataRKSA_St18_Manager_operation>:
      public:
	static bool
	_M_manager(_Any_data& __dest, const _Any_data& __source,
		   _Manager_operation __op)
	{
	  switch (__op)
 80a0dd8:	2a02      	cmp	r2, #2
	  delete __victim._M_access<_Functor*>();
	}

      public:
	static bool
	_M_manager(_Any_data& __dest, const _Any_data& __source,
 80a0dda:	b570      	push	{r4, r5, r6, lr}
 80a0ddc:	4604      	mov	r4, r0
		   _Manager_operation __op)
	{
	  switch (__op)
 80a0dde:	d006      	beq.n	80a0dee <_ZNSt14_Function_base13_Base_managerISt5_BindIFSt8functionIFvRKbEEbEEE10_M_managerERSt9_Any_dataRKSA_St18_Manager_operation+0x16>
 80a0de0:	2a03      	cmp	r2, #3
 80a0de2:	d011      	beq.n	80a0e08 <_ZNSt14_Function_base13_Base_managerISt5_BindIFSt8functionIFvRKbEEbEEE10_M_managerERSt9_Any_dataRKSA_St18_Manager_operation+0x30>
 80a0de4:	2a01      	cmp	r2, #1
 80a0de6:	d118      	bne.n	80a0e1a <_ZNSt14_Function_base13_Base_managerISt5_BindIFSt8functionIFvRKbEEbEEE10_M_managerERSt9_Any_dataRKSA_St18_Manager_operation+0x42>
	static _Functor*
	_M_get_pointer(const _Any_data& __source)
	{
	  const _Functor* __ptr =
	    __stored_locally? std::__addressof(__source._M_access<_Functor>())
	    /* have stored a pointer */ : __source._M_access<_Functor*>();
 80a0de8:	680b      	ldr	r3, [r1, #0]
	    case __get_type_info:
	      __dest._M_access<const type_info*>() = &typeid(_Functor);
	      break;
#endif
	    case __get_functor_ptr:
	      __dest._M_access<_Functor*>() = _M_get_pointer(__source);
 80a0dea:	6003      	str	r3, [r0, #0]
	      break;
 80a0dec:	e015      	b.n	80a0e1a <_ZNSt14_Function_base13_Base_managerISt5_BindIFSt8functionIFvRKbEEbEEE10_M_managerERSt9_Any_dataRKSA_St18_Manager_operation+0x42>
	// Clone a function object that is not location-invariant or
	// that cannot fit into an _Any_data structure.
	static void
	_M_clone(_Any_data& __dest, const _Any_data& __source, false_type)
	{
	  __dest._M_access<_Functor*>() =
 80a0dee:	2014      	movs	r0, #20
 80a0df0:	680e      	ldr	r6, [r1, #0]
 80a0df2:	f7ff f952 	bl	80a009a <_Znwj>
 80a0df6:	4605      	mov	r5, r0
 80a0df8:	b120      	cbz	r0, 80a0e04 <_ZNSt14_Function_base13_Base_managerISt5_BindIFSt8functionIFvRKbEEbEEE10_M_managerERSt9_Any_dataRKSA_St18_Manager_operation+0x2c>
      template<typename... _Args>
	explicit _Bind(_Functor&& __f, _Args&&... __args)
	: _M_f(std::move(__f)), _M_bound_args(std::forward<_Args>(__args)...)
	{ }

      _Bind(const _Bind&) = default;
 80a0dfa:	4631      	mov	r1, r6
 80a0dfc:	f7ff ffdd 	bl	80a0dba <_ZNSt8functionIFvRKbEEC1ERKS3_>
 80a0e00:	7c33      	ldrb	r3, [r6, #16]
 80a0e02:	742b      	strb	r3, [r5, #16]
	// Clone a function object that is not location-invariant or
	// that cannot fit into an _Any_data structure.
	static void
	_M_clone(_Any_data& __dest, const _Any_data& __source, false_type)
	{
	  __dest._M_access<_Functor*>() =
 80a0e04:	6025      	str	r5, [r4, #0]
 80a0e06:	e008      	b.n	80a0e1a <_ZNSt14_Function_base13_Base_managerISt5_BindIFSt8functionIFvRKbEEbEEE10_M_managerERSt9_Any_dataRKSA_St18_Manager_operation+0x42>

	// Destroying an object located on the heap.
	static void
	_M_destroy(_Any_data& __victim, false_type)
	{
	  delete __victim._M_access<_Functor*>();
 80a0e08:	6804      	ldr	r4, [r0, #0]
 80a0e0a:	b134      	cbz	r4, 80a0e1a <_ZNSt14_Function_base13_Base_managerISt5_BindIFSt8functionIFvRKbEEbEEE10_M_managerERSt9_Any_dataRKSA_St18_Manager_operation+0x42>
   *  @ingroup functors
   *
   *  Polymorphic function wrapper.
   */
  template<typename _Res, typename... _ArgTypes>
    class function<_Res(_ArgTypes...)>
 80a0e0c:	4620      	mov	r0, r4
 80a0e0e:	f7ff f993 	bl	80a0138 <_ZNSt14_Function_baseD1Ev>

	// Destroying an object located on the heap.
	static void
	_M_destroy(_Any_data& __victim, false_type)
	{
	  delete __victim._M_access<_Functor*>();
 80a0e12:	2114      	movs	r1, #20
 80a0e14:	4620      	mov	r0, r4
 80a0e16:	f000 fe4c 	bl	80a1ab2 <_ZdlPvj>
	    case __destroy_functor:
	      _M_destroy(__dest, _Local_storage());
	      break;
	    }
	  return false;
	}
 80a0e1a:	2000      	movs	r0, #0
 80a0e1c:	bd70      	pop	{r4, r5, r6, pc}
	...

080a0e20 <_ZN8particle6detail14FutureImplBaseIbNS0_13FutureContextEE14invokeCallbackIFvRKbEIRbEEEvRSt6atomicIPSt8functionIT_EEDpOT0_>:
        delete callbackPtr; // Delete old callback
    }

    // Takes a callback from its atomic wrapper and invokes it
    template<typename FunctionT, typename... ArgsT>
    static void invokeCallback(std::atomic<std::function<FunctionT>*>& wrapper, ArgsT&&... args) {
 80a0e20:	b5f0      	push	{r4, r5, r6, r7, lr}
 80a0e22:	460c      	mov	r4, r1

      _GLIBCXX_ALWAYS_INLINE __pointer_type
      exchange(__pointer_type __p,
	       memory_order __m = memory_order_seq_cst) noexcept
      {
	return __atomic_exchange_n(&_M_p, __p, __m);
 80a0e24:	f3bf 8f5f 	dmb	sy
 80a0e28:	b087      	sub	sp, #28
 80a0e2a:	2300      	movs	r3, #0
 80a0e2c:	e850 6f00 	ldrex	r6, [r0]
 80a0e30:	e840 3200 	strex	r2, r3, [r0]
 80a0e34:	2a00      	cmp	r2, #0
 80a0e36:	d1f9      	bne.n	80a0e2c <_ZN8particle6detail14FutureImplBaseIbNS0_13FutureContextEE14invokeCallbackIFvRKbEIRbEEEvRSt6atomicIPSt8functionIT_EEDpOT0_+0xc>
 80a0e38:	f3bf 8f5f 	dmb	sy
        std::function<FunctionT>* callbackPtr = wrapper.exchange(nullptr, std::memory_order_acq_rel);
        if (callbackPtr) {
 80a0e3c:	2e00      	cmp	r6, #0
 80a0e3e:	d03f      	beq.n	80a0ec0 <_ZN8particle6detail14FutureImplBaseIbNS0_13FutureContextEE14invokeCallbackIFvRKbEIRbEEEvRSt6atomicIPSt8functionIT_EEDpOT0_+0xa0>
        return (application_thread_invoke(callback, data, nullptr) == 0);
    }

    // Returns true if current thread is the application thread
    static bool isApplicationThreadCurrent() {
        return (application_thread_current(nullptr) != 0);
 80a0e40:	4618      	mov	r0, r3
 80a0e42:	f7ff fcc5 	bl	80a07d0 <application_thread_current>
    }

    // Invokes std::function in the application context
    template<typename FunctionT, typename... ArgsT>
    static void invokeCallback(const std::function<FunctionT>& callback, ArgsT&&... args) {
        if (ContextT::isApplicationThreadCurrent()) {
 80a0e46:	4607      	mov	r7, r0
 80a0e48:	b120      	cbz	r0, 80a0e54 <_ZN8particle6detail14FutureImplBaseIbNS0_13FutureContextEE14invokeCallbackIFvRKbEIRbEEEvRSt6atomicIPSt8functionIT_EEDpOT0_+0x34>
            callback(std::forward<ArgsT>(args)...); // Synchronous call
 80a0e4a:	4621      	mov	r1, r4
 80a0e4c:	4630      	mov	r0, r6
 80a0e4e:	f7ff fe53 	bl	80a0af8 <_ZNKSt8functionIFvRKbEEclES1_>
 80a0e52:	e02e      	b.n	80a0eb2 <_ZN8particle6detail14FutureImplBaseIbNS0_13FutureContextEE14invokeCallbackIFvRKbEIRbEEEvRSt6atomicIPSt8functionIT_EEDpOT0_+0x92>
	}

     public:
      template<typename... _Args>
	explicit _Bind(const _Functor& __f, _Args&&... __args)
	: _M_f(__f), _M_bound_args(std::forward<_Args>(__args)...)
 80a0e54:	4631      	mov	r1, r6
 80a0e56:	a801      	add	r0, sp, #4
 80a0e58:	f7ff ffaf 	bl	80a0dba <_ZNSt8functionIFvRKbEEC1ERKS3_>
      constexpr _Head_base(const _Head_base&) = default;
      constexpr _Head_base(_Head_base&&) = default;

      template<typename _UHead>
        constexpr _Head_base(_UHead&& __h)
	: _M_head_impl(std::forward<_UHead>(__h)) { }
 80a0e5c:	7823      	ldrb	r3, [r4, #0]
        } else {
            // Bind all arguments and wrap resulting function into a pointer
            auto callbackPtr = new std::function<void()>(std::bind(callback, std::forward<ArgsT>(args)...));
 80a0e5e:	2010      	movs	r0, #16
 80a0e60:	f88d 3014 	strb.w	r3, [sp, #20]
 80a0e64:	f7ff f919 	bl	80a009a <_Znwj>
 80a0e68:	4605      	mov	r5, r0
 80a0e6a:	b1d0      	cbz	r0, 80a0ea2 <_ZN8particle6detail14FutureImplBaseIbNS0_13FutureContextEE14invokeCallbackIFvRKbEIRbEEEvRSt6atomicIPSt8functionIT_EEDpOT0_+0x82>
	{
	  _Base::_M_init_functor(__functor, std::__addressof(__f.get()));
	}
      };

    _Function_base() : _M_manager(nullptr) { }
 80a0e6c:	6087      	str	r7, [r0, #8]
	_M_init_functor(_Any_data& __functor, _Functor&& __f, true_type)
	{ new (__functor._M_access()) _Functor(std::move(__f)); }

	static void
	_M_init_functor(_Any_data& __functor, _Functor&& __f, false_type)
	{ __functor._M_access<_Functor*>() = new _Functor(std::move(__f)); }
 80a0e6e:	2014      	movs	r0, #20
 80a0e70:	f7ff f913 	bl	80a009a <_Znwj>
 80a0e74:	4604      	mov	r4, r0
 80a0e76:	b178      	cbz	r0, 80a0e98 <_ZN8particle6detail14FutureImplBaseIbNS0_13FutureContextEE14invokeCallbackIFvRKbEIRbEEEvRSt6atomicIPSt8functionIT_EEDpOT0_+0x78>
	{
	  _Base::_M_init_functor(__functor, std::__addressof(__f.get()));
	}
      };

    _Function_base() : _M_manager(nullptr) { }
 80a0e78:	6087      	str	r7, [r0, #8]
       *  Swap the targets of @c this function object and @a __f. This
       *  function will not throw an %exception.
       */
      void swap(function& __x)
      {
	std::swap(_M_functor, __x._M_functor);
 80a0e7a:	4601      	mov	r1, r0
 80a0e7c:	a801      	add	r0, sp, #4
 80a0e7e:	f7ff fe07 	bl	80a0a90 <_ZSt4swapISt9_Any_dataEvRT_S2_>
#endif
    {
      // concept requirements
      __glibcxx_function_requires(_SGIAssignableConcept<_Tp>)

      _Tp __tmp = _GLIBCXX_MOVE(__a);
 80a0e82:	9b03      	ldr	r3, [sp, #12]
      __a = _GLIBCXX_MOVE(__b);
 80a0e84:	68a2      	ldr	r2, [r4, #8]
      __b = _GLIBCXX_MOVE(__tmp);
 80a0e86:	60a3      	str	r3, [r4, #8]
#endif
    {
      // concept requirements
      __glibcxx_function_requires(_SGIAssignableConcept<_Tp>)

      _Tp __tmp = _GLIBCXX_MOVE(__a);
 80a0e88:	9b04      	ldr	r3, [sp, #16]
      __a = _GLIBCXX_MOVE(__b);
 80a0e8a:	9203      	str	r2, [sp, #12]
 80a0e8c:	68e2      	ldr	r2, [r4, #12]
      __b = _GLIBCXX_MOVE(__tmp);
 80a0e8e:	60e3      	str	r3, [r4, #12]
 80a0e90:	f89d 3014 	ldrb.w	r3, [sp, #20]
    {
      // concept requirements
      __glibcxx_function_requires(_SGIAssignableConcept<_Tp>)

      _Tp __tmp = _GLIBCXX_MOVE(__a);
      __a = _GLIBCXX_MOVE(__b);
 80a0e94:	9204      	str	r2, [sp, #16]
 80a0e96:	7423      	strb	r3, [r4, #16]
	typedef _Function_handler<_Signature_type, _Functor> _My_handler;

	if (_My_handler::_M_not_empty_function(__f))
	  {
	    _My_handler::_M_init_functor(_M_functor, std::move(__f));
	    _M_invoker = &_My_handler::_M_invoke;
 80a0e98:	4b0a      	ldr	r3, [pc, #40]	; (80a0ec4 <_ZN8particle6detail14FutureImplBaseIbNS0_13FutureContextEE14invokeCallbackIFvRKbEIRbEEEvRSt6atomicIPSt8functionIT_EEDpOT0_+0xa4>)
	_M_init_functor(_Any_data& __functor, _Functor&& __f, true_type)
	{ new (__functor._M_access()) _Functor(std::move(__f)); }

	static void
	_M_init_functor(_Any_data& __functor, _Functor&& __f, false_type)
	{ __functor._M_access<_Functor*>() = new _Functor(std::move(__f)); }
 80a0e9a:	602c      	str	r4, [r5, #0]
	typedef _Function_handler<_Signature_type, _Functor> _My_handler;

	if (_My_handler::_M_not_empty_function(__f))
	  {
	    _My_handler::_M_init_functor(_M_functor, std::move(__f));
	    _M_invoker = &_My_handler::_M_invoke;
 80a0e9c:	60eb      	str	r3, [r5, #12]
	    _M_manager = &_My_handler::_M_manager;
 80a0e9e:	4b0a      	ldr	r3, [pc, #40]	; (80a0ec8 <_ZN8particle6detail14FutureImplBaseIbNS0_13FutureContextEE14invokeCallbackIFvRKbEIRbEEEvRSt6atomicIPSt8functionIT_EEDpOT0_+0xa8>)
 80a0ea0:	60ab      	str	r3, [r5, #8]
   *  @ingroup functors
   *
   *  Polymorphic function wrapper.
   */
  template<typename _Res, typename... _ArgTypes>
    class function<_Res(_ArgTypes...)>
 80a0ea2:	a801      	add	r0, sp, #4
 80a0ea4:	f7ff f948 	bl	80a0138 <_ZNSt14_Function_baseD1Ev>
        spark_process();
    }

    // Asynchronously invokes a callback in the application context
    static bool invokeApplicationCallback(void (*callback)(void* data), void* data) {
        return (application_thread_invoke(callback, data, nullptr) == 0);
 80a0ea8:	2200      	movs	r2, #0
 80a0eaa:	4629      	mov	r1, r5
 80a0eac:	4807      	ldr	r0, [pc, #28]	; (80a0ecc <_ZN8particle6detail14FutureImplBaseIbNS0_13FutureContextEE14invokeCallbackIFvRKbEIRbEEEvRSt6atomicIPSt8functionIT_EEDpOT0_+0xac>)
 80a0eae:	f7ff fc97 	bl	80a07e0 <application_thread_invoke>
 80a0eb2:	4630      	mov	r0, r6
 80a0eb4:	f7ff f940 	bl	80a0138 <_ZNSt14_Function_baseD1Ev>
    template<typename FunctionT, typename... ArgsT>
    static void invokeCallback(std::atomic<std::function<FunctionT>*>& wrapper, ArgsT&&... args) {
        std::function<FunctionT>* callbackPtr = wrapper.exchange(nullptr, std::memory_order_acq_rel);
        if (callbackPtr) {
            invokeCallback(*callbackPtr, std::forward<ArgsT>(args)...);
            delete callbackPtr;
 80a0eb8:	2110      	movs	r1, #16
 80a0eba:	4630      	mov	r0, r6
 80a0ebc:	f000 fdf9 	bl	80a1ab2 <_ZdlPvj>
        }
    }
 80a0ec0:	b007      	add	sp, #28
 80a0ec2:	bdf0      	pop	{r4, r5, r6, r7, pc}
 80a0ec4:	080a0b0b 	.word	0x080a0b0b
 80a0ec8:	080a0dd9 	.word	0x080a0dd9
 80a0ecc:	080a096d 	.word	0x080a096d

080a0ed0 <_ZN12_GLOBAL__N_125publishCompletionCallbackEiPKvPvS2_>:

namespace {

using namespace particle;

void publishCompletionCallback(int error, const void* data, void* callbackData, void* reserved) {
 80a0ed0:	b530      	push	{r4, r5, lr}
 80a0ed2:	4604      	mov	r4, r0
 80a0ed4:	b085      	sub	sp, #20
 80a0ed6:	460d      	mov	r5, r1
    auto p = Promise<bool>::fromDataPtr(callbackData);
 80a0ed8:	4668      	mov	r0, sp
 80a0eda:	4611      	mov	r1, r2
 80a0edc:	f7ff fdba 	bl	80a0a54 <_ZN8particle11PromiseBaseIbNS_6detail13FutureContextEE11fromDataPtrEPv>
    if (error != Error::NONE) {
 80a0ee0:	b17c      	cbz	r4, 80a0f02 <_ZN12_GLOBAL__N_125publishCompletionCallbackEiPKvPvS2_+0x32>
        p.setError(Error((Error::Type)error, (const char*)data));
 80a0ee2:	b224      	sxth	r4, r4
 80a0ee4:	4628      	mov	r0, r5
 80a0ee6:	b10d      	cbz	r5, 80a0eec <_ZN12_GLOBAL__N_125publishCompletionCallbackEiPKvPvS2_+0x1c>
 80a0ee8:	f000 ff94 	bl	80a1e14 <strdup>
 80a0eec:	9002      	str	r0, [sp, #8]
 80a0eee:	a902      	add	r1, sp, #8
 80a0ef0:	4668      	mov	r0, sp
 80a0ef2:	f8ad 400c 	strh.w	r4, [sp, #12]
 80a0ef6:	f7ff fe1f 	bl	80a0b38 <_ZN8particle11PromiseBaseIbNS_6detail13FutureContextEE8setErrorENS_5ErrorE>
 80a0efa:	a802      	add	r0, sp, #8
 80a0efc:	f7ff fd68 	bl	80a09d0 <_ZN8particle5ErrorD1Ev>
 80a0f00:	e01d      	b.n	80a0f3e <_ZN12_GLOBAL__N_125publishCompletionCallbackEiPKvPvS2_+0x6e>

      bool
      compare_exchange_strong(_Tp& __e, _Tp __i, memory_order __s, 
			      memory_order __f) noexcept
      {
	return __atomic_compare_exchange(&_M_i, &__e, &__i, false, __s, __f);
 80a0f02:	f04f 0201 	mov.w	r2, #1
 80a0f06:	9800      	ldr	r0, [sp, #0]
            onSuccess_(nullptr),
            onError_(nullptr) {
    }

    bool changeState(State state) {
        State s = State::RUNNING; // Expected state
 80a0f08:	f88d 4008 	strb.w	r4, [sp, #8]
 80a0f0c:	e8d0 3f4f 	ldrexb	r3, [r0]
 80a0f10:	42a3      	cmp	r3, r4
 80a0f12:	d103      	bne.n	80a0f1c <_ZN12_GLOBAL__N_125publishCompletionCallbackEiPKvPvS2_+0x4c>
 80a0f14:	e8c0 2f41 	strexb	r1, r2, [r0]
 80a0f18:	2900      	cmp	r1, #0
 80a0f1a:	d1f7      	bne.n	80a0f0c <_ZN12_GLOBAL__N_125publishCompletionCallbackEiPKvPvS2_+0x3c>
 80a0f1c:	d002      	beq.n	80a0f24 <_ZN12_GLOBAL__N_125publishCompletionCallbackEiPKvPvS2_+0x54>
 80a0f1e:	f88d 3008 	strb.w	r3, [sp, #8]
 80a0f22:	e00c      	b.n	80a0f3e <_ZN12_GLOBAL__N_125publishCompletionCallbackEiPKvPvS2_+0x6e>
        }
    }

    void setResult(ResultT result) {
        if (this->changeState(State::SUCCEEDED)) {
            new(&result_) ResultT(std::move(result));
 80a0f24:	f110 010c 	adds.w	r1, r0, #12
 80a0f28:	f04f 0301 	mov.w	r3, #1
 80a0f2c:	bf18      	it	ne
 80a0f2e:	7303      	strbne	r3, [r0, #12]
        memory_order __b = __m & __memory_order_mask;
	__glibcxx_assert(__b != memory_order_acquire);
	__glibcxx_assert(__b != memory_order_acq_rel);
	__glibcxx_assert(__b != memory_order_consume);

	__atomic_store_n(&_M_i, __i, __m);
 80a0f30:	f3bf 8f5f 	dmb	sy
            this->releaseDone();
            this->invokeCallback(this->onSuccess_, result_);
 80a0f34:	3004      	adds	r0, #4
 80a0f36:	f800 3c03 	strb.w	r3, [r0, #-3]
 80a0f3a:	f7ff ff71 	bl	80a0e20 <_ZN8particle6detail14FutureImplBaseIbNS0_13FutureContextEE14invokeCallbackIFvRKbEIRbEEEvRSt6atomicIPSt8functionIT_EEDpOT0_>
 80a0f3e:	a801      	add	r0, sp, #4
 80a0f40:	f7ff f968 	bl	80a0214 <_ZNSt14__shared_countILN9__gnu_cxx12_Lock_policyE0EED1Ev>
    } else {
        p.setResult(true);
    }
}
 80a0f44:	b005      	add	sp, #20
 80a0f46:	bd30      	pop	{r4, r5, pc}

080a0f48 <_ZN7TwoWireD1Ev>:
private:
  HAL_I2C_Interface _i2c;

public:
  TwoWire(HAL_I2C_Interface i2c, const HAL_I2C_Config& config);
  virtual ~TwoWire() {};
 80a0f48:	4770      	bx	lr

080a0f4a <_ZN7TwoWire5writeEPKhj>:

// must be called in:
// slave tx event callback
// or after beginTransmission(address)
size_t TwoWire::write(const uint8_t *data, size_t quantity)
{
 80a0f4a:	b5f8      	push	{r3, r4, r5, r6, r7, lr}
 80a0f4c:	4606      	mov	r6, r0
 80a0f4e:	4615      	mov	r5, r2
 80a0f50:	460c      	mov	r4, r1
 80a0f52:	188f      	adds	r7, r1, r2
  // in master/slave transmitter mode
  for(size_t i = 0; i < quantity; ++i)
 80a0f54:	42bc      	cmp	r4, r7
 80a0f56:	d006      	beq.n	80a0f66 <_ZN7TwoWire5writeEPKhj+0x1c>
  {
    write(data[i]);
 80a0f58:	6833      	ldr	r3, [r6, #0]
 80a0f5a:	f814 1b01 	ldrb.w	r1, [r4], #1
 80a0f5e:	689b      	ldr	r3, [r3, #8]
 80a0f60:	4630      	mov	r0, r6
 80a0f62:	4798      	blx	r3
// slave tx event callback
// or after beginTransmission(address)
size_t TwoWire::write(const uint8_t *data, size_t quantity)
{
  // in master/slave transmitter mode
  for(size_t i = 0; i < quantity; ++i)
 80a0f64:	e7f6      	b.n	80a0f54 <_ZN7TwoWire5writeEPKhj+0xa>
  {
    write(data[i]);
  }

  return quantity;
}
 80a0f66:	4628      	mov	r0, r5
 80a0f68:	bdf8      	pop	{r3, r4, r5, r6, r7, pc}

080a0f6a <_ZN7TwoWire5writeEh>:
// must be called in:
// slave tx event callback
// or after beginTransmission(address)
size_t TwoWire::write(uint8_t data)
{
  return HAL_I2C_Write_Data(_i2c, data, NULL);
 80a0f6a:	2200      	movs	r2, #0
 80a0f6c:	7c00      	ldrb	r0, [r0, #16]
 80a0f6e:	f7ff bb5d 	b.w	80a062c <HAL_I2C_Write_Data>

080a0f72 <_ZN7TwoWire9availableEv>:
// must be called in:
// slave rx event callback
// or after requestFrom(address, numBytes)
int TwoWire::available(void)
{
  return HAL_I2C_Available_Data(_i2c, NULL);
 80a0f72:	2100      	movs	r1, #0
 80a0f74:	7c00      	ldrb	r0, [r0, #16]
 80a0f76:	f7ff bb61 	b.w	80a063c <HAL_I2C_Available_Data>

080a0f7a <_ZN7TwoWire4readEv>:
// must be called in:
// slave rx event callback
// or after requestFrom(address, numBytes)
int TwoWire::read(void)
{
  return HAL_I2C_Read_Data(_i2c, NULL);
 80a0f7a:	2100      	movs	r1, #0
 80a0f7c:	7c00      	ldrb	r0, [r0, #16]
 80a0f7e:	f7ff bb65 	b.w	80a064c <HAL_I2C_Read_Data>

080a0f82 <_ZN7TwoWire4peekEv>:
// must be called in:
// slave rx event callback
// or after requestFrom(address, numBytes)
int TwoWire::peek(void)
{
  return HAL_I2C_Peek_Data(_i2c, NULL);
 80a0f82:	2100      	movs	r1, #0
 80a0f84:	7c00      	ldrb	r0, [r0, #16]
 80a0f86:	f7ff bb69 	b.w	80a065c <HAL_I2C_Peek_Data>

080a0f8a <_ZN7TwoWire5flushEv>:
}

void TwoWire::flush(void)
{
  HAL_I2C_Flush_Data(_i2c, NULL);
 80a0f8a:	2100      	movs	r1, #0
 80a0f8c:	7c00      	ldrb	r0, [r0, #16]
 80a0f8e:	f7ff bb6d 	b.w	80a066c <HAL_I2C_Flush_Data>

080a0f92 <_ZN7TwoWireD0Ev>:
 80a0f92:	b510      	push	{r4, lr}
 80a0f94:	4604      	mov	r4, r0
 80a0f96:	2114      	movs	r1, #20
 80a0f98:	f000 fd8b 	bl	80a1ab2 <_ZdlPvj>
 80a0f9c:	4620      	mov	r0, r4
 80a0f9e:	bd10      	pop	{r4, pc}

080a0fa0 <_ZN7TwoWireC1E17HAL_I2C_InterfaceRK14HAL_I2C_Config>:
#include "i2c_hal.h"
#include "spark_wiring_thread.h"

// Constructors ////////////////////////////////////////////////////////////////

TwoWire::TwoWire(HAL_I2C_Interface i2c, const HAL_I2C_Config& conf)
 80a0fa0:	b510      	push	{r4, lr}
 80a0fa2:	4604      	mov	r4, r0
  protected:
    void setWriteError(int err = 1) { write_error = err; }
    size_t printf_impl(bool newline, const char* format, ...);

  public:
    Print() : write_error(0) {}
 80a0fa4:	2300      	movs	r3, #0
 80a0fa6:	6063      	str	r3, [r4, #4]
    virtual int available() = 0;
    virtual int read() = 0;
    virtual int peek() = 0;
    virtual void flush() = 0;

    Stream() {_timeout=1000;}
 80a0fa8:	f44f 737a 	mov.w	r3, #1000	; 0x3e8
 80a0fac:	60a3      	str	r3, [r4, #8]
 80a0fae:	4b04      	ldr	r3, [pc, #16]	; (80a0fc0 <_ZN7TwoWireC1E17HAL_I2C_InterfaceRK14HAL_I2C_Config+0x20>)
{
  _i2c = i2c;
 80a0fb0:	7421      	strb	r1, [r4, #16]
#include "i2c_hal.h"
#include "spark_wiring_thread.h"

// Constructors ////////////////////////////////////////////////////////////////

TwoWire::TwoWire(HAL_I2C_Interface i2c, const HAL_I2C_Config& conf)
 80a0fb2:	4608      	mov	r0, r1
 80a0fb4:	6023      	str	r3, [r4, #0]
{
  _i2c = i2c;
  HAL_I2C_Init(_i2c, &conf);
 80a0fb6:	4611      	mov	r1, r2
 80a0fb8:	f7ff fb68 	bl	80a068c <HAL_I2C_Init>
}
 80a0fbc:	4620      	mov	r0, r4
 80a0fbe:	bd10      	pop	{r4, pc}
 80a0fc0:	080a1ee0 	.word	0x080a1ee0

080a0fc4 <_ZN7TwoWire9isEnabledEv>:
  HAL_I2C_Set_Callback_On_Request(_i2c, function, NULL);
}

bool TwoWire::isEnabled()
{
  return HAL_I2C_Is_Enabled(_i2c, NULL);
 80a0fc4:	2100      	movs	r1, #0
 80a0fc6:	7c00      	ldrb	r0, [r0, #16]
 80a0fc8:	f7ff bb58 	b.w	80a067c <HAL_I2C_Is_Enabled>

080a0fcc <_Z26call_raw_interrupt_handlerPv>:
}

void call_raw_interrupt_handler(void* data)
{
    raw_interrupt_handler_t handler = raw_interrupt_handler_t(data);
    handler();
 80a0fcc:	4700      	bx	r0
	...

080a0fd0 <_Z15attachInterrupttPFvvE13InterruptModeah>:
    }
    return handler!=NULL;
}

bool attachInterrupt(uint16_t pin, raw_interrupt_handler_t handler, InterruptMode mode, int8_t priority, uint8_t subpriority)
{
 80a0fd0:	b5f0      	push	{r4, r5, r6, r7, lr}
 80a0fd2:	461c      	mov	r4, r3
 80a0fd4:	b085      	sub	sp, #20
 80a0fd6:	460e      	mov	r6, r1
 80a0fd8:	4617      	mov	r7, r2
 80a0fda:	4605      	mov	r5, r0
    HAL_Interrupts_Detach(pin);
 80a0fdc:	f7ff fb1e 	bl	80a061c <HAL_Interrupts_Detach>
    HAL_InterruptExtraConfiguration extra = {0};
 80a0fe0:	2000      	movs	r0, #0
 *******************************************************************************/

HAL_InterruptExtraConfiguration* configure_interrupt(HAL_InterruptExtraConfiguration& extra, int8_t priority, uint8_t subpriority)
{
  extra.version = HAL_INTERRUPT_EXTRA_CONFIGURATION_VERSION_1;
  if (priority >= 0) {
 80a0fe2:	4284      	cmp	r4, r0
 * Return         : true if function handler was allocated, false otherwise.
 *******************************************************************************/

HAL_InterruptExtraConfiguration* configure_interrupt(HAL_InterruptExtraConfiguration& extra, int8_t priority, uint8_t subpriority)
{
  extra.version = HAL_INTERRUPT_EXTRA_CONFIGURATION_VERSION_1;
 80a0fe4:	f04f 0304 	mov.w	r3, #4
}

bool attachInterrupt(uint16_t pin, raw_interrupt_handler_t handler, InterruptMode mode, int8_t priority, uint8_t subpriority)
{
    HAL_Interrupts_Detach(pin);
    HAL_InterruptExtraConfiguration extra = {0};
 80a0fe8:	9003      	str	r0, [sp, #12]
 * Return         : true if function handler was allocated, false otherwise.
 *******************************************************************************/

HAL_InterruptExtraConfiguration* configure_interrupt(HAL_InterruptExtraConfiguration& extra, int8_t priority, uint8_t subpriority)
{
  extra.version = HAL_INTERRUPT_EXTRA_CONFIGURATION_VERSION_1;
 80a0fea:	f88d 300c 	strb.w	r3, [sp, #12]
  if (priority >= 0) {
    extra.IRQChannelPreemptionPriority = (uint8_t)priority;
    extra.IRQChannelSubPriority = subpriority;
    return &extra;
  }
  return nullptr;
 80a0fee:	bfb4      	ite	lt
 80a0ff0:	4603      	movlt	r3, r0
HAL_InterruptExtraConfiguration* configure_interrupt(HAL_InterruptExtraConfiguration& extra, int8_t priority, uint8_t subpriority)
{
  extra.version = HAL_INTERRUPT_EXTRA_CONFIGURATION_VERSION_1;
  if (priority >= 0) {
    extra.IRQChannelPreemptionPriority = (uint8_t)priority;
    extra.IRQChannelSubPriority = subpriority;
 80a0ff2:	f89d 3028 	ldrbge.w	r3, [sp, #40]	; 0x28

bool attachInterrupt(uint16_t pin, raw_interrupt_handler_t handler, InterruptMode mode, int8_t priority, uint8_t subpriority)
{
    HAL_Interrupts_Detach(pin);
    HAL_InterruptExtraConfiguration extra = {0};
    if (SYSTEM_ERROR_NONE != HAL_Interrupts_Attach(pin, call_raw_interrupt_handler, (void*)handler, mode, configure_interrupt(extra, priority, subpriority))) {
 80a0ff6:	4632      	mov	r2, r6
HAL_InterruptExtraConfiguration* configure_interrupt(HAL_InterruptExtraConfiguration& extra, int8_t priority, uint8_t subpriority)
{
  extra.version = HAL_INTERRUPT_EXTRA_CONFIGURATION_VERSION_1;
  if (priority >= 0) {
    extra.IRQChannelPreemptionPriority = (uint8_t)priority;
    extra.IRQChannelSubPriority = subpriority;
 80a0ff8:	bfa4      	itt	ge
 80a0ffa:	f88d 300e 	strbge.w	r3, [sp, #14]
    return &extra;
 80a0ffe:	ab03      	addge	r3, sp, #12

bool attachInterrupt(uint16_t pin, raw_interrupt_handler_t handler, InterruptMode mode, int8_t priority, uint8_t subpriority)
{
    HAL_Interrupts_Detach(pin);
    HAL_InterruptExtraConfiguration extra = {0};
    if (SYSTEM_ERROR_NONE != HAL_Interrupts_Attach(pin, call_raw_interrupt_handler, (void*)handler, mode, configure_interrupt(extra, priority, subpriority))) {
 80a1000:	9300      	str	r3, [sp, #0]
 80a1002:	4906      	ldr	r1, [pc, #24]	; (80a101c <_Z15attachInterrupttPFvvE13InterruptModeah+0x4c>)
 80a1004:	463b      	mov	r3, r7
 80a1006:	4628      	mov	r0, r5

HAL_InterruptExtraConfiguration* configure_interrupt(HAL_InterruptExtraConfiguration& extra, int8_t priority, uint8_t subpriority)
{
  extra.version = HAL_INTERRUPT_EXTRA_CONFIGURATION_VERSION_1;
  if (priority >= 0) {
    extra.IRQChannelPreemptionPriority = (uint8_t)priority;
 80a1008:	bfa8      	it	ge
 80a100a:	f88d 400d 	strbge.w	r4, [sp, #13]

bool attachInterrupt(uint16_t pin, raw_interrupt_handler_t handler, InterruptMode mode, int8_t priority, uint8_t subpriority)
{
    HAL_Interrupts_Detach(pin);
    HAL_InterruptExtraConfiguration extra = {0};
    if (SYSTEM_ERROR_NONE != HAL_Interrupts_Attach(pin, call_raw_interrupt_handler, (void*)handler, mode, configure_interrupt(extra, priority, subpriority))) {
 80a100e:	f7ff fafd 	bl	80a060c <HAL_Interrupts_Attach>
        return false;
    }
    return true;
}
 80a1012:	fab0 f080 	clz	r0, r0
 80a1016:	0940      	lsrs	r0, r0, #5
 80a1018:	b005      	add	sp, #20
 80a101a:	bdf0      	pop	{r4, r5, r6, r7, pc}
 80a101c:	080a0fcd 	.word	0x080a0fcd

080a1020 <_Z15detachInterruptt>:
 * Input          : pin number to which the interrupt was attached
 * Output         : None.
 * Return         : true or false
 *******************************************************************************/
bool detachInterrupt(uint16_t pin)
{
 80a1020:	b5f8      	push	{r3, r4, r5, r6, r7, lr}
 80a1022:	4606      	mov	r6, r0
    if (SYSTEM_ERROR_NONE != HAL_Interrupts_Detach(pin)) {
 80a1024:	f7ff fafa 	bl	80a061c <HAL_Interrupts_Detach>
 80a1028:	4607      	mov	r7, r0
 80a102a:	b968      	cbnz	r0, 80a1048 <_Z15detachInterruptt+0x28>
        return false;
    }
    if (handlers[pin]) {
 80a102c:	4d08      	ldr	r5, [pc, #32]	; (80a1050 <_Z15detachInterruptt+0x30>)
 80a102e:	f855 4026 	ldr.w	r4, [r5, r6, lsl #2]
 80a1032:	b15c      	cbz	r4, 80a104c <_Z15detachInterruptt+0x2c>
 80a1034:	4620      	mov	r0, r4
 80a1036:	f7ff f87f 	bl	80a0138 <_ZNSt14_Function_baseD1Ev>
        delete handlers[pin];
 80a103a:	2110      	movs	r1, #16
 80a103c:	4620      	mov	r0, r4
 80a103e:	f000 fd38 	bl	80a1ab2 <_ZdlPvj>
        handlers[pin] = nullptr;
 80a1042:	f845 7026 	str.w	r7, [r5, r6, lsl #2]
 80a1046:	e001      	b.n	80a104c <_Z15detachInterruptt+0x2c>
 * Return         : true or false
 *******************************************************************************/
bool detachInterrupt(uint16_t pin)
{
    if (SYSTEM_ERROR_NONE != HAL_Interrupts_Detach(pin)) {
        return false;
 80a1048:	2000      	movs	r0, #0
 80a104a:	bdf8      	pop	{r3, r4, r5, r6, r7, pc}
    }
    if (handlers[pin]) {
        delete handlers[pin];
        handlers[pin] = nullptr;
    }
    return true;
 80a104c:	2001      	movs	r0, #1
}
 80a104e:	bdf8      	pop	{r3, r4, r5, r6, r7, pc}
 80a1050:	200000b8 	.word	0x200000b8

080a1054 <_ZN9IPAddressD1Ev>:
    IPAddress(uint8_t first_octet, uint8_t second_octet, uint8_t third_octet, uint8_t fourth_octet);
    IPAddress(uint32_t address);
    IPAddress(const uint8_t* address);
    IPAddress(const HAL_IPAddress& address);

    virtual ~IPAddress() {}
 80a1054:	4770      	bx	lr

080a1056 <_ZN9IPAddressD0Ev>:
 80a1056:	b510      	push	{r4, lr}
 80a1058:	4604      	mov	r4, r0
 80a105a:	2118      	movs	r1, #24
 80a105c:	f000 fd29 	bl	80a1ab2 <_ZdlPvj>
 80a1060:	4620      	mov	r0, r4
 80a1062:	bd10      	pop	{r4, pc}

080a1064 <_ZNK9IPAddress7printToER5Print>:
#endif // Wiring_IPv6
	return address.ipv4==that.address.ipv4;
}

size_t IPAddress::printTo(Print& p) const
{
 80a1064:	b5f8      	push	{r3, r4, r5, r6, r7, lr}
 80a1066:	460f      	mov	r7, r1
 80a1068:	f100 0608 	add.w	r6, r0, #8
 80a106c:	1d05      	adds	r5, r0, #4
 80a106e:	2400      	movs	r4, #0
            t = print('-');
            val = -n;
        } else {
            val = n;
        }
        return printNumber(val, base) + t;
 80a1070:	f816 1d01 	ldrb.w	r1, [r6, #-1]!
 80a1074:	220a      	movs	r2, #10
 80a1076:	4638      	mov	r0, r7
 80a1078:	f000 f8e7 	bl	80a124a <_ZN5Print11printNumberEmh>
#else
#pragma message "HAL_USE_INET_HAL_POSIX is required for IPv6 support in IPAddress::printTo()"
#endif // HAL_USE_INET_HAL_POSIX
#endif // Wiring_IPv6
    size_t n = 0;
    for (int i = 0; i < 4; i++)
 80a107c:	42ae      	cmp	r6, r5
    {
        if (n)
            n += p.print('.');
        n += p.print((*this)[i], DEC);
 80a107e:	4404      	add	r4, r0
#else
#pragma message "HAL_USE_INET_HAL_POSIX is required for IPv6 support in IPAddress::printTo()"
#endif // HAL_USE_INET_HAL_POSIX
#endif // Wiring_IPv6
    size_t n = 0;
    for (int i = 0; i < 4; i++)
 80a1080:	d007      	beq.n	80a1092 <_ZNK9IPAddress7printToER5Print+0x2e>
    {
        if (n)
 80a1082:	2c00      	cmp	r4, #0
 80a1084:	d0f4      	beq.n	80a1070 <_ZNK9IPAddress7printToER5Print+0xc>
            n += p.print('.');
 80a1086:	212e      	movs	r1, #46	; 0x2e
 80a1088:	4638      	mov	r0, r7
 80a108a:	f000 f8db 	bl	80a1244 <_ZN5Print5printEc>
 80a108e:	4404      	add	r4, r0
 80a1090:	e7ee      	b.n	80a1070 <_ZNK9IPAddress7printToER5Print+0xc>
        n += p.print((*this)[i], DEC);
    }
    return n;
}
 80a1092:	4620      	mov	r0, r4
 80a1094:	bdf8      	pop	{r3, r4, r5, r6, r7, pc}
	...

080a1098 <_ZN9IPAddressC1Ev>:

#if HAL_USE_INET_HAL_POSIX
#include <arpa/inet.h>
#endif // HAL_USE_INET_HAL_POSIX

IPAddress::IPAddress()
 80a1098:	b510      	push	{r4, lr}
 80a109a:	4604      	mov	r4, r0
 80a109c:	4b04      	ldr	r3, [pc, #16]	; (80a10b0 <_ZN9IPAddressC1Ev+0x18>)
        return address;
    }

    virtual size_t printTo(Print& p) const;

    void clear() { memset(&address, 0, sizeof (address)); }
 80a109e:	2211      	movs	r2, #17
 80a10a0:	f840 3b04 	str.w	r3, [r0], #4
 80a10a4:	2100      	movs	r1, #0
 80a10a6:	f000 fe84 	bl	80a1db2 <memset>
{
    clear();
}
 80a10aa:	4620      	mov	r0, r4
 80a10ac:	bd10      	pop	{r4, pc}
 80a10ae:	bf00      	nop
 80a10b0:	080a1f08 	.word	0x080a1f08

080a10b4 <_ZN9IPAddressC1ERK16_HAL_IPAddress_t>:

IPAddress::IPAddress(const HAL_IPAddress& address)
 80a10b4:	4603      	mov	r3, r0
 80a10b6:	4a07      	ldr	r2, [pc, #28]	; (80a10d4 <_ZN9IPAddressC1ERK16_HAL_IPAddress_t+0x20>)
 80a10b8:	b510      	push	{r4, lr}
 80a10ba:	f843 2b04 	str.w	r2, [r3], #4
{
    memcpy(&this->address, &address, sizeof(address));
 80a10be:	f101 0210 	add.w	r2, r1, #16
 80a10c2:	f851 4b04 	ldr.w	r4, [r1], #4
 80a10c6:	4291      	cmp	r1, r2
 80a10c8:	f843 4b04 	str.w	r4, [r3], #4
 80a10cc:	d1f9      	bne.n	80a10c2 <_ZN9IPAddressC1ERK16_HAL_IPAddress_t+0xe>
 80a10ce:	780a      	ldrb	r2, [r1, #0]
 80a10d0:	701a      	strb	r2, [r3, #0]
}
 80a10d2:	bd10      	pop	{r4, pc}
 80a10d4:	080a1f08 	.word	0x080a1f08

080a10d8 <_ZN9IPAddressC1Em>:
IPAddress::IPAddress(uint8_t first_octet, uint8_t second_octet, uint8_t third_octet, uint8_t fourth_octet)
{
    set_ipv4(first_octet, second_octet, third_octet, fourth_octet);
}

IPAddress::IPAddress(uint32_t address)
 80a10d8:	4a02      	ldr	r2, [pc, #8]	; (80a10e4 <_ZN9IPAddressC1Em+0xc>)
    return *this;
}

IPAddress& IPAddress::operator=(uint32_t ipv4)
{
    address.ipv4 = ipv4;
 80a10da:	6041      	str	r1, [r0, #4]
IPAddress::IPAddress(uint8_t first_octet, uint8_t second_octet, uint8_t third_octet, uint8_t fourth_octet)
{
    set_ipv4(first_octet, second_octet, third_octet, fourth_octet);
}

IPAddress::IPAddress(uint32_t address)
 80a10dc:	6002      	str	r2, [r0, #0]
        return &address;
    }

    inline void setVersion(uint8_t version) {
#if HAL_IPv6
        address.v = version;
 80a10de:	2204      	movs	r2, #4
 80a10e0:	7502      	strb	r2, [r0, #20]
{
    *this = address;
}
 80a10e2:	4770      	bx	lr
 80a10e4:	080a1f08 	.word	0x080a1f08

080a10e8 <_ZN9IPAddress8set_ipv4Ehhhh>:
    return address.ipv4!=0;
#endif
}

void IPAddress::set_ipv4(uint8_t b0, uint8_t b1, uint8_t b2, uint8_t b3)
{
 80a10e8:	b510      	push	{r4, lr}
    address.ipv4 = b0<<24 | b1 << 16 | b2 << 8 | b3;
 80a10ea:	f89d 4008 	ldrb.w	r4, [sp, #8]
 80a10ee:	ea44 2303 	orr.w	r3, r4, r3, lsl #8
 80a10f2:	ea43 4202 	orr.w	r2, r3, r2, lsl #16
 80a10f6:	ea42 6101 	orr.w	r1, r2, r1, lsl #24
 80a10fa:	2304      	movs	r3, #4
 80a10fc:	6041      	str	r1, [r0, #4]
 80a10fe:	7503      	strb	r3, [r0, #20]
 80a1100:	bd10      	pop	{r4, pc}
	...

080a1104 <_ZN9IPAddressC1Ehhhh>:
{
    memcpy(&this->address, &address, sizeof(address));
}


IPAddress::IPAddress(uint8_t first_octet, uint8_t second_octet, uint8_t third_octet, uint8_t fourth_octet)
 80a1104:	b537      	push	{r0, r1, r2, r4, r5, lr}
 80a1106:	4d04      	ldr	r5, [pc, #16]	; (80a1118 <_ZN9IPAddressC1Ehhhh+0x14>)
 80a1108:	6005      	str	r5, [r0, #0]
{
    set_ipv4(first_octet, second_octet, third_octet, fourth_octet);
 80a110a:	f89d 5018 	ldrb.w	r5, [sp, #24]
 80a110e:	9500      	str	r5, [sp, #0]
 80a1110:	f7ff ffea 	bl	80a10e8 <_ZN9IPAddress8set_ipv4Ehhhh>
}
 80a1114:	b003      	add	sp, #12
 80a1116:	bd30      	pop	{r4, r5, pc}
 80a1118:	080a1f08 	.word	0x080a1f08

080a111c <_GLOBAL__sub_I__ZN5spark3LogE>:
    // This handler doesn't support direct logging
}

// spark::Logger
inline spark::Logger::Logger(const char *name) :
        name_(name) {
 80a111c:	4a01      	ldr	r2, [pc, #4]	; (80a1124 <_GLOBAL__sub_I__ZN5spark3LogE+0x8>)
 80a111e:	4b02      	ldr	r3, [pc, #8]	; (80a1128 <_GLOBAL__sub_I__ZN5spark3LogE+0xc>)
 80a1120:	601a      	str	r2, [r3, #0]
 80a1122:	4770      	bx	lr
 80a1124:	080a1f8a 	.word	0x080a1f8a
 80a1128:	20000118 	.word	0x20000118

080a112c <_ZN5spark12NetworkClass7connectEj>:
        return Network;
    }
}

void NetworkClass::connect(unsigned flags) {
    network_connect(*this, flags, 0, nullptr);
 80a112c:	2300      	movs	r3, #0
 80a112e:	461a      	mov	r2, r3
 80a1130:	6840      	ldr	r0, [r0, #4]
 80a1132:	f7ff bbab 	b.w	80a088c <network_connect>

080a1136 <_ZN5spark12NetworkClass10disconnectEv>:
}

void NetworkClass::disconnect() {
    network_disconnect(*this, NETWORK_DISCONNECT_REASON_USER, nullptr);
 80a1136:	2200      	movs	r2, #0
 80a1138:	2102      	movs	r1, #2
 80a113a:	6840      	ldr	r0, [r0, #4]
 80a113c:	f7ff bbb6 	b.w	80a08ac <network_disconnect>

080a1140 <_ZN5spark12NetworkClass10connectingEv>:
}

bool NetworkClass::connecting() {
    return network_connecting(*this, 0, nullptr);
 80a1140:	2200      	movs	r2, #0
 80a1142:	4611      	mov	r1, r2
 80a1144:	6840      	ldr	r0, [r0, #4]
 80a1146:	f7ff bba9 	b.w	80a089c <network_connecting>

080a114a <_ZN5spark12NetworkClass5readyEv>:
}

bool NetworkClass::ready() {
    return network_ready(*this, 0, nullptr);
 80a114a:	2200      	movs	r2, #0
 80a114c:	4611      	mov	r1, r2
 80a114e:	6840      	ldr	r0, [r0, #4]
 80a1150:	f7ff bbb4 	b.w	80a08bc <network_ready>

080a1154 <_ZN5spark12NetworkClass2onEv>:
}

void NetworkClass::on() {
    network_on(*this, 0, 0, nullptr);
 80a1154:	2300      	movs	r3, #0
 80a1156:	461a      	mov	r2, r3
 80a1158:	4619      	mov	r1, r3
 80a115a:	6840      	ldr	r0, [r0, #4]
 80a115c:	f7ff bbb6 	b.w	80a08cc <network_on>

080a1160 <_ZN5spark12NetworkClass3offEv>:
}

void NetworkClass::off() {
    network_off(*this, 0, 0, nullptr);
 80a1160:	2300      	movs	r3, #0
 80a1162:	461a      	mov	r2, r3
 80a1164:	4619      	mov	r1, r3
 80a1166:	6840      	ldr	r0, [r0, #4]
 80a1168:	f7ff bbb8 	b.w	80a08dc <network_off>

080a116c <_ZN5spark12NetworkClass6listenEb>:
}

void NetworkClass::listen(bool begin) {
    network_listen(*this, begin ? 0 : 1, nullptr);
 80a116c:	2200      	movs	r2, #0
 80a116e:	f081 0101 	eor.w	r1, r1, #1
 80a1172:	6840      	ldr	r0, [r0, #4]
 80a1174:	f7ff bbba 	b.w	80a08ec <network_listen>

080a1178 <_ZN5spark12NetworkClass16setListenTimeoutEt>:
}

void NetworkClass::setListenTimeout(uint16_t timeout) {
    network_set_listen_timeout(*this, timeout, nullptr);
 80a1178:	2200      	movs	r2, #0
 80a117a:	6840      	ldr	r0, [r0, #4]
 80a117c:	f7ff bbc6 	b.w	80a090c <network_set_listen_timeout>

080a1180 <_ZN5spark12NetworkClass16getListenTimeoutEv>:
}

uint16_t NetworkClass::getListenTimeout() {
    return network_get_listen_timeout(*this, 0, nullptr);
 80a1180:	2200      	movs	r2, #0
 80a1182:	4611      	mov	r1, r2
 80a1184:	6840      	ldr	r0, [r0, #4]
 80a1186:	f7ff bbc9 	b.w	80a091c <network_get_listen_timeout>

080a118a <_ZN5spark12NetworkClass9listeningEv>:
}

bool NetworkClass::listening() {
    return network_listening(*this, 0, nullptr);
 80a118a:	2200      	movs	r2, #0
 80a118c:	4611      	mov	r1, r2
 80a118e:	6840      	ldr	r0, [r0, #4]
 80a1190:	f7ff bbb4 	b.w	80a08fc <network_listening>

080a1194 <_ZN5spark12NetworkClass7resolveEPKc>:
}

IPAddress NetworkClass::resolve(const char* name) {
 80a1194:	b570      	push	{r4, r5, r6, lr}
 80a1196:	4616      	mov	r6, r2
 80a1198:	b08e      	sub	sp, #56	; 0x38
 80a119a:	4604      	mov	r4, r0
    IPAddress addr;
 80a119c:	a808      	add	r0, sp, #32
 80a119e:	f7ff ff7b 	bl	80a1098 <_ZN9IPAddressC1Ev>
    }

#if !HAL_USE_INET_HAL_POSIX
    IPAddress resolve(const char* name)
    {
        HAL_IPAddress ip = {};
 80a11a2:	2211      	movs	r2, #17
 80a11a4:	2100      	movs	r1, #0
 80a11a6:	a803      	add	r0, sp, #12
 80a11a8:	f000 fe03 	bl	80a1db2 <memset>
        return (inet_gethostbyname(name, strlen(name), &ip, *this, NULL) != 0) ?
 80a11ac:	4630      	mov	r0, r6
 80a11ae:	f000 fe4c 	bl	80a1e4a <strlen>
 80a11b2:	2500      	movs	r5, #0
 80a11b4:	4b0a      	ldr	r3, [pc, #40]	; (80a11e0 <_ZN5spark12NetworkClass7resolveEPKc+0x4c>)
 80a11b6:	9500      	str	r5, [sp, #0]
 80a11b8:	b281      	uxth	r1, r0
 80a11ba:	685b      	ldr	r3, [r3, #4]
 80a11bc:	aa03      	add	r2, sp, #12
 80a11be:	4630      	mov	r0, r6
 80a11c0:	f7ff faee 	bl	80a07a0 <inet_gethostbyname>
                IPAddress(uint32_t(0)) : IPAddress(ip);
 80a11c4:	b120      	cbz	r0, 80a11d0 <_ZN5spark12NetworkClass7resolveEPKc+0x3c>
 80a11c6:	4629      	mov	r1, r5
 80a11c8:	4620      	mov	r0, r4
 80a11ca:	f7ff ff85 	bl	80a10d8 <_ZN9IPAddressC1Em>
 80a11ce:	e003      	b.n	80a11d8 <_ZN5spark12NetworkClass7resolveEPKc+0x44>
 80a11d0:	a903      	add	r1, sp, #12
 80a11d2:	4620      	mov	r0, r4
 80a11d4:	f7ff ff6e 	bl	80a10b4 <_ZN9IPAddressC1ERK16_HAL_IPAddress_t>
    return Cellular.resolve(name);
#endif // Wiring_Cellular

#endif // HAL_USE_INET_HAL_POSIX
    return addr;
}
 80a11d8:	4620      	mov	r0, r4
 80a11da:	b00e      	add	sp, #56	; 0x38
 80a11dc:	bd70      	pop	{r4, r5, r6, pc}
 80a11de:	bf00      	nop
 80a11e0:	200005a0 	.word	0x200005a0

080a11e4 <_GLOBAL__sub_I__ZN5spark7NetworkE>:
    static NetworkClass& from(network_interface_t nif);

    virtual IPAddress resolve(const char* name);

    explicit NetworkClass(network_interface_t iface)
            : iface_(iface) {
 80a11e4:	4b02      	ldr	r3, [pc, #8]	; (80a11f0 <_GLOBAL__sub_I__ZN5spark7NetworkE+0xc>)
 80a11e6:	4a03      	ldr	r2, [pc, #12]	; (80a11f4 <_GLOBAL__sub_I__ZN5spark7NetworkE+0x10>)
 80a11e8:	601a      	str	r2, [r3, #0]
 80a11ea:	2200      	movs	r2, #0
 80a11ec:	605a      	str	r2, [r3, #4]
 80a11ee:	4770      	bx	lr
 80a11f0:	2000011c 	.word	0x2000011c
 80a11f4:	080a2000 	.word	0x080a2000

080a11f8 <_ZN5Print5writeEPKhj>:

// Public Methods //////////////////////////////////////////////////////////////

/* default implementation: may be overridden */
size_t Print::write(const uint8_t *buffer, size_t size)
{
 80a11f8:	b5f8      	push	{r3, r4, r5, r6, r7, lr}
 80a11fa:	4606      	mov	r6, r0
 80a11fc:	460d      	mov	r5, r1
 80a11fe:	188f      	adds	r7, r1, r2
  size_t n = 0;
 80a1200:	2400      	movs	r4, #0
  while (size--) {
 80a1202:	42bd      	cmp	r5, r7
 80a1204:	d00c      	beq.n	80a1220 <_ZN5Print5writeEPKhj+0x28>
     int chunk = write(*buffer++);
 80a1206:	6833      	ldr	r3, [r6, #0]
 80a1208:	f815 1b01 	ldrb.w	r1, [r5], #1
 80a120c:	689b      	ldr	r3, [r3, #8]
 80a120e:	4630      	mov	r0, r6
 80a1210:	4798      	blx	r3
     if (chunk>=0)
 80a1212:	2800      	cmp	r0, #0
 80a1214:	db01      	blt.n	80a121a <_ZN5Print5writeEPKhj+0x22>
         n += chunk;
 80a1216:	4404      	add	r4, r0

/* default implementation: may be overridden */
size_t Print::write(const uint8_t *buffer, size_t size)
{
  size_t n = 0;
  while (size--) {
 80a1218:	e7f3      	b.n	80a1202 <_ZN5Print5writeEPKhj+0xa>
     int chunk = write(*buffer++);
 80a121a:	2c00      	cmp	r4, #0
 80a121c:	bf08      	it	eq
 80a121e:	4604      	moveq	r4, r0
             n = chunk;
         break;
     }
  }
  return n;
}
 80a1220:	4620      	mov	r0, r4
 80a1222:	bdf8      	pop	{r3, r4, r5, r6, r7, pc}

080a1224 <_ZN5Print5writeEPKc>:

    int getWriteError() { return write_error; }
    void clearWriteError() { setWriteError(0); }

    virtual size_t write(uint8_t) = 0;
    size_t write(const char *str) {
 80a1224:	b570      	push	{r4, r5, r6, lr}
 80a1226:	4605      	mov	r5, r0
      if (str == NULL) return 0;
 80a1228:	460c      	mov	r4, r1
      return write((const uint8_t *)str, strlen(str));
    }
 80a122a:	4608      	mov	r0, r1
    int getWriteError() { return write_error; }
    void clearWriteError() { setWriteError(0); }

    virtual size_t write(uint8_t) = 0;
    size_t write(const char *str) {
      if (str == NULL) return 0;
 80a122c:	b149      	cbz	r1, 80a1242 <_ZN5Print5writeEPKc+0x1e>
      return write((const uint8_t *)str, strlen(str));
 80a122e:	f000 fe0c 	bl	80a1e4a <strlen>
 80a1232:	682b      	ldr	r3, [r5, #0]
 80a1234:	4602      	mov	r2, r0
 80a1236:	4621      	mov	r1, r4
 80a1238:	4628      	mov	r0, r5
    }
 80a123a:	e8bd 4070 	ldmia.w	sp!, {r4, r5, r6, lr}
    void clearWriteError() { setWriteError(0); }

    virtual size_t write(uint8_t) = 0;
    size_t write(const char *str) {
      if (str == NULL) return 0;
      return write((const uint8_t *)str, strlen(str));
 80a123e:	68db      	ldr	r3, [r3, #12]
 80a1240:	4718      	bx	r3
    }
 80a1242:	bd70      	pop	{r4, r5, r6, pc}

080a1244 <_ZN5Print5printEc>:
  return write(str);
}

size_t Print::print(char c)
{
  return write(c);
 80a1244:	6803      	ldr	r3, [r0, #0]
 80a1246:	689b      	ldr	r3, [r3, #8]
 80a1248:	4718      	bx	r3

080a124a <_ZN5Print11printNumberEmh>:
  char *str = &buf[sizeof(buf) - 1];

  *str = '\0';

  // prevent crash if called with base == 1
  if (base < 2) base = 10;
 80a124a:	2a01      	cmp	r2, #1
 80a124c:	bf98      	it	ls
 80a124e:	220a      	movls	r2, #10
  return println(reinterpret_cast<const char*>(str));
}

// Private Methods /////////////////////////////////////////////////////////////

size_t Print::printNumber(unsigned long n, uint8_t base) {
 80a1250:	b530      	push	{r4, r5, lr}
 80a1252:	460b      	mov	r3, r1
 80a1254:	b08b      	sub	sp, #44	; 0x2c
  char buf[8 * sizeof(n) + 1]; // Assumes 8-bit chars plus zero byte.
  char *str = &buf[sizeof(buf) - 1];

  *str = '\0';
 80a1256:	2100      	movs	r1, #0
 80a1258:	f88d 1024 	strb.w	r1, [sp, #36]	; 0x24
 80a125c:	f10d 0423 	add.w	r4, sp, #35	; 0x23
  // prevent crash if called with base == 1
  if (base < 2) base = 10;

  do {
   decltype(n) m = n;
   n /= base;
 80a1260:	fbb3 f5f2 	udiv	r5, r3, r2
   char c = m - base * n;
 80a1264:	fb05 3312 	mls	r3, r5, r2, r3
 80a1268:	b2db      	uxtb	r3, r3
   *--str = c < 10 ? c + '0' : c + 'A' - 10;
 80a126a:	2b09      	cmp	r3, #9
 80a126c:	bf94      	ite	ls
 80a126e:	3330      	addls	r3, #48	; 0x30
 80a1270:	3337      	addhi	r3, #55	; 0x37
 80a1272:	b2db      	uxtb	r3, r3
 80a1274:	4621      	mov	r1, r4
 80a1276:	f804 3901 	strb.w	r3, [r4], #-1
 80a127a:	462b      	mov	r3, r5
  *str = '\0';

  // prevent crash if called with base == 1
  if (base < 2) base = 10;

  do {
 80a127c:	2d00      	cmp	r5, #0
 80a127e:	d1ef      	bne.n	80a1260 <_ZN5Print11printNumberEmh+0x16>
   n /= base;
   char c = m - base * n;
   *--str = c < 10 ? c + '0' : c + 'A' - 10;
  } while(n);

  return write(str);
 80a1280:	f7ff ffd0 	bl	80a1224 <_ZN5Print5writeEPKc>
}
 80a1284:	b00b      	add	sp, #44	; 0x2c
 80a1286:	bd30      	pop	{r4, r5, pc}

080a1288 <_ZN8RGBClassD1Ev>:
#include "rgbled.h"

typedef void (raw_rgb_change_handler_t)(uint8_t, uint8_t, uint8_t);
typedef std::function<raw_rgb_change_handler_t> wiring_rgb_change_handler_t;

class RGBClass {
 80a1288:	b510      	push	{r4, lr}
 80a128a:	4604      	mov	r4, r0
 80a128c:	f7fe ff54 	bl	80a0138 <_ZNSt14_Function_baseD1Ev>
 80a1290:	4620      	mov	r0, r4
 80a1292:	bd10      	pop	{r4, pc}

080a1294 <_GLOBAL__sub_I_RGB>:
	{
	  _Base::_M_init_functor(__functor, std::__addressof(__f.get()));
	}
      };

    _Function_base() : _M_manager(nullptr) { }
 80a1294:	4803      	ldr	r0, [pc, #12]	; (80a12a4 <_GLOBAL__sub_I_RGB+0x10>)
 80a1296:	2300      	movs	r3, #0
 80a1298:	6083      	str	r3, [r0, #8]
#include "spark_wiring_rgb.h"
#include "spark_wiring_interrupts.h"

#include "core_hal.h"

RGBClass RGB;
 80a129a:	4a03      	ldr	r2, [pc, #12]	; (80a12a8 <_GLOBAL__sub_I_RGB+0x14>)
 80a129c:	4903      	ldr	r1, [pc, #12]	; (80a12ac <_GLOBAL__sub_I_RGB+0x18>)
 80a129e:	f000 bc03 	b.w	80a1aa8 <__aeabi_atexit>
 80a12a2:	bf00      	nop
 80a12a4:	20000124 	.word	0x20000124
 80a12a8:	20000074 	.word	0x20000074
 80a12ac:	080a1289 	.word	0x080a1289

080a12b0 <_ZN8SPIClassC1E17HAL_SPI_Interface>:
    }
    return particle::__SPISettings(info->clock, info->bit_order, info->data_mode);
}
} // namespace

SPIClass::SPIClass(HAL_SPI_Interface spi)
 80a12b0:	b570      	push	{r4, r5, r6, lr}
 80a12b2:	4604      	mov	r4, r0
 80a12b4:	460e      	mov	r6, r1
    /**
     * Creates a shared mutex.
     */
    RecursiveMutex(os_mutex_recursive_t handle) : handle_(handle) {}

    RecursiveMutex() : handle_(nullptr)
 80a12b6:	2500      	movs	r5, #0
 80a12b8:	f840 5f08 	str.w	r5, [r0, #8]!
    {
        os_mutex_recursive_create(&handle_);
 80a12bc:	f7ff f94e 	bl	80a055c <os_mutex_recursive_create>
{
    _spi = spi;
    HAL_SPI_Init(_spi);
 80a12c0:	4630      	mov	r0, r6
}
} // namespace

SPIClass::SPIClass(HAL_SPI_Interface spi)
{
    _spi = spi;
 80a12c2:	7026      	strb	r6, [r4, #0]
    HAL_SPI_Init(_spi);
 80a12c4:	f7ff f9ec 	bl	80a06a0 <HAL_SPI_Init>
    _dividerReference = SPI_CLK_SYSTEM; // 0 indicates the system clock
 80a12c8:	6065      	str	r5, [r4, #4]
}
 80a12ca:	4620      	mov	r0, r4
 80a12cc:	bd70      	pop	{r4, r5, r6, pc}

080a12ce <_ZN8SPIClass9isEnabledEv>:
bool SPIClass::isEnabled()
{
    // XXX: pinAvailable() will call this method potentially even from
    // interrupt context. `enabled` flag in HAL is usually just a volatile
    // variable, so it's fine not to acquire the lock here.
    return HAL_SPI_Is_Enabled(_spi);
 80a12ce:	7800      	ldrb	r0, [r0, #0]
 80a12d0:	f7ff b9ee 	b.w	80a06b0 <HAL_SPI_Is_Enabled>

080a12d4 <_ZN17SystemSleepResult22freeWakeupSourceMemoryEv.isra.2>:
    operator SleepResult() {
        return toSleepResult();
    }

private:
    void freeWakeupSourceMemory() {
 80a12d4:	b510      	push	{r4, lr}
 80a12d6:	4604      	mov	r4, r0
        if (wakeupSource_) {
 80a12d8:	6800      	ldr	r0, [r0, #0]
 80a12da:	b118      	cbz	r0, 80a12e4 <_ZN17SystemSleepResult22freeWakeupSourceMemoryEv.isra.2+0x10>
            free(wakeupSource_);
 80a12dc:	f7ff fb2e 	bl	80a093c <free>
            wakeupSource_ = nullptr;
 80a12e0:	2300      	movs	r3, #0
 80a12e2:	6023      	str	r3, [r4, #0]
 80a12e4:	bd10      	pop	{r4, pc}

080a12e6 <_ZN17SystemSleepResultaSEOS_>:
            wakeupSource_ = result.wakeupSource_;
            result.wakeupSource_ = nullptr;
        }
    }

    SystemSleepResult& operator=(SystemSleepResult&& result) {
 80a12e6:	b538      	push	{r3, r4, r5, lr}
        error_ = result.error_;
 80a12e8:	f9b1 3004 	ldrsh.w	r3, [r1, #4]
            wakeupSource_ = result.wakeupSource_;
            result.wakeupSource_ = nullptr;
        }
    }

    SystemSleepResult& operator=(SystemSleepResult&& result) {
 80a12ec:	460d      	mov	r5, r1
        error_ = result.error_;
 80a12ee:	8083      	strh	r3, [r0, #4]
        compatResult_ = result.compatResult_;
 80a12f0:	460b      	mov	r3, r1
 80a12f2:	f853 2f06 	ldr.w	r2, [r3, #6]!
            wakeupSource_ = result.wakeupSource_;
            result.wakeupSource_ = nullptr;
        }
    }

    SystemSleepResult& operator=(SystemSleepResult&& result) {
 80a12f6:	4604      	mov	r4, r0
        error_ = result.error_;
        compatResult_ = result.compatResult_;
 80a12f8:	f8c0 2006 	str.w	r2, [r0, #6]
 80a12fc:	889b      	ldrh	r3, [r3, #4]
 80a12fe:	8143      	strh	r3, [r0, #10]
        freeWakeupSourceMemory();
 80a1300:	f7ff ffe8 	bl	80a12d4 <_ZN17SystemSleepResult22freeWakeupSourceMemoryEv.isra.2>
        if (result.wakeupSource_) {
 80a1304:	682b      	ldr	r3, [r5, #0]
 80a1306:	b113      	cbz	r3, 80a130e <_ZN17SystemSleepResultaSEOS_+0x28>
            wakeupSource_ = result.wakeupSource_;
 80a1308:	6023      	str	r3, [r4, #0]
            result.wakeupSource_ = nullptr;
 80a130a:	2300      	movs	r3, #0
 80a130c:	602b      	str	r3, [r5, #0]
        }
        return *this;
    }
 80a130e:	4620      	mov	r0, r4
 80a1310:	bd38      	pop	{r3, r4, r5, pc}
	...

080a1314 <_ZN17SystemSleepResult16copyWakeupSourceEP24hal_wakeup_source_base_t>:
            free(wakeupSource_);
            wakeupSource_ = nullptr;
        }
    }

    int copyWakeupSource(hal_wakeup_source_base_t* source) {
 80a1314:	b538      	push	{r3, r4, r5, lr}
 80a1316:	460c      	mov	r4, r1
 80a1318:	4605      	mov	r5, r0
        freeWakeupSourceMemory();
 80a131a:	f7ff ffdb 	bl	80a12d4 <_ZN17SystemSleepResult22freeWakeupSourceMemoryEv.isra.2>
        if (source) {
 80a131e:	b144      	cbz	r4, 80a1332 <_ZN17SystemSleepResult16copyWakeupSourceEP24hal_wakeup_source_base_t+0x1e>
            wakeupSource_ = (hal_wakeup_source_base_t*)malloc(source->size);
 80a1320:	8820      	ldrh	r0, [r4, #0]
 80a1322:	f7ff fb03 	bl	80a092c <malloc>
 80a1326:	6028      	str	r0, [r5, #0]
            if (wakeupSource_) {
 80a1328:	b128      	cbz	r0, 80a1336 <_ZN17SystemSleepResult16copyWakeupSourceEP24hal_wakeup_source_base_t+0x22>
                memcpy(wakeupSource_, source, source->size);
 80a132a:	8822      	ldrh	r2, [r4, #0]
 80a132c:	4621      	mov	r1, r4
 80a132e:	f000 fd35 	bl	80a1d9c <memcpy>
            } else {
                return SYSTEM_ERROR_NO_MEMORY;
            }
        }
        return SYSTEM_ERROR_NONE;
 80a1332:	2000      	movs	r0, #0
 80a1334:	bd38      	pop	{r3, r4, r5, pc}
        if (source) {
            wakeupSource_ = (hal_wakeup_source_base_t*)malloc(source->size);
            if (wakeupSource_) {
                memcpy(wakeupSource_, source, source->size);
            } else {
                return SYSTEM_ERROR_NO_MEMORY;
 80a1336:	4801      	ldr	r0, [pc, #4]	; (80a133c <_ZN17SystemSleepResult16copyWakeupSourceEP24hal_wakeup_source_base_t+0x28>)
            }
        }
        return SYSTEM_ERROR_NONE;
    }
 80a1338:	bd38      	pop	{r3, r4, r5, pc}
 80a133a:	bf00      	nop
 80a133c:	fffffefc 	.word	0xfffffefc

080a1340 <_ZN11SystemClass5sleepERK24SystemSleepConfiguration>:
void SystemClass::reset(uint32_t data)
{
    HAL_Core_System_Reset_Ex(RESET_REASON_USER, data, nullptr);
}

SystemSleepResult SystemClass::sleep(const SystemSleepConfiguration& config) {
 80a1340:	b5f0      	push	{r4, r5, r6, r7, lr}
 80a1342:	4d30      	ldr	r5, [pc, #192]	; (80a1404 <_ZN11SystemClass5sleepERK24SystemSleepConfiguration+0xc4>)
    }

    // It doesn't guarantee the combination of sleep mode and
    // wakeup sources that the platform supports.
    bool valid() const {
        if (!valid_) {
 80a1344:	7d0b      	ldrb	r3, [r1, #20]
 80a1346:	4604      	mov	r4, r0
 80a1348:	b08b      	sub	sp, #44	; 0x2c
 80a134a:	4608      	mov	r0, r1
 80a134c:	1daf      	adds	r7, r5, #6
 80a134e:	b313      	cbz	r3, 80a1396 <_ZN11SystemClass5sleepERK24SystemSleepConfiguration+0x56>
    particle::EnumFlags<SystemSleepFlag> sleepFlags() const {
        return particle::EnumFlags<SystemSleepFlag>::fromUnderlying(config_->flags);
    }

    SystemSleepMode sleepMode() const {
        return static_cast<SystemSleepMode>(config_->mode);
 80a1350:	680b      	ldr	r3, [r1, #0]
    // wakeup sources that the platform supports.
    bool valid() const {
        if (!valid_) {
            return valid_;
        }
        if (sleepMode() == SystemSleepMode::NONE) {
 80a1352:	791b      	ldrb	r3, [r3, #4]
 80a1354:	b1fb      	cbz	r3, 80a1396 <_ZN11SystemClass5sleepERK24SystemSleepConfiguration+0x56>
    WAKEUP_REASON_PIN_OR_RTC = 3,
    WAKEUP_REASON_UNKNOWN = 4
};

struct SleepResult {
    SleepResult() {}
 80a1356:	f64f 73ff 	movw	r3, #65535	; 0xffff

class SystemSleepResult {
public:
    SystemSleepResult()
            : wakeupSource_(nullptr),
              error_(SYSTEM_ERROR_NONE) {
 80a135a:	2200      	movs	r2, #0
    if (!config.valid()) {
        LOG(ERROR, "System sleep configuration is invalid.");
        System.systemSleepResult_ = SystemSleepResult(SYSTEM_ERROR_INVALID_ARGUMENT);
    } else {
        SystemSleepResult result;
        int ret = system_sleep_ext(config.halConfig(), result.halWakeupSource(), nullptr);
 80a135c:	a902      	add	r1, sp, #8
 80a135e:	3004      	adds	r0, #4
 80a1360:	9202      	str	r2, [sp, #8]
 80a1362:	f8ad 200c 	strh.w	r2, [sp, #12]
    WAKEUP_REASON_PIN_OR_RTC = 3,
    WAKEUP_REASON_UNKNOWN = 4
};

struct SleepResult {
    SleepResult() {}
 80a1366:	f88d 200e 	strb.w	r2, [sp, #14]
 80a136a:	f8ad 2010 	strh.w	r2, [sp, #16]
 80a136e:	f8ad 3012 	strh.w	r3, [sp, #18]
 80a1372:	f7ff fa51 	bl	80a0818 <system_sleep_ext>
        copyWakeupSource(result.wakeupSource_);
    }

    SystemSleepResult& operator=(const SystemSleepResult& result) {
        error_ = result.error_;
        compatResult_ = result.compatResult_;
 80a1376:	ab0a      	add	r3, sp, #40	; 0x28
 80a1378:	f853 2d1a 	ldr.w	r2, [r3, #-26]!
        result.setError(static_cast<system_error_t>(ret));
 80a137c:	b200      	sxth	r0, r0
 80a137e:	889b      	ldrh	r3, [r3, #4]
    ~SystemSleepResult() {
        freeWakeupSourceMemory();
    }

    void setError(system_error_t error, bool clear = false) {
        error_ = error;
 80a1380:	f8ad 000c 	strh.w	r0, [sp, #12]
        compatResult_ = result.compatResult_;
        copyWakeupSource(result.wakeupSource_);
    }

    SystemSleepResult& operator=(const SystemSleepResult& result) {
        error_ = result.error_;
 80a1384:	80a8      	strh	r0, [r5, #4]
        compatResult_ = result.compatResult_;
 80a1386:	f8c5 2006 	str.w	r2, [r5, #6]
        copyWakeupSource(result.wakeupSource_);
 80a138a:	9902      	ldr	r1, [sp, #8]
        copyWakeupSource(result.wakeupSource_);
    }

    SystemSleepResult& operator=(const SystemSleepResult& result) {
        error_ = result.error_;
        compatResult_ = result.compatResult_;
 80a138c:	80bb      	strh	r3, [r7, #4]
        copyWakeupSource(result.wakeupSource_);
 80a138e:	4628      	mov	r0, r5
 80a1390:	f7ff ffc0 	bl	80a1314 <_ZN17SystemSleepResult16copyWakeupSourceEP24hal_wakeup_source_base_t>
 80a1394:	e01c      	b.n	80a13d0 <_ZN11SystemClass5sleepERK24SystemSleepConfiguration+0x90>
    HAL_Core_System_Reset_Ex(RESET_REASON_USER, data, nullptr);
}

SystemSleepResult SystemClass::sleep(const SystemSleepConfiguration& config) {
    if (!config.valid()) {
        LOG(ERROR, "System sleep configuration is invalid.");
 80a1396:	2320      	movs	r3, #32
 80a1398:	9302      	str	r3, [sp, #8]
 80a139a:	4b1b      	ldr	r3, [pc, #108]	; (80a1408 <_ZN11SystemClass5sleepERK24SystemSleepConfiguration+0xc8>)
 80a139c:	2600      	movs	r6, #0
 80a139e:	9300      	str	r3, [sp, #0]
 80a13a0:	491a      	ldr	r1, [pc, #104]	; (80a140c <_ZN11SystemClass5sleepERK24SystemSleepConfiguration+0xcc>)
 80a13a2:	4633      	mov	r3, r6
 80a13a4:	2032      	movs	r0, #50	; 0x32
 80a13a6:	aa02      	add	r2, sp, #8
 80a13a8:	9603      	str	r6, [sp, #12]
 80a13aa:	f7ff fa01 	bl	80a07b0 <log_message>
    WAKEUP_REASON_PIN_OR_RTC = 3,
    WAKEUP_REASON_UNKNOWN = 4
};

struct SleepResult {
    SleepResult() {}
 80a13ae:	f64f 73ff 	movw	r3, #65535	; 0xffff
 80a13b2:	f8ad 3012 	strh.w	r3, [sp, #18]
        error_ = error;
    }

    SystemSleepResult(system_error_t error)
            : SystemSleepResult() {
        error_ = error;
 80a13b6:	f64f 63f2 	movw	r3, #65266	; 0xfef2
        System.systemSleepResult_ = SystemSleepResult(SYSTEM_ERROR_INVALID_ARGUMENT);
 80a13ba:	a902      	add	r1, sp, #8
 80a13bc:	4811      	ldr	r0, [pc, #68]	; (80a1404 <_ZN11SystemClass5sleepERK24SystemSleepConfiguration+0xc4>)

class SystemSleepResult {
public:
    SystemSleepResult()
            : wakeupSource_(nullptr),
              error_(SYSTEM_ERROR_NONE) {
 80a13be:	9602      	str	r6, [sp, #8]
    WAKEUP_REASON_PIN_OR_RTC = 3,
    WAKEUP_REASON_UNKNOWN = 4
};

struct SleepResult {
    SleepResult() {}
 80a13c0:	f88d 600e 	strb.w	r6, [sp, #14]
 80a13c4:	f8ad 6010 	strh.w	r6, [sp, #16]
        error_ = error;
    }

    SystemSleepResult(system_error_t error)
            : SystemSleepResult() {
        error_ = error;
 80a13c8:	f8ad 300c 	strh.w	r3, [sp, #12]
 80a13cc:	f7ff ff8b 	bl	80a12e6 <_ZN17SystemSleepResultaSEOS_>
        }
        return *this;
    }

    ~SystemSleepResult() {
        freeWakeupSourceMemory();
 80a13d0:	a802      	add	r0, sp, #8
 80a13d2:	f7ff ff7f 	bl	80a12d4 <_ZN17SystemSleepResult22freeWakeupSourceMemoryEv.isra.2>

class SystemSleepResult {
public:
    SystemSleepResult()
            : wakeupSource_(nullptr),
              error_(SYSTEM_ERROR_NONE) {
 80a13d6:	2300      	movs	r3, #0
 80a13d8:	6023      	str	r3, [r4, #0]
 80a13da:	80a3      	strh	r3, [r4, #4]
    WAKEUP_REASON_PIN_OR_RTC = 3,
    WAKEUP_REASON_UNKNOWN = 4
};

struct SleepResult {
    SleepResult() {}
 80a13dc:	71a3      	strb	r3, [r4, #6]
 80a13de:	8123      	strh	r3, [r4, #8]
 80a13e0:	f64f 73ff 	movw	r3, #65535	; 0xffff
 80a13e4:	8163      	strh	r3, [r4, #10]
    }

    // Copy constructor
    SystemSleepResult(const SystemSleepResult& result)
            : SystemSleepResult() {
        error_ = result.error_;
 80a13e6:	f9b5 3004 	ldrsh.w	r3, [r5, #4]
        compatResult_ = result.compatResult_;
        copyWakeupSource(result.wakeupSource_);
 80a13ea:	6829      	ldr	r1, [r5, #0]
    }

    // Copy constructor
    SystemSleepResult(const SystemSleepResult& result)
            : SystemSleepResult() {
        error_ = result.error_;
 80a13ec:	80a3      	strh	r3, [r4, #4]
        compatResult_ = result.compatResult_;
 80a13ee:	683b      	ldr	r3, [r7, #0]
        copyWakeupSource(result.wakeupSource_);
 80a13f0:	4620      	mov	r0, r4

    // Copy constructor
    SystemSleepResult(const SystemSleepResult& result)
            : SystemSleepResult() {
        error_ = result.error_;
        compatResult_ = result.compatResult_;
 80a13f2:	f8c4 3006 	str.w	r3, [r4, #6]
 80a13f6:	88bb      	ldrh	r3, [r7, #4]
 80a13f8:	8163      	strh	r3, [r4, #10]
        copyWakeupSource(result.wakeupSource_);
 80a13fa:	f7ff ff8b 	bl	80a1314 <_ZN17SystemSleepResult16copyWakeupSourceEP24hal_wakeup_source_base_t>
        int ret = system_sleep_ext(config.halConfig(), result.halWakeupSource(), nullptr);
        result.setError(static_cast<system_error_t>(ret));
        System.systemSleepResult_ = result;
    }
    return System.systemSleepResult_;
}
 80a13fe:	4620      	mov	r0, r4
 80a1400:	b00b      	add	sp, #44	; 0x2c
 80a1402:	bdf0      	pop	{r4, r5, r6, r7, pc}
 80a1404:	20000134 	.word	0x20000134
 80a1408:	080a2033 	.word	0x080a2033
 80a140c:	080a202c 	.word	0x080a202c

080a1410 <_GLOBAL__sub_I_System>:
    WAKEUP_REASON_PIN_OR_RTC = 3,
    WAKEUP_REASON_UNKNOWN = 4
};

struct SleepResult {
    SleepResult() {}
 80a1410:	f64f 73ff 	movw	r3, #65535	; 0xffff
    return wokenUpByRtc();
}

system_error_t SleepResult::error() const {
    return err_;
 80a1414:	b510      	push	{r4, lr}

class SystemSleepResult {
public:
    SystemSleepResult()
            : wakeupSource_(nullptr),
              error_(SYSTEM_ERROR_NONE) {
 80a1416:	4c08      	ldr	r4, [pc, #32]	; (80a1438 <_GLOBAL__sub_I_System+0x28>)
 80a1418:	2000      	movs	r0, #0
 80a141a:	6020      	str	r0, [r4, #0]
 80a141c:	80a0      	strh	r0, [r4, #4]
    WAKEUP_REASON_PIN_OR_RTC = 3,
    WAKEUP_REASON_UNKNOWN = 4
};

struct SleepResult {
    SleepResult() {}
 80a141e:	71a0      	strb	r0, [r4, #6]
 80a1420:	8120      	strh	r0, [r4, #8]
 80a1422:	8163      	strh	r3, [r4, #10]

class SystemClass {
public:

    SystemClass(System_Mode_TypeDef mode = DEFAULT) {
        set_system_mode(mode);
 80a1424:	f7ff f9cc 	bl	80a07c0 <set_system_mode>

#if Wiring_LogConfig
extern void(*log_process_ctrl_request_callback)(ctrl_request* req);
#endif

SystemClass System;
 80a1428:	4620      	mov	r0, r4
    return wokenUpByRtc();
}

system_error_t SleepResult::error() const {
    return err_;
 80a142a:	e8bd 4010 	ldmia.w	sp!, {r4, lr}

#if Wiring_LogConfig
extern void(*log_process_ctrl_request_callback)(ctrl_request* req);
#endif

SystemClass System;
 80a142e:	4a03      	ldr	r2, [pc, #12]	; (80a143c <_GLOBAL__sub_I_System+0x2c>)
 80a1430:	4903      	ldr	r1, [pc, #12]	; (80a1440 <_GLOBAL__sub_I_System+0x30>)
 80a1432:	f000 bb39 	b.w	80a1aa8 <__aeabi_atexit>
 80a1436:	bf00      	nop
 80a1438:	20000134 	.word	0x20000134
 80a143c:	20000074 	.word	0x20000074
 80a1440:	080a0129 	.word	0x080a0129

080a1444 <_GLOBAL__sub_I_TIME_FORMAT_DEFAULT>:
            calendar_time_cache = Convert_UnixTime_To_CalendarTime(unix_time);
            unix_time_cache = unix_time;
    }
}

const char* TimeClass::format_spec = TIME_FORMAT_DEFAULT;
 80a1444:	4b02      	ldr	r3, [pc, #8]	; (80a1450 <_GLOBAL__sub_I_TIME_FORMAT_DEFAULT+0xc>)
 80a1446:	681a      	ldr	r2, [r3, #0]
 80a1448:	4b02      	ldr	r3, [pc, #8]	; (80a1454 <_GLOBAL__sub_I_TIME_FORMAT_DEFAULT+0x10>)
 80a144a:	601a      	str	r2, [r3, #0]
 80a144c:	4770      	bx	lr
 80a144e:	bf00      	nop
 80a1450:	2000000c 	.word	0x2000000c
 80a1454:	20000140 	.word	0x20000140

080a1458 <_ZN11USARTSerialD1Ev>:
private:
  HAL_USART_Serial _serial;
  bool _blocking;
public:
  USARTSerial(HAL_USART_Serial serial, Ring_Buffer *rx_buffer, Ring_Buffer *tx_buffer);
  virtual ~USARTSerial() {};
 80a1458:	4770      	bx	lr

080a145a <_ZN11USARTSerial14blockOnOverrunEb>:
    HAL_USART_Half_Duplex(_serial, Enable);
}

void USARTSerial::blockOnOverrun(bool block)
{
  _blocking = block;
 80a145a:	7441      	strb	r1, [r0, #17]
 80a145c:	4770      	bx	lr

080a145e <_ZN11USARTSerial17availableForWriteEv>:
}


int USARTSerial::availableForWrite(void)
{
 80a145e:	b508      	push	{r3, lr}
  return std::max(0, (int)HAL_USART_Available_Data_For_Write(_serial));
 80a1460:	7c00      	ldrb	r0, [r0, #16]
 80a1462:	f7ff f965 	bl	80a0730 <HAL_USART_Available_Data_For_Write>
}
 80a1466:	ea20 70e0 	bic.w	r0, r0, r0, asr #31
 80a146a:	bd08      	pop	{r3, pc}

080a146c <_ZN11USARTSerial9availableEv>:

int USARTSerial::available(void)
{
 80a146c:	b508      	push	{r3, lr}
  return std::max(0, (int)HAL_USART_Available_Data(_serial));
 80a146e:	7c00      	ldrb	r0, [r0, #16]
 80a1470:	f7ff f936 	bl	80a06e0 <HAL_USART_Available_Data>
}
 80a1474:	ea20 70e0 	bic.w	r0, r0, r0, asr #31
 80a1478:	bd08      	pop	{r3, pc}

080a147a <_ZN11USARTSerial4peekEv>:

int USARTSerial::peek(void)
{
 80a147a:	b508      	push	{r3, lr}
  return std::max(-1, (int)HAL_USART_Peek_Data(_serial));
 80a147c:	7c00      	ldrb	r0, [r0, #16]
 80a147e:	f7ff f93f 	bl	80a0700 <HAL_USART_Peek_Data>
}
 80a1482:	ea30 0020 	bics.w	r0, r0, r0, asr #32
 80a1486:	bf28      	it	cs
 80a1488:	f04f 30ff 	movcs.w	r0, #4294967295	; 0xffffffff
 80a148c:	bd08      	pop	{r3, pc}

080a148e <_ZN11USARTSerial4readEv>:

int USARTSerial::read(void)
{
 80a148e:	b508      	push	{r3, lr}
  return std::max(-1, (int)HAL_USART_Read_Data(_serial));
 80a1490:	7c00      	ldrb	r0, [r0, #16]
 80a1492:	f7ff f92d 	bl	80a06f0 <HAL_USART_Read_Data>
}
 80a1496:	ea30 0020 	bics.w	r0, r0, r0, asr #32
 80a149a:	bf28      	it	cs
 80a149c:	f04f 30ff 	movcs.w	r0, #4294967295	; 0xffffffff
 80a14a0:	bd08      	pop	{r3, pc}

080a14a2 <_ZN11USARTSerial5flushEv>:

void USARTSerial::flush()
{
  HAL_USART_Flush_Data(_serial);
 80a14a2:	7c00      	ldrb	r0, [r0, #16]
 80a14a4:	f7ff b934 	b.w	80a0710 <HAL_USART_Flush_Data>

080a14a8 <_ZN11USARTSerialD0Ev>:
 80a14a8:	b510      	push	{r4, lr}
 80a14aa:	4604      	mov	r4, r0
 80a14ac:	2114      	movs	r1, #20
 80a14ae:	f000 fb00 	bl	80a1ab2 <_ZdlPvj>
 80a14b2:	4620      	mov	r0, r4
 80a14b4:	bd10      	pop	{r4, pc}

080a14b6 <_ZN11USARTSerial5writeEh>:
}

size_t USARTSerial::write(uint8_t c)
{
 80a14b6:	b570      	push	{r4, r5, r6, lr}
  // attempt a write if blocking, or for non-blocking if there is room.
  if (_blocking || HAL_USART_Available_Data_For_Write(_serial) > 0) {
 80a14b8:	7c45      	ldrb	r5, [r0, #17]
{
  HAL_USART_Flush_Data(_serial);
}

size_t USARTSerial::write(uint8_t c)
{
 80a14ba:	4604      	mov	r4, r0
 80a14bc:	460e      	mov	r6, r1
  // attempt a write if blocking, or for non-blocking if there is room.
  if (_blocking || HAL_USART_Available_Data_For_Write(_serial) > 0) {
 80a14be:	b925      	cbnz	r5, 80a14ca <_ZN11USARTSerial5writeEh+0x14>
 80a14c0:	7c00      	ldrb	r0, [r0, #16]
 80a14c2:	f7ff f935 	bl	80a0730 <HAL_USART_Available_Data_For_Write>
 80a14c6:	2800      	cmp	r0, #0
 80a14c8:	dd05      	ble.n	80a14d6 <_ZN11USARTSerial5writeEh+0x20>
    // the HAL always blocks.
	  return HAL_USART_Write_Data(_serial, c);
 80a14ca:	4631      	mov	r1, r6
 80a14cc:	7c20      	ldrb	r0, [r4, #16]
  }
  return 0;
}
 80a14ce:	e8bd 4070 	ldmia.w	sp!, {r4, r5, r6, lr}
size_t USARTSerial::write(uint8_t c)
{
  // attempt a write if blocking, or for non-blocking if there is room.
  if (_blocking || HAL_USART_Available_Data_For_Write(_serial) > 0) {
    // the HAL always blocks.
	  return HAL_USART_Write_Data(_serial, c);
 80a14d2:	f7ff b8fd 	b.w	80a06d0 <HAL_USART_Write_Data>
  }
  return 0;
}
 80a14d6:	4628      	mov	r0, r5
 80a14d8:	bd70      	pop	{r4, r5, r6, pc}
	...

080a14dc <_ZN11USARTSerialC1E16HAL_USART_SerialP11Ring_BufferS2_>:
#include "spark_wiring_constants.h"
#include "module_info.h"

// Constructors ////////////////////////////////////////////////////////////////

USARTSerial::USARTSerial(HAL_USART_Serial serial, Ring_Buffer *rx_buffer, Ring_Buffer *tx_buffer)
 80a14dc:	b510      	push	{r4, lr}
 80a14de:	4604      	mov	r4, r0
 80a14e0:	4608      	mov	r0, r1
 80a14e2:	4611      	mov	r1, r2
  protected:
    void setWriteError(int err = 1) { write_error = err; }
    size_t printf_impl(bool newline, const char* format, ...);

  public:
    Print() : write_error(0) {}
 80a14e4:	2200      	movs	r2, #0
 80a14e6:	6062      	str	r2, [r4, #4]
